{
  "contractName": "Microverse",
  "abi": [
    {
      "constant": true,
      "inputs": [],
      "name": "totalPayments",
      "outputs": [
        {
          "name": "",
          "type": "uint256"
        }
      ],
      "payable": false,
      "stateMutability": "view",
      "type": "function"
    },
    {
      "constant": true,
      "inputs": [],
      "name": "nextJackpot",
      "outputs": [
        {
          "name": "",
          "type": "uint256"
        }
      ],
      "payable": false,
      "stateMutability": "view",
      "type": "function"
    },
    {
      "constant": true,
      "inputs": [],
      "name": "auctionDuration",
      "outputs": [
        {
          "name": "",
          "type": "uint256"
        }
      ],
      "payable": false,
      "stateMutability": "view",
      "type": "function"
    },
    {
      "constant": true,
      "inputs": [],
      "name": "startingRoundExtension",
      "outputs": [
        {
          "name": "",
          "type": "uint256"
        }
      ],
      "payable": false,
      "stateMutability": "view",
      "type": "function"
    },
    {
      "constant": true,
      "inputs": [],
      "name": "minTileId",
      "outputs": [
        {
          "name": "",
          "type": "uint8"
        }
      ],
      "payable": false,
      "stateMutability": "view",
      "type": "function"
    },
    {
      "constant": true,
      "inputs": [],
      "name": "totalTileValue",
      "outputs": [
        {
          "name": "",
          "type": "uint256"
        }
      ],
      "payable": false,
      "stateMutability": "view",
      "type": "function"
    },
    {
      "constant": true,
      "inputs": [],
      "name": "startingAuctionPrice",
      "outputs": [
        {
          "name": "",
          "type": "uint256"
        }
      ],
      "payable": false,
      "stateMutability": "view",
      "type": "function"
    },
    {
      "constant": true,
      "inputs": [],
      "name": "endingAuctionPrice",
      "outputs": [
        {
          "name": "",
          "type": "uint256"
        }
      ],
      "payable": false,
      "stateMutability": "view",
      "type": "function"
    },
    {
      "constant": true,
      "inputs": [],
      "name": "halvingVolume",
      "outputs": [
        {
          "name": "",
          "type": "uint256"
        }
      ],
      "payable": false,
      "stateMutability": "view",
      "type": "function"
    },
    {
      "constant": true,
      "inputs": [
        {
          "name": "",
          "type": "uint8"
        }
      ],
      "name": "tileToPrice",
      "outputs": [
        {
          "name": "",
          "type": "uint256"
        }
      ],
      "payable": false,
      "stateMutability": "view",
      "type": "function"
    },
    {
      "constant": false,
      "inputs": [],
      "name": "withdrawPayments",
      "outputs": [],
      "payable": false,
      "stateMutability": "nonpayable",
      "type": "function"
    },
    {
      "constant": true,
      "inputs": [
        {
          "name": "",
          "type": "uint8"
        }
      ],
      "name": "tileToOwner",
      "outputs": [
        {
          "name": "",
          "type": "address"
        }
      ],
      "payable": false,
      "stateMutability": "view",
      "type": "function"
    },
    {
      "constant": true,
      "inputs": [],
      "name": "jackpot",
      "outputs": [
        {
          "name": "",
          "type": "uint256"
        }
      ],
      "payable": false,
      "stateMutability": "view",
      "type": "function"
    },
    {
      "constant": true,
      "inputs": [],
      "name": "numBoughtTiles",
      "outputs": [
        {
          "name": "",
          "type": "uint256"
        }
      ],
      "payable": false,
      "stateMutability": "view",
      "type": "function"
    },
    {
      "constant": true,
      "inputs": [],
      "name": "curExtensionVolume",
      "outputs": [
        {
          "name": "",
          "type": "uint256"
        }
      ],
      "payable": false,
      "stateMutability": "view",
      "type": "function"
    },
    {
      "constant": true,
      "inputs": [],
      "name": "owner",
      "outputs": [
        {
          "name": "",
          "type": "address"
        }
      ],
      "payable": false,
      "stateMutability": "view",
      "type": "function"
    },
    {
      "constant": true,
      "inputs": [
        {
          "name": "",
          "type": "uint8"
        },
        {
          "name": "",
          "type": "uint256"
        }
      ],
      "name": "tileToNeighbors",
      "outputs": [
        {
          "name": "",
          "type": "uint8"
        }
      ],
      "payable": false,
      "stateMutability": "view",
      "type": "function"
    },
    {
      "constant": true,
      "inputs": [],
      "name": "nullNeighborValue",
      "outputs": [
        {
          "name": "",
          "type": "uint8"
        }
      ],
      "payable": false,
      "stateMutability": "view",
      "type": "function"
    },
    {
      "constant": true,
      "inputs": [],
      "name": "stage",
      "outputs": [
        {
          "name": "",
          "type": "uint8"
        }
      ],
      "payable": false,
      "stateMutability": "view",
      "type": "function"
    },
    {
      "constant": true,
      "inputs": [],
      "name": "curRoundExtension",
      "outputs": [
        {
          "name": "",
          "type": "uint256"
        }
      ],
      "payable": false,
      "stateMutability": "view",
      "type": "function"
    },
    {
      "constant": true,
      "inputs": [],
      "name": "maxTileId",
      "outputs": [
        {
          "name": "",
          "type": "uint8"
        }
      ],
      "payable": false,
      "stateMutability": "view",
      "type": "function"
    },
    {
      "constant": true,
      "inputs": [],
      "name": "minRoundExtension",
      "outputs": [
        {
          "name": "",
          "type": "uint256"
        }
      ],
      "payable": false,
      "stateMutability": "view",
      "type": "function"
    },
    {
      "constant": true,
      "inputs": [
        {
          "name": "",
          "type": "address"
        }
      ],
      "name": "payments",
      "outputs": [
        {
          "name": "",
          "type": "uint256"
        }
      ],
      "payable": false,
      "stateMutability": "view",
      "type": "function"
    },
    {
      "constant": true,
      "inputs": [],
      "name": "roundEndTime",
      "outputs": [
        {
          "name": "",
          "type": "uint256"
        }
      ],
      "payable": false,
      "stateMutability": "view",
      "type": "function"
    },
    {
      "constant": true,
      "inputs": [],
      "name": "numTiles",
      "outputs": [
        {
          "name": "",
          "type": "uint8"
        }
      ],
      "payable": false,
      "stateMutability": "view",
      "type": "function"
    },
    {
      "constant": true,
      "inputs": [],
      "name": "auctionStartTime",
      "outputs": [
        {
          "name": "",
          "type": "uint256"
        }
      ],
      "payable": false,
      "stateMutability": "view",
      "type": "function"
    },
    {
      "constant": false,
      "inputs": [
        {
          "name": "newOwner",
          "type": "address"
        }
      ],
      "name": "transferOwnership",
      "outputs": [],
      "payable": false,
      "stateMutability": "nonpayable",
      "type": "function"
    },
    {
      "inputs": [],
      "payable": false,
      "stateMutability": "nonpayable",
      "type": "constructor"
    },
    {
      "anonymous": false,
      "inputs": [
        {
          "indexed": false,
          "name": "startingAuctionPrice",
          "type": "uint256"
        },
        {
          "indexed": false,
          "name": "endingAuctionPrice",
          "type": "uint256"
        },
        {
          "indexed": false,
          "name": "auctionDuration",
          "type": "uint256"
        },
        {
          "indexed": false,
          "name": "startTime",
          "type": "uint256"
        }
      ],
      "name": "AuctionStarted",
      "type": "event"
    },
    {
      "anonymous": false,
      "inputs": [
        {
          "indexed": false,
          "name": "endTime",
          "type": "uint256"
        }
      ],
      "name": "AuctionEnded",
      "type": "event"
    },
    {
      "anonymous": false,
      "inputs": [
        {
          "indexed": true,
          "name": "previousOwner",
          "type": "address"
        },
        {
          "indexed": true,
          "name": "newOwner",
          "type": "address"
        }
      ],
      "name": "OwnershipTransferred",
      "type": "event"
    },
    {
      "constant": false,
      "inputs": [
        {
          "name": "tileId",
          "type": "uint8"
        },
        {
          "name": "newPrice",
          "type": "uint256"
        }
      ],
      "name": "buyTileAuction",
      "outputs": [],
      "payable": true,
      "stateMutability": "payable",
      "type": "function"
    },
    {
      "constant": true,
      "inputs": [],
      "name": "getTilePriceAuction",
      "outputs": [
        {
          "name": "",
          "type": "uint256"
        }
      ],
      "payable": false,
      "stateMutability": "view",
      "type": "function"
    },
    {
      "constant": true,
      "inputs": [],
      "name": "roundTimeRemaining",
      "outputs": [
        {
          "name": "",
          "type": "uint256"
        }
      ],
      "payable": false,
      "stateMutability": "view",
      "type": "function"
    },
    {
      "constant": false,
      "inputs": [],
      "name": "endGameRound",
      "outputs": [],
      "payable": false,
      "stateMutability": "nonpayable",
      "type": "function"
    },
    {
      "constant": false,
      "inputs": [
        {
          "name": "tileId",
          "type": "uint8"
        },
        {
          "name": "newPrice",
          "type": "uint256"
        }
      ],
      "name": "setTilePrice",
      "outputs": [],
      "payable": true,
      "stateMutability": "payable",
      "type": "function"
    },
    {
      "constant": false,
      "inputs": [
        {
          "name": "tileId",
          "type": "uint8"
        },
        {
          "name": "newPrice",
          "type": "uint256"
        }
      ],
      "name": "buyTile",
      "outputs": [],
      "payable": true,
      "stateMutability": "payable",
      "type": "function"
    }
  ],
  "bytecode": "0x60806040526003805460a060020a60ff021916905534801561002057600080fd5b5060038054600160a060020a03191633179055610044640100000000610049810204565b6100ae565b426008819055600060075560408051670de0b6b3a7640000815267016345785d8a0000602082015262093a80818301526060810192909252517fa832766a05f1bd0298b0268308621777cfe1e4eea23afe7c06beea79bc6ddd2d9181900360800190a1565b6112f7806100bd6000396000f30060806040526004361061019f5763ffffffff7c01000000000000000000000000000000000000000000000000000000006000350416625b448781146101a457806303fca061146101cb5780630cbf54c8146101e05780630e51574f146101f55780630eb51c9c1461020c5780631ccff7161461022157806320178db31461024c5780633459d2ba146102615780633ebf25081461027657806349087bcc1461028b57806351b472b9146102a05780635b98f169146102b55780636103d70b146102d057806366cd442a146102e55780636b31ee011461031c57806371566c23146103315780638771fc4a146103465780638da5cb5b1461035b578063925183cd14610370578063aca21a1e1461038e578063ad2daa48146103a3578063bdd60a09146103b8578063c040e6b8146103c9578063c253942914610402578063c9e87f3114610417578063de8d77e71461042c578063e2982c2114610441578063e40205d614610462578063e9360a3614610417578063eb54f9ec14610477578063f2fde38b1461048c578063fe8a5c86146104ad578063ffd1220d146104be575b600080fd5b3480156101b057600080fd5b506101b96104cf565b60408051918252519081900360200190f35b3480156101d757600080fd5b506101b96104d5565b3480156101ec57600080fd5b506101b96104db565b34801561020157600080fd5b5061020a6104e2565b005b34801561021857600080fd5b506101b961057a565b34801561022d57600080fd5b50610236610581565b6040805160ff9092168252519081900360200190f35b34801561025857600080fd5b506101b9610586565b34801561026d57600080fd5b506101b961058c565b34801561028257600080fd5b506101b96106aa565b34801561029757600080fd5b506101b96106b6565b3480156102ac57600080fd5b506101b96106c2565b3480156102c157600080fd5b506101b960ff600435166106cf565b3480156102dc57600080fd5b5061020a6106e1565b3480156102f157600080fd5b5061030060ff6004351661076a565b60408051600160a060020a039092168252519081900360200190f35b34801561032857600080fd5b506101b9610785565b34801561033d57600080fd5b506101b961078b565b34801561035257600080fd5b506101b9610791565b34801561036757600080fd5b50610300610797565b34801561037c57600080fd5b5061023660ff600435166024356107a6565b34801561039a57600080fd5b506102366107de565b3480156103af57600080fd5b506101b96107e3565b61020a60ff60043516602435610887565b3480156103d557600080fd5b506103de6109f5565b604051808260018111156103ee57fe5b60ff16815260200191505060405180910390f35b34801561040e57600080fd5b506101b9610a05565b34801561042357600080fd5b50610236610a0b565b34801561043857600080fd5b506101b9610a10565b34801561044d57600080fd5b506101b9600160a060020a0360043516610a15565b34801561046e57600080fd5b506101b9610a27565b34801561048357600080fd5b506101b9610a2d565b34801561049857600080fd5b5061020a600160a060020a0360043516610a33565b61020a60ff60043516602435610ac8565b61020a60ff60043516602435610bb7565b60025481565b600d5481565b62093a8081565b60018060035460a060020a900460ff1660018111156104fd57fe5b14610554576040805160e560020a62461bcd028152602060048201526027602482015260008051602061128c83398151915260448201526000805160206112ac833981519152606482015290519081900360840190fd5b61055c610d22565b151561056757600080fd5b61056f610d2b565b610577610d84565b50565b6201518081565b600181565b60065481565b6000808080808060035460a060020a900460ff1660018111156105ab57fe5b14610602576040805160e560020a62461bcd028152602060048201526027602482015260008051602061128c83398151915260448201526000805160206112ac833981519152606482015290519081900360840190fd5b600093506008544211156106275760085461062490429063ffffffff610da416565b93505b62093a8084106106415767016345785d8a000094506106a3565b610661670de0b6b3a764000067016345785d8a000063ffffffff610da416565b925061068662093a8061067a858763ffffffff610dc216565b9063ffffffff610df716565b91506106a0670de0b6b3a76400008363ffffffff610da416565b94505b5050505090565b670de0b6b3a764000081565b67016345785d8a000081565b68056bc75e2d6310000081565b60056020526000908152604090205481565b336000818152600160205260409020548015156106fd57600080fd5b303181111561070b57600080fd5b60025461071e908263ffffffff610da416565b600255600160a060020a0382166000818152600160205260408082208290555183156108fc0291849190818181858888f19350505050158015610765573d6000803e3d6000fd5b505050565b600460205260009081526040902054600160a060020a031681565b600c5481565b60075481565b60095481565b600354600160a060020a031681565b6000602052816000526040600020816006811015156107c157fe5b602081049091015460ff601f9092166101000a9004169150829050565b600081565b600060018060035460a060020a900460ff16600181111561080057fe5b14610857576040805160e560020a62461bcd028152602060048201526027602482015260008051602061128c83398151915260448201526000805160206112ac833981519152606482015290519081900360840190fd5b61085f610d22565b1561086d5760009150610883565b600b54610880904263ffffffff610da416565b91505b5090565b60008060018060035460a060020a900460ff1660018111156108a557fe5b146108fc576040805160e560020a62461bcd028152602060048201526027602482015260008051602061128c83398151915260448201526000805160206112ac833981519152606482015290519081900360840190fd5b610904610d22565b1561090e57600080fd5b60ff8516600090815260046020526040902054600160a060020a031633141561093657600080fd5b61093f84610e1a565b60ff861660009081526005602052604090205490935061096690849063ffffffff610e3316565b34101561097257600080fd5b60ff85166000908152600460209081526040808320546005909252909120546109a491600160a060020a031690610e45565b60ff85166000908152600560205260409020546109c890349063ffffffff610da416565b91506109d382610ea1565b6109dd8585610eee565b6109e5610f30565b6109ee34610f3a565b5050505050565b60035460a060020a900460ff1681565b600a5481565b601381565b600a81565b60016020526000908152604090205481565b600b5481565b60085481565b600354600160a060020a03163314610a4a57600080fd5b600160a060020a0381161515610a5f57600080fd5b600354604051600160a060020a038084169216907f8be0079c531659141344cd1fd0a4f28419497f9722a3daafe3b4186f6b6457e090600090a36003805473ffffffffffffffffffffffffffffffffffffffff1916600160a060020a0392909216919091179055565b600060018060035460a060020a900460ff166001811115610ae557fe5b14610b3c576040805160e560020a62461bcd028152602060048201526027602482015260008051602061128c83398151915260448201526000805160206112ac833981519152606482015290519081900360840190fd5b610b44610d22565b15610b4e57600080fd5b60ff8416600090815260046020526040902054600160a060020a03163314610b7557600080fd5b610b7e83610e1a565b915034821115610b8d57600080fd5b610b9634610ea1565b610ba08484610eee565b610ba8610f30565b610bb134610f3a565b50505050565b600080808060035460a060020a900460ff166001811115610bd457fe5b14610c2b576040805160e560020a62461bcd028152602060048201526027602482015260008051602061128c83398151915260448201526000805160206112ac833981519152606482015290519081900360840190fd5b60ff8516600090815260046020526040902054600160a060020a0316158015610c6d575060ff8516600090815260046020526040902054600160a060020a0316155b1515610c7857600080fd5b610c8184610e1a565b9250610c8b61058c565b9150610c9d838363ffffffff610e3316565b341015610ca957600080fd5b610cc1610cbc848463ffffffff610e3316565b610f93565b60ff85166000908152600460205260409020805473ffffffffffffffffffffffffffffffffffffffff191633179055610cfa8585610eee565b600754610d0e90600163ffffffff610e3316565b60078190556013116109ee576109ee610fa9565b600b5442101590565b600080610d39600c5461101a565b9150610d46600c5461102d565b9050610d528282611045565b610d60610cbc600c546111af565b610d7d610d6e600c546111af565b600d549063ffffffff610e3316565b600d555050565b6000600981905562015180600a55600d8054600c5555610da2610f30565b565b60008083831115610db457600080fd5b5050808203805b5092915050565b600080831515610dd55760009150610dbb565b50828202828482811515610de557fe5b0414610df057600080fd5b9392505050565b600080808311610e0657600080fd5b8284811515610e1157fe5b04949350505050565b6000610e2d82600a63ffffffff610df716565b92915050565b600082820183811015610df057600080fd5b600160a060020a038216600090815260016020526040902054610e6e908263ffffffff610e3316565b600160a060020a038316600090815260016020526040902055600254610e9a908263ffffffff610e3316565b6002555050565b610ebc610ead8261101a565b600c549063ffffffff610e3316565b600c55610ed0610ecb8261102d565b6111c2565b610edc610cbc826111af565b610ee8610d6e826111af565b600d5550565b60ff82166000908152600560205260409020805490829055610f28610f19838363ffffffff610da416565b6006549063ffffffff610e3316565b600655505050565b600a544201600b55565b600954610f4d908263ffffffff610e3316565b600981905568056bc75e2d631000001161057757610f88600a610f7c6002600a54610df790919063ffffffff16565b9063ffffffff61127416565b600a55600060095550565b60035461057790600160a060020a031682610e45565b60075460131115610fb957600080fd5b6003805474ff0000000000000000000000000000000000000000191660a060020a179055610fe5610d84565b6040805142815290517f45806e512b1f4f10e33e8b3cb64d1d11d998d8c554a95e0841fc1c701278bd5d9181900360200190a1565b6000610e2d82600263ffffffff610df716565b6000610e2d600561067a84600263ffffffff610dc216565b6040805160148082526102a08201909252606091600091829182918291829182916020820161028080388339019050509650600095506000945060009350600192505b601360ff84161161110b5760ff83166000908152600560205260409020546006546110b89163ffffffff610da416565b91508415806110c657508482115b156110d2578194508293505b81878460ff168151811015156110e457fe5b602090810290910101526110fe868363ffffffff610e3316565b9550600190920191611088565b60ff841660009081526004602052604090205461113190600160a060020a03168a610e45565b600192505b601360ff8416116111a4576111708661067a8a8a8760ff1681518110151561115a57fe5b602090810290910101519063ffffffff610dc216565b60ff841660009081526004602052604090205490915061119990600160a060020a031682610e45565b600190920191611136565b505050505050505050565b6000610e2d82601463ffffffff610df716565b60016000805b601360ff841611610bb15760ff8316600090815260046020526040902054600160a060020a03161580159061120e575060ff831660009081526005602052604090205415155b156112695760ff83166000908152600560205260409020546006549092506112409061067a868563ffffffff610dc216565b60ff841660009081526004602052604090205490915061126990600160a060020a031682610e45565b6001909201916111c8565b6000818310156112845781610df0565b5090919050560046756e6374696f6e2063616e6e6f742062652063616c6c656420617420746869732074696d652e00000000000000000000000000000000000000000000000000a165627a7a72305820fd82d08b6c6ce092fbf5ac58517e81539bbf4c14698c6ba2fbb4d13ac79131fa0029",
  "source": "pragma solidity ^0.4.22;\n\n// Zeppelin libs\nimport \"./Math.sol\";\nimport \"./Ownable.sol\";\nimport \"./PullPayment.sol\";\nimport \"./SafeMath.sol\";\n\n// Microverse libs\nimport \"./HexBoard3.sol\";\nimport \"./JackpotRules.sol\";\nimport \"./TaxRules.sol\";\n\ncontract Microverse is\n    HexBoard3,\n    PullPayment,\n    Ownable,\n    TaxRules,\n    JackpotRules {\n    using SafeMath for uint256;\n    using Math for uint256;\n\n    // states this contract progresses through\n    enum Stage {\n        DutchAuction,\n        GameRounds\n    }\n    Stage public stage = Stage.DutchAuction;\n\n    modifier atStage(Stage _stage) {\n        require(\n            stage == _stage,\n            \"Function cannot be called at this time.\"\n        );\n        _;\n    }\n\n    constructor() public {\n        _startAuction();\n    }\n\n    mapping(uint8 => address) public tileToOwner;\n    mapping(uint8 => uint256) public tileToPrice;\n    uint256 public totalTileValue;\n\n    // TODO: Change this once we define 'team'\n    function _sendToTeam(uint256 amount) private {\n        asyncSend(owner, amount);\n    }\n\n    function _changeTilePrice(uint8 tileId, uint256 newPrice) private {\n        uint256 oldPrice = tileToPrice[tileId];\n        tileToPrice[tileId] = newPrice;\n        totalTileValue = totalTileValue.add(newPrice.sub(oldPrice));\n    }\n\n    //////////\n    // Auction\n    //////////\n\n    event AuctionStarted(\n        uint256 startingAuctionPrice,\n        uint256 endingAuctionPrice,\n        uint256 auctionDuration,\n        uint256 startTime\n    );\n\n    event AuctionEnded(\n        uint256 endTime\n    );\n\n    uint256 constant public startingAuctionPrice = 1 ether;\n    uint256 constant public endingAuctionPrice = 0.1 ether;\n\n    uint256 constant public auctionDuration = 7 days; // period over which land price decreases linearly\n\n    uint256 public numBoughtTiles;\n    uint256 public auctionStartTime;\n\n    function buyTileAuction(uint8 tileId, uint256 newPrice) public payable atStage(Stage.DutchAuction) {\n        // tile must not already have been bought\n        require(tileToOwner[tileId] == address(0) && tileToOwner[tileId] == 0);\n\n        uint256 tax = _priceToTax(newPrice);\n        uint256 price = getTilePriceAuction();\n\n        // must be paying the full price!\n        require(msg.value >= tax.add(price));\n\n        _sendToTeam(tax.add(price));\n\n        tileToOwner[tileId] = msg.sender;\n        _changeTilePrice(tileId, newPrice);\n\n        numBoughtTiles = numBoughtTiles.add(1);\n\n        if (numBoughtTiles >= numTiles) {\n            endAuction();\n        }\n    }\n\n    function getTilePriceAuction() public view atStage(Stage.DutchAuction) returns (uint256) {\n        uint256 secondsPassed = 0;\n\n        // This should always be the case...\n        if (now > auctionStartTime) {\n            secondsPassed = now.sub(auctionStartTime);\n        }\n\n        if (secondsPassed >= auctionDuration) {\n            return endingAuctionPrice;\n        } else {\n            uint256 maxPriceDelta = startingAuctionPrice.sub(endingAuctionPrice);\n            uint256 actualPriceDelta = (maxPriceDelta.mul(secondsPassed)).div(auctionDuration);\n\n            return startingAuctionPrice.sub(actualPriceDelta);\n        }\n    }\n\n    function endAuction() private {\n        // Slightly redundant check\n        require(numBoughtTiles >= numTiles);\n\n        stage = Stage.GameRounds;\n        _startGameRound();\n\n        emit AuctionEnded(now);\n    }\n\n    function _startAuction() private {\n        auctionStartTime = now;\n        numBoughtTiles = 0;\n\n        emit AuctionStarted(startingAuctionPrice,\n                            endingAuctionPrice,\n                            auctionDuration,\n                            auctionStartTime);\n    }\n\n    ///////\n    // Game\n    ///////\n\n    // Used to ensure a round ends\n    uint256 constant public startingRoundExtension = 24 hours;\n    uint256 constant public halvingVolume = 100 ether; // tx volume before next duration halving\n    uint256 constant public minRoundExtension = 10 seconds; // could set to 1 second\n\n    uint256 public curExtensionVolume;\n    uint256 public curRoundExtension;\n\n    uint256 public roundEndTime;\n\n    uint256 public jackpot;\n    uint256 public nextJackpot;\n\n    ////////////////////////////////////\n    // [Game] Round extension management\n    ////////////////////////////////////\n\n    function roundTimeRemaining() public view atStage(Stage.GameRounds) returns (uint256)  {\n        if (_roundOver()) {\n            return 0;\n        } else {\n            return roundEndTime.sub(now);\n        }\n    }\n\n    function _extendRound() private {\n        roundEndTime = now + curRoundExtension;\n    }\n\n    function _startGameRound() private {\n        curExtensionVolume = 0 ether;\n        curRoundExtension = startingRoundExtension;\n\n        jackpot = nextJackpot;\n        nextJackpot = 0;\n\n        _extendRound();\n    }\n\n    function _roundOver() private view returns (bool) {\n        return now >= roundEndTime;\n    }\n\n    modifier duringRound() {\n        require(!_roundOver());\n        _;\n    }\n\n    // NOTE: Must be called for all volume we want to count towards round extension halving\n    function _logRoundExtensionVolume(uint256 amount) private {\n        curExtensionVolume = curExtensionVolume.add(amount);\n\n        if (curExtensionVolume >= halvingVolume) {\n            curRoundExtension = curRoundExtension.div(2).max(minRoundExtension);\n            curExtensionVolume = 0 ether;\n        }\n    }\n\n    ////////////////////////\n    // [Game] Player actions\n    ////////////////////////\n\n    function endGameRound() public atStage(Stage.GameRounds) {\n        require(_roundOver());\n\n        _distributeJackpot();\n        _startGameRound();\n    }\n\n    function setTilePrice(uint8 tileId, uint256 newPrice)\n        public\n        payable\n        atStage(Stage.GameRounds)\n        duringRound {\n        // must be owner\n        require(tileToOwner[tileId] == msg.sender);\n\n        uint256 tax = _priceToTax(newPrice);\n\n        // must pay tax\n        require(msg.value >= tax);\n\n        _distributeTax(msg.value);\n        _changeTilePrice(tileId, newPrice);\n\n        // NOTE: Currently we extend round for 'every' tile price change. Alternatively could do only on\n        // increases or decreases or changes exceeding some magnitude\n        _extendRound();\n        _logRoundExtensionVolume(msg.value);\n    }\n\n    function buyTile(uint8 tileId, uint256 newPrice)\n        public\n        payable\n        atStage(Stage.GameRounds)\n        duringRound {\n        // can't buy from self\n        require(tileToOwner[tileId] != msg.sender);\n\n        uint256 tax = _priceToTax(newPrice);\n\n        // must pay tax + seller price\n        require(msg.value >= tax.add(tileToPrice[tileId]));\n\n        // pay seller\n        asyncSend(tileToOwner[tileId], tileToPrice[tileId]);\n\n        uint256 actualTax = msg.value.sub(tileToPrice[tileId]);\n        _distributeTax(actualTax);\n\n        _changeTilePrice(tileId, newPrice);\n        _extendRound();\n        _logRoundExtensionVolume(msg.value);\n    }\n\n    ///////////////////////////////////////\n    // [Game] Dividend/jackpot distribution\n    ///////////////////////////////////////\n\n    function _distributeJackpot() private {\n        uint256 winnerJackpot = _winnerJackpot(jackpot);\n        uint256 landholderJackpot = _landholderJackpot(jackpot);\n        _distributeWinnerAndLandholderJackpot(winnerJackpot, landholderJackpot);\n\n        _sendToTeam(_teamJackpot(jackpot));\n        nextJackpot = nextJackpot.add(_nextPotJackpot(jackpot));\n    }\n\n    function _distributeWinnerAndLandholderJackpot(uint256 winnerJackpot, uint256 landholderJackpot) private {\n        uint256[] memory complements = new uint256[](numTiles + 1); // inc necessary b/c tiles are 1-indexed\n        uint256 totalPriceComplement = 0;\n\n        uint256 bestComplement = 0;\n        uint8 winningTile = 0;\n        for (uint8 i = minTileId; i <= maxTileId; i++) {\n            uint256 priceComplement = totalTileValue.sub(tileToPrice[i]);\n\n            // update winner\n            if (bestComplement == 0 || priceComplement > bestComplement) {\n                bestComplement = priceComplement;\n                winningTile = i;\n            }\n\n            complements[i] = priceComplement;\n            totalPriceComplement = totalPriceComplement.add(priceComplement);\n        }\n\n        // distribute jackpot\n        asyncSend(tileToOwner[winningTile], winnerJackpot);\n\n        // distribute landholder things\n        for (i = minTileId; i <= maxTileId; i++) {\n            // NOTE: We don't exclude the jackpot winner here, so the winner is paid 'twice'\n            uint256 landholderAllocation = complements[i].mul(landholderJackpot).div(totalPriceComplement);\n\n            asyncSend(tileToOwner[i], landholderAllocation);\n        }\n    }\n\n    function _distributeTax(uint256 tax) private {\n        jackpot = jackpot.add(_jackpotTax(tax));\n\n        _distributeLandholderTax(_totalLandholderTax(tax));\n        _sendToTeam(_teamTax(tax));\n        nextJackpot = nextJackpot.add(_nextPotTax(tax));\n    }\n\n    function _distributeLandholderTax(uint256 tax) private {\n        for (uint8 tile = minTileId; tile <= maxTileId; tile++) {\n            if (tileToOwner[tile] != address(0) && tileToPrice[tile] != 0) {\n                uint256 tilePrice = tileToPrice[tile];\n                uint256 allocation = tax.mul(tilePrice).div(totalTileValue);\n\n                asyncSend(tileToOwner[tile], allocation);\n            }\n        }\n    }\n}\n",
  "sourcePath": "/Users/lakshmansankar/src/microverse/eth/contracts/Microverse.sol",
  "compiler": {
    "name": "solc",
    "version": "0.4.24+commit.e67f0147.Emscripten.clang"
  },
  "schemaVersion": "2.0.1",
  "updatedAt": "2018-10-22T00:11:34.399Z"
}