{
  "contractName": "Microverse",
  "abi": [
    {
      "constant": true,
      "inputs": [],
      "name": "totalPayments",
      "outputs": [
        {
          "name": "",
          "type": "uint256"
        }
      ],
      "payable": false,
      "stateMutability": "view",
      "type": "function"
    },
    {
      "constant": true,
      "inputs": [],
      "name": "nextJackpot",
      "outputs": [
        {
          "name": "",
          "type": "uint256"
        }
      ],
      "payable": false,
      "stateMutability": "view",
      "type": "function"
    },
    {
      "constant": true,
      "inputs": [],
      "name": "auctionDuration",
      "outputs": [
        {
          "name": "",
          "type": "uint256"
        }
      ],
      "payable": false,
      "stateMutability": "view",
      "type": "function"
    },
    {
      "constant": true,
      "inputs": [],
      "name": "startingRoundExtension",
      "outputs": [
        {
          "name": "",
          "type": "uint256"
        }
      ],
      "payable": false,
      "stateMutability": "view",
      "type": "function"
    },
    {
      "constant": true,
      "inputs": [],
      "name": "minTileId",
      "outputs": [
        {
          "name": "",
          "type": "uint8"
        }
      ],
      "payable": false,
      "stateMutability": "view",
      "type": "function"
    },
    {
      "constant": true,
      "inputs": [],
      "name": "totalTileValue",
      "outputs": [
        {
          "name": "",
          "type": "uint256"
        }
      ],
      "payable": false,
      "stateMutability": "view",
      "type": "function"
    },
    {
      "constant": true,
      "inputs": [],
      "name": "startingAuctionPrice",
      "outputs": [
        {
          "name": "",
          "type": "uint256"
        }
      ],
      "payable": false,
      "stateMutability": "view",
      "type": "function"
    },
    {
      "constant": true,
      "inputs": [],
      "name": "endingAuctionPrice",
      "outputs": [
        {
          "name": "",
          "type": "uint256"
        }
      ],
      "payable": false,
      "stateMutability": "view",
      "type": "function"
    },
    {
      "constant": true,
      "inputs": [],
      "name": "halvingVolume",
      "outputs": [
        {
          "name": "",
          "type": "uint256"
        }
      ],
      "payable": false,
      "stateMutability": "view",
      "type": "function"
    },
    {
      "constant": true,
      "inputs": [
        {
          "name": "",
          "type": "uint8"
        }
      ],
      "name": "tileToPrice",
      "outputs": [
        {
          "name": "",
          "type": "uint256"
        }
      ],
      "payable": false,
      "stateMutability": "view",
      "type": "function"
    },
    {
      "constant": false,
      "inputs": [],
      "name": "withdrawPayments",
      "outputs": [],
      "payable": false,
      "stateMutability": "nonpayable",
      "type": "function"
    },
    {
      "constant": true,
      "inputs": [
        {
          "name": "",
          "type": "uint8"
        }
      ],
      "name": "tileToOwner",
      "outputs": [
        {
          "name": "",
          "type": "address"
        }
      ],
      "payable": false,
      "stateMutability": "view",
      "type": "function"
    },
    {
      "constant": true,
      "inputs": [],
      "name": "jackpot",
      "outputs": [
        {
          "name": "",
          "type": "uint256"
        }
      ],
      "payable": false,
      "stateMutability": "view",
      "type": "function"
    },
    {
      "constant": true,
      "inputs": [],
      "name": "curExtensionVolume",
      "outputs": [
        {
          "name": "",
          "type": "uint256"
        }
      ],
      "payable": false,
      "stateMutability": "view",
      "type": "function"
    },
    {
      "constant": true,
      "inputs": [],
      "name": "owner",
      "outputs": [
        {
          "name": "",
          "type": "address"
        }
      ],
      "payable": false,
      "stateMutability": "view",
      "type": "function"
    },
    {
      "constant": true,
      "inputs": [
        {
          "name": "",
          "type": "uint8"
        },
        {
          "name": "",
          "type": "uint256"
        }
      ],
      "name": "tileToNeighbors",
      "outputs": [
        {
          "name": "",
          "type": "uint8"
        }
      ],
      "payable": false,
      "stateMutability": "view",
      "type": "function"
    },
    {
      "constant": true,
      "inputs": [],
      "name": "nullNeighborValue",
      "outputs": [
        {
          "name": "",
          "type": "uint8"
        }
      ],
      "payable": false,
      "stateMutability": "view",
      "type": "function"
    },
    {
      "constant": true,
      "inputs": [],
      "name": "stage",
      "outputs": [
        {
          "name": "",
          "type": "uint8"
        }
      ],
      "payable": false,
      "stateMutability": "view",
      "type": "function"
    },
    {
      "constant": true,
      "inputs": [],
      "name": "curRoundExtension",
      "outputs": [
        {
          "name": "",
          "type": "uint256"
        }
      ],
      "payable": false,
      "stateMutability": "view",
      "type": "function"
    },
    {
      "constant": true,
      "inputs": [],
      "name": "maxTileId",
      "outputs": [
        {
          "name": "",
          "type": "uint8"
        }
      ],
      "payable": false,
      "stateMutability": "view",
      "type": "function"
    },
    {
      "constant": true,
      "inputs": [],
      "name": "minRoundExtension",
      "outputs": [
        {
          "name": "",
          "type": "uint256"
        }
      ],
      "payable": false,
      "stateMutability": "view",
      "type": "function"
    },
    {
      "constant": true,
      "inputs": [
        {
          "name": "",
          "type": "address"
        }
      ],
      "name": "payments",
      "outputs": [
        {
          "name": "",
          "type": "uint256"
        }
      ],
      "payable": false,
      "stateMutability": "view",
      "type": "function"
    },
    {
      "constant": true,
      "inputs": [],
      "name": "roundEndTime",
      "outputs": [
        {
          "name": "",
          "type": "uint256"
        }
      ],
      "payable": false,
      "stateMutability": "view",
      "type": "function"
    },
    {
      "constant": true,
      "inputs": [],
      "name": "numTiles",
      "outputs": [
        {
          "name": "",
          "type": "uint8"
        }
      ],
      "payable": false,
      "stateMutability": "view",
      "type": "function"
    },
    {
      "constant": true,
      "inputs": [],
      "name": "auctionStartTime",
      "outputs": [
        {
          "name": "",
          "type": "uint256"
        }
      ],
      "payable": false,
      "stateMutability": "view",
      "type": "function"
    },
    {
      "constant": false,
      "inputs": [
        {
          "name": "newOwner",
          "type": "address"
        }
      ],
      "name": "transferOwnership",
      "outputs": [],
      "payable": false,
      "stateMutability": "nonpayable",
      "type": "function"
    },
    {
      "inputs": [],
      "payable": false,
      "stateMutability": "nonpayable",
      "type": "constructor"
    },
    {
      "anonymous": false,
      "inputs": [
        {
          "indexed": true,
          "name": "previousOwner",
          "type": "address"
        },
        {
          "indexed": true,
          "name": "newOwner",
          "type": "address"
        }
      ],
      "name": "OwnershipTransferred",
      "type": "event"
    },
    {
      "constant": false,
      "inputs": [
        {
          "name": "tileId",
          "type": "uint8"
        },
        {
          "name": "newPrice",
          "type": "uint256"
        }
      ],
      "name": "buyTileAuction",
      "outputs": [],
      "payable": true,
      "stateMutability": "payable",
      "type": "function"
    },
    {
      "constant": true,
      "inputs": [],
      "name": "getTilePriceAuction",
      "outputs": [
        {
          "name": "",
          "type": "uint256"
        }
      ],
      "payable": false,
      "stateMutability": "view",
      "type": "function"
    },
    {
      "constant": false,
      "inputs": [],
      "name": "endAuction",
      "outputs": [],
      "payable": false,
      "stateMutability": "nonpayable",
      "type": "function"
    },
    {
      "constant": true,
      "inputs": [],
      "name": "roundTimeRemaining",
      "outputs": [
        {
          "name": "",
          "type": "uint256"
        }
      ],
      "payable": false,
      "stateMutability": "view",
      "type": "function"
    },
    {
      "constant": false,
      "inputs": [],
      "name": "endGameRound",
      "outputs": [],
      "payable": false,
      "stateMutability": "nonpayable",
      "type": "function"
    },
    {
      "constant": false,
      "inputs": [
        {
          "name": "tileId",
          "type": "uint8"
        },
        {
          "name": "newPrice",
          "type": "uint256"
        }
      ],
      "name": "setTilePrice",
      "outputs": [],
      "payable": true,
      "stateMutability": "payable",
      "type": "function"
    },
    {
      "constant": false,
      "inputs": [
        {
          "name": "tileId",
          "type": "uint8"
        },
        {
          "name": "newPrice",
          "type": "uint256"
        }
      ],
      "name": "buyTile",
      "outputs": [],
      "payable": true,
      "stateMutability": "payable",
      "type": "function"
    }
  ],
  "bytecode": "0x60806040526003805460a060020a60ff021916905534801561002057600080fd5b5060038054600160a060020a03191633179055610044640100000000610049810204565b61004f565b42600755565b6113308061005e6000396000f30060806040526004361061019f5763ffffffff7c01000000000000000000000000000000000000000000000000000000006000350416625b448781146101a457806303fca061146101cb5780630cbf54c8146101e05780630e51574f146101f55780630eb51c9c1461020c5780631ccff7161461022157806320178db31461024c5780633459d2ba146102615780633ebf25081461027657806349087bcc1461028b57806351b472b9146102a05780635b98f169146102b55780636103d70b146102d057806366cd442a146102e55780636b31ee011461031c5780638771fc4a146103315780638da5cb5b14610346578063925183cd1461035b578063aca21a1e14610379578063ad2daa481461038e578063bdd60a09146103a3578063c040e6b8146103b4578063c2539429146103ed578063c9e87f3114610402578063de8d77e714610417578063e2982c211461042c578063e40205d61461044d578063e9360a3614610402578063eb54f9ec14610462578063f2fde38b14610477578063fe67a54b14610498578063fe8a5c86146104ad578063ffd1220d146104be575b600080fd5b3480156101b057600080fd5b506101b96104cf565b60408051918252519081900360200190f35b3480156101d757600080fd5b506101b96104d5565b3480156101ec57600080fd5b506101b96104db565b34801561020157600080fd5b5061020a6104e2565b005b34801561021857600080fd5b506101b961057a565b34801561022d57600080fd5b50610236610581565b6040805160ff9092168252519081900360200190f35b34801561025857600080fd5b506101b9610586565b34801561026d57600080fd5b506101b961058c565b34801561028257600080fd5b506101b96106aa565b34801561029757600080fd5b506101b96106b6565b3480156102ac57600080fd5b506101b96106c2565b3480156102c157600080fd5b506101b960ff600435166106cf565b3480156102dc57600080fd5b5061020a6106e1565b3480156102f157600080fd5b5061030060ff6004351661076a565b60408051600160a060020a039092168252519081900360200190f35b34801561032857600080fd5b506101b9610785565b34801561033d57600080fd5b506101b961078b565b34801561035257600080fd5b50610300610791565b34801561036757600080fd5b5061023660ff600435166024356107a0565b34801561038557600080fd5b506102366107d8565b34801561039a57600080fd5b506101b96107dd565b61020a60ff60043516602435610881565b3480156103c057600080fd5b506103c96109ef565b604051808260018111156103d957fe5b60ff16815260200191505060405180910390f35b3480156103f957600080fd5b506101b96109ff565b34801561040e57600080fd5b50610236610a05565b34801561042357600080fd5b506101b9610a0a565b34801561043857600080fd5b506101b9600160a060020a0360043516610a0f565b34801561045957600080fd5b506101b9610a21565b34801561046e57600080fd5b506101b9610a27565b34801561048357600080fd5b5061020a600160a060020a0360043516610a2d565b3480156104a457600080fd5b5061020a610ac2565b61020a60ff60043516602435610ba7565b61020a60ff60043516602435610c96565b60025481565b600c5481565b62093a8081565b60018060035460a060020a900460ff1660018111156104fd57fe5b14610554576040805160e560020a62461bcd02815260206004820152602760248201526000805160206112c583398151915260448201526000805160206112e5833981519152606482015290519081900360840190fd5b61055c610dcc565b151561056757600080fd5b61056f610dd5565b610577610e2e565b50565b6201518081565b600181565b60065481565b6000808080808060035460a060020a900460ff1660018111156105ab57fe5b14610602576040805160e560020a62461bcd02815260206004820152602760248201526000805160206112c583398151915260448201526000805160206112e5833981519152606482015290519081900360840190fd5b600093506007544211156106275760075461062490429063ffffffff610e4e16565b93505b62093a8084106106415767016345785d8a000094506106a3565b610661670de0b6b3a764000067016345785d8a000063ffffffff610e4e16565b925061068662093a8061067a858763ffffffff610e6c16565b9063ffffffff610ea116565b91506106a0670de0b6b3a76400008363ffffffff610e4e16565b94505b5050505090565b670de0b6b3a764000081565b67016345785d8a000081565b68056bc75e2d6310000081565b60056020526000908152604090205481565b336000818152600160205260409020548015156106fd57600080fd5b303181111561070b57600080fd5b60025461071e908263ffffffff610e4e16565b600255600160a060020a0382166000818152600160205260408082208290555183156108fc0291849190818181858888f19350505050158015610765573d6000803e3d6000fd5b505050565b600460205260009081526040902054600160a060020a031681565b600b5481565b60085481565b600354600160a060020a031681565b6000602052816000526040600020816006811015156107bb57fe5b602081049091015460ff601f9092166101000a9004169150829050565b600081565b600060018060035460a060020a900460ff1660018111156107fa57fe5b14610851576040805160e560020a62461bcd02815260206004820152602760248201526000805160206112c583398151915260448201526000805160206112e5833981519152606482015290519081900360840190fd5b610859610dcc565b15610867576000915061087d565b600a5461087a904263ffffffff610e4e16565b91505b5090565b60008060018060035460a060020a900460ff16600181111561089f57fe5b146108f6576040805160e560020a62461bcd02815260206004820152602760248201526000805160206112c583398151915260448201526000805160206112e5833981519152606482015290519081900360840190fd5b6108fe610dcc565b1561090857600080fd5b60ff8516600090815260046020526040902054600160a060020a031633141561093057600080fd5b61093984610ec4565b60ff861660009081526005602052604090205490935061096090849063ffffffff610edd16565b34101561096c57600080fd5b60ff851660009081526004602090815260408083205460059092529091205461099e91600160a060020a031690610eef565b60ff85166000908152600560205260409020546109c290349063ffffffff610e4e16565b91506109cd82610f4b565b6109d78585610f98565b6109df610fda565b6109e834610fe4565b5050505050565b60035460a060020a900460ff1681565b60095481565b601381565b600a81565b60016020526000908152604090205481565b600a5481565b60075481565b600354600160a060020a03163314610a4457600080fd5b600160a060020a0381161515610a5957600080fd5b600354604051600160a060020a038084169216907f8be0079c531659141344cd1fd0a4f28419497f9722a3daafe3b4186f6b6457e090600090a36003805473ffffffffffffffffffffffffffffffffffffffff1916600160a060020a0392909216919091179055565b6000808060035460a060020a900460ff166001811115610ade57fe5b14610b35576040805160e560020a62461bcd02815260206004820152602760248201526000805160206112c583398151915260448201526000805160206112e5833981519152606482015290519081900360840190fd5b600191505b601360ff831611610b775760ff8216600090815260046020526040902054600160a060020a03161515610b6c57600080fd5b600190910190610b3a565b6003805474ff0000000000000000000000000000000000000000191660a060020a179055610ba3610e2e565b5050565b600060018060035460a060020a900460ff166001811115610bc457fe5b14610c1b576040805160e560020a62461bcd02815260206004820152602760248201526000805160206112c583398151915260448201526000805160206112e5833981519152606482015290519081900360840190fd5b610c23610dcc565b15610c2d57600080fd5b60ff8416600090815260046020526040902054600160a060020a03163314610c5457600080fd5b610c5d83610ec4565b915034821115610c6c57600080fd5b610c7534610f4b565b610c7f8484610f98565b610c87610fda565b610c9034610fe4565b50505050565b600080808060035460a060020a900460ff166001811115610cb357fe5b14610d0a576040805160e560020a62461bcd02815260206004820152602760248201526000805160206112c583398151915260448201526000805160206112e5833981519152606482015290519081900360840190fd5b60ff8516600090815260046020526040902054600160a060020a0316158015610d4c575060ff8516600090815260046020526040902054600160a060020a0316155b1515610d5757600080fd5b610d6084610ec4565b9250610d6a61058c565b9150828201341015610d7b57600080fd5b610d93610d8e848463ffffffff610edd16565b61103d565b60ff85166000908152600460205260409020805473ffffffffffffffffffffffffffffffffffffffff1916331790556109e88585610f98565b600a5442101590565b600080610de3600b54611053565b9150610df0600b54611066565b9050610dfc828261107e565b610e0a610d8e600b546111e8565b610e27610e18600b546111e8565b600c549063ffffffff610edd16565b600c555050565b6000600881905562015180600955600c8054600b5555610e4c610fda565b565b60008083831115610e5e57600080fd5b5050808203805b5092915050565b600080831515610e7f5760009150610e65565b50828202828482811515610e8f57fe5b0414610e9a57600080fd5b9392505050565b600080808311610eb057600080fd5b8284811515610ebb57fe5b04949350505050565b6000610ed782600a63ffffffff610ea116565b92915050565b600082820183811015610e9a57600080fd5b600160a060020a038216600090815260016020526040902054610f18908263ffffffff610edd16565b600160a060020a038316600090815260016020526040902055600254610f44908263ffffffff610edd16565b6002555050565b610f66610f5782611053565b600b549063ffffffff610edd16565b600b55610f7a610f7582611066565b6111fb565b610f86610d8e826111e8565b610f92610e18826111e8565b600c5550565b60ff82166000908152600560205260409020805490829055610fd2610fc3838363ffffffff610e4e16565b6006549063ffffffff610edd16565b600655505050565b6009544201600a55565b600854610ff7908263ffffffff610edd16565b600881905568056bc75e2d631000001161057757611032600a6110266002600954610ea190919063ffffffff16565b9063ffffffff6112ad16565b600955600060085550565b60035461057790600160a060020a031682610eef565b6000610ed782600263ffffffff610ea116565b6000610ed7600561067a84600263ffffffff610e6c16565b6040805160148082526102a08201909252606091600091829182918291829182916020820161028080388339019050509650600095506000945060009350600192505b601360ff8416116111445760ff83166000908152600560205260409020546006546110f19163ffffffff610e4e16565b91508415806110ff57508482115b1561110b578194508293505b81878460ff1681518110151561111d57fe5b60209081029091010152611137868363ffffffff610edd16565b95506001909201916110c1565b60ff841660009081526004602052604090205461116a90600160a060020a03168a610eef565b600192505b601360ff8416116111dd576111a98661067a8a8a8760ff1681518110151561119357fe5b602090810290910101519063ffffffff610e6c16565b60ff84166000908152600460205260409020549091506111d290600160a060020a031682610eef565b60019092019161116f565b505050505050505050565b6000610ed782601463ffffffff610ea116565b60016000805b601360ff841611610c905760ff8316600090815260046020526040902054600160a060020a031615801590611247575060ff831660009081526005602052604090205415155b156112a25760ff83166000908152600560205260409020546006549092506112799061067a868563ffffffff610e6c16565b60ff84166000908152600460205260409020549091506112a290600160a060020a031682610eef565b600190920191611201565b6000818310156112bd5781610e9a565b5090919050560046756e6374696f6e2063616e6e6f742062652063616c6c656420617420746869732074696d652e00000000000000000000000000000000000000000000000000a165627a7a723058200282f694f687b4a5b17e2620a511551303f4e87ae822f28c72f90502ff18948c0029",
  "source": "pragma solidity ^0.4.22;\n\n// Zeppelin libs\nimport \"./Math.sol\";\nimport \"./Ownable.sol\";\nimport \"./PullPayment.sol\";\nimport \"./SafeMath.sol\";\n\n// Microverse libs\nimport \"./HexBoard3.sol\";\nimport \"./JackpotRules.sol\";\nimport \"./TaxRules.sol\";\n\ncontract Microverse is\n    HexBoard3,\n    PullPayment,\n    Ownable,\n    TaxRules,\n    JackpotRules {\n    using SafeMath for uint256;\n    using Math for uint256;\n\n    // states this contract progresses through\n    enum Stage {\n        DutchAuction,\n        GameRounds\n    }\n    Stage public stage = Stage.DutchAuction;\n\n    modifier atStage(Stage _stage) {\n        require(\n            stage == _stage,\n            \"Function cannot be called at this time.\"\n        );\n        _;\n    }\n\n    constructor() public {\n        _startAuction();\n    }\n\n    mapping(uint8 => address) public tileToOwner;\n    mapping(uint8 => uint256) public tileToPrice;\n    uint256 public totalTileValue;\n\n    // TODO: Change this once we define 'team'\n    function _sendToTeam(uint256 amount) private {\n        asyncSend(owner, amount);\n    }\n\n    function _changeTilePrice(uint8 tileId, uint256 newPrice) private {\n        uint256 oldPrice = tileToPrice[tileId];\n        tileToPrice[tileId] = newPrice;\n        totalTileValue = totalTileValue.add(newPrice.sub(oldPrice));\n    }\n\n    //////////\n    // Auction\n    //////////\n\n    uint256 constant public startingAuctionPrice = 1 ether;\n    uint256 constant public endingAuctionPrice = 0.1 ether;\n\n    uint256 constant public auctionDuration = 7 days; // period over which land price decreases linearly\n\n    uint256 public auctionStartTime;\n\n    function buyTileAuction(uint8 tileId, uint256 newPrice) public payable atStage(Stage.DutchAuction) {\n        // tile must not already have been bought\n        require(tileToOwner[tileId] == address(0) && tileToOwner[tileId] == 0);\n\n        uint256 tax = _priceToTax(newPrice);\n        uint256 price = getTilePriceAuction();\n\n        // must be paying the full price!\n        require(msg.value >= tax + price);\n\n        _sendToTeam(tax.add(price));\n\n        tileToOwner[tileId] = msg.sender;\n        _changeTilePrice(tileId, newPrice);\n    }\n\n    function getTilePriceAuction() public view atStage(Stage.DutchAuction) returns (uint256) {\n        uint256 secondsPassed = 0;\n\n        // This should always be the case...\n        if (now > auctionStartTime) {\n            secondsPassed = now.sub(auctionStartTime);\n        }\n\n        if (secondsPassed >= auctionDuration) {\n            return endingAuctionPrice;\n        } else {\n            uint256 maxPriceDelta = startingAuctionPrice.sub(endingAuctionPrice);\n            uint256 actualPriceDelta = (maxPriceDelta.mul(secondsPassed)).div(auctionDuration);\n\n            return startingAuctionPrice.sub(actualPriceDelta);\n        }\n    }\n\n    function endAuction() public atStage(Stage.DutchAuction) {\n        // All tiles must be sold to proceed!\n        for (uint8 tileId = minTileId; tileId <= maxTileId; tileId++) {\n            if (tileToOwner[tileId] == address(0)) {\n                require(false);\n            }\n        }\n\n        stage = Stage.GameRounds;\n        _startGameRound();\n    }\n\n    function _startAuction() private {\n        auctionStartTime = now;\n    }\n\n    ///////\n    // Game\n    ///////\n\n    // Used to ensure a round ends\n    uint256 constant public startingRoundExtension = 24 hours;\n    uint256 constant public halvingVolume = 100 ether; // tx volume before next duration halving\n    uint256 constant public minRoundExtension = 10 seconds; // could set to 1 second\n\n    uint256 public curExtensionVolume;\n    uint256 public curRoundExtension;\n\n    uint256 public roundEndTime;\n\n    uint256 public jackpot;\n    uint256 public nextJackpot;\n\n    ////////////////////////////////////\n    // [Game] Round extension management\n    ////////////////////////////////////\n\n    function roundTimeRemaining() public view atStage(Stage.GameRounds) returns (uint256)  {\n        if (_roundOver()) {\n            return 0;\n        } else {\n            return roundEndTime.sub(now);\n        }\n    }\n\n    function _extendRound() private {\n        roundEndTime = now + curRoundExtension;\n    }\n\n    function _startGameRound() private {\n        curExtensionVolume = 0 ether;\n        curRoundExtension = startingRoundExtension;\n\n        jackpot = nextJackpot;\n        nextJackpot = 0;\n\n        _extendRound();\n    }\n\n    function _roundOver() private view returns (bool) {\n        return now >= roundEndTime;\n    }\n\n    modifier duringRound() {\n        require(!_roundOver());\n        _;\n    }\n\n    // NOTE: Must be called for all volume we want to count towards round extension halving\n    function _logRoundExtensionVolume(uint256 amount) private {\n        curExtensionVolume = curExtensionVolume.add(amount);\n\n        if (curExtensionVolume >= halvingVolume) {\n            curRoundExtension = curRoundExtension.div(2).max(minRoundExtension);\n            curExtensionVolume = 0 ether;\n        }\n    }\n\n    ////////////////////////\n    // [Game] Player actions\n    ////////////////////////\n\n    function endGameRound() public atStage(Stage.GameRounds) {\n        require(_roundOver());\n\n        _distributeJackpot();\n        _startGameRound();\n    }\n\n    function setTilePrice(uint8 tileId, uint256 newPrice)\n        public\n        payable\n        atStage(Stage.GameRounds)\n        duringRound {\n        // must be owner\n        require(tileToOwner[tileId] == msg.sender);\n\n        uint256 tax = _priceToTax(newPrice);\n\n        // must pay tax\n        require(msg.value >= tax);\n\n        _distributeTax(msg.value);\n        _changeTilePrice(tileId, newPrice);\n\n        // NOTE: Currently we extend round for 'every' tile price change. Alternatively could do only on\n        // increases or decreases or changes exceeding some magnitude\n        _extendRound();\n        _logRoundExtensionVolume(msg.value);\n    }\n\n    function buyTile(uint8 tileId, uint256 newPrice)\n        public\n        payable\n        atStage(Stage.GameRounds)\n        duringRound {\n        // can't buy from self\n        require(tileToOwner[tileId] != msg.sender);\n\n        uint256 tax = _priceToTax(newPrice);\n\n        // must pay tax + seller price\n        require(msg.value >= tax.add(tileToPrice[tileId]));\n\n        // pay seller\n        asyncSend(tileToOwner[tileId], tileToPrice[tileId]);\n\n        uint256 actualTax = msg.value.sub(tileToPrice[tileId]);\n        _distributeTax(actualTax);\n\n        _changeTilePrice(tileId, newPrice);\n        _extendRound();\n        _logRoundExtensionVolume(msg.value);\n    }\n\n    ///////////////////////////////////////\n    // [Game] Dividend/jackpot distribution\n    ///////////////////////////////////////\n\n    function _distributeJackpot() private {\n        uint256 winnerJackpot = _winnerJackpot(jackpot);\n        uint256 landholderJackpot = _landholderJackpot(jackpot);\n        _distributeWinnerAndLandholderJackpot(winnerJackpot, landholderJackpot);\n\n        _sendToTeam(_teamJackpot(jackpot));\n        nextJackpot = nextJackpot.add(_nextPotJackpot(jackpot));\n    }\n\n    function _distributeWinnerAndLandholderJackpot(uint256 winnerJackpot, uint256 landholderJackpot) private {\n        uint256[] memory complements = new uint256[](numTiles + 1); // inc necessary b/c tiles are 1-indexed\n        uint256 totalPriceComplement = 0;\n\n        uint256 bestComplement = 0;\n        uint8 winningTile = 0;\n        for (uint8 i = minTileId; i <= maxTileId; i++) {\n            uint256 priceComplement = totalTileValue.sub(tileToPrice[i]);\n\n            // update winner\n            if (bestComplement == 0 || priceComplement > bestComplement) {\n                bestComplement = priceComplement;\n                winningTile = i;\n            }\n\n            complements[i] = priceComplement;\n            totalPriceComplement = totalPriceComplement.add(priceComplement);\n        }\n\n        // distribute jackpot\n        asyncSend(tileToOwner[winningTile], winnerJackpot);\n\n        // distribute landholder things\n        for (i = minTileId; i <= maxTileId; i++) {\n            // NOTE: We don't exclude the jackpot winner here, so the winner is paid 'twice'\n            uint256 landholderAllocation = complements[i].mul(landholderJackpot).div(totalPriceComplement);\n\n            asyncSend(tileToOwner[i], landholderAllocation);\n        }\n    }\n\n    function _distributeTax(uint256 tax) private {\n        jackpot = jackpot.add(_jackpotTax(tax));\n\n        _distributeLandholderTax(_totalLandholderTax(tax));\n        _sendToTeam(_teamTax(tax));\n        nextJackpot = nextJackpot.add(_nextPotTax(tax));\n    }\n\n    function _distributeLandholderTax(uint256 tax) private {\n        for (uint8 tile = minTileId; tile <= maxTileId; tile++) {\n            if (tileToOwner[tile] != address(0) && tileToPrice[tile] != 0) {\n                uint256 tilePrice = tileToPrice[tile];\n                uint256 allocation = tax.mul(tilePrice).div(totalTileValue);\n\n                asyncSend(tileToOwner[tile], allocation);\n            }\n        }\n    }\n}\n",
  "sourcePath": "/Users/reidsherman/Projects/microverse/eth/contracts/Microverse.sol",
  "compiler": {
    "name": "solc",
    "version": "0.4.24+commit.e67f0147.Emscripten.clang"
  },
  "schemaVersion": "2.0.1",
  "updatedAt": "2018-10-21T21:41:08.109Z"
}