{
  "contractName": "Microverse",
  "abi": [
    {
      "constant": true,
      "inputs": [],
      "name": "totalPayments",
      "outputs": [
        {
          "name": "",
          "type": "uint256"
        }
      ],
      "payable": false,
      "stateMutability": "view",
      "type": "function"
    },
    {
      "constant": true,
      "inputs": [],
      "name": "nextJackpot",
      "outputs": [
        {
          "name": "",
          "type": "uint256"
        }
      ],
      "payable": false,
      "stateMutability": "view",
      "type": "function"
    },
    {
      "constant": true,
      "inputs": [
        {
          "name": "jackpot",
          "type": "uint256"
        }
      ],
      "name": "_winnerJackpot",
      "outputs": [
        {
          "name": "",
          "type": "uint256"
        }
      ],
      "payable": false,
      "stateMutability": "pure",
      "type": "function"
    },
    {
      "constant": true,
      "inputs": [
        {
          "name": "tax",
          "type": "uint256"
        }
      ],
      "name": "_jackpotTax",
      "outputs": [
        {
          "name": "",
          "type": "uint256"
        }
      ],
      "payable": false,
      "stateMutability": "pure",
      "type": "function"
    },
    {
      "constant": true,
      "inputs": [],
      "name": "auctionDuration",
      "outputs": [
        {
          "name": "",
          "type": "uint256"
        }
      ],
      "payable": false,
      "stateMutability": "view",
      "type": "function"
    },
    {
      "constant": true,
      "inputs": [],
      "name": "startingRoundExtension",
      "outputs": [
        {
          "name": "",
          "type": "uint256"
        }
      ],
      "payable": false,
      "stateMutability": "view",
      "type": "function"
    },
    {
      "constant": true,
      "inputs": [],
      "name": "minTileId",
      "outputs": [
        {
          "name": "",
          "type": "uint8"
        }
      ],
      "payable": false,
      "stateMutability": "view",
      "type": "function"
    },
    {
      "constant": true,
      "inputs": [],
      "name": "totalTileValue",
      "outputs": [
        {
          "name": "",
          "type": "uint256"
        }
      ],
      "payable": false,
      "stateMutability": "view",
      "type": "function"
    },
    {
      "constant": true,
      "inputs": [
        {
          "name": "jackpot",
          "type": "uint256"
        }
      ],
      "name": "_nextPotJackpot",
      "outputs": [
        {
          "name": "",
          "type": "uint256"
        }
      ],
      "payable": false,
      "stateMutability": "pure",
      "type": "function"
    },
    {
      "constant": true,
      "inputs": [],
      "name": "startingAuctionPrice",
      "outputs": [
        {
          "name": "",
          "type": "uint256"
        }
      ],
      "payable": false,
      "stateMutability": "view",
      "type": "function"
    },
    {
      "constant": true,
      "inputs": [
        {
          "name": "tax",
          "type": "uint256"
        },
        {
          "name": "hasReferrer",
          "type": "bool"
        }
      ],
      "name": "_teamTax",
      "outputs": [
        {
          "name": "",
          "type": "uint256"
        }
      ],
      "payable": false,
      "stateMutability": "pure",
      "type": "function"
    },
    {
      "constant": true,
      "inputs": [],
      "name": "endingAuctionPrice",
      "outputs": [
        {
          "name": "",
          "type": "uint256"
        }
      ],
      "payable": false,
      "stateMutability": "view",
      "type": "function"
    },
    {
      "constant": true,
      "inputs": [],
      "name": "roundNumber",
      "outputs": [
        {
          "name": "",
          "type": "uint256"
        }
      ],
      "payable": false,
      "stateMutability": "view",
      "type": "function"
    },
    {
      "constant": true,
      "inputs": [],
      "name": "halvingVolume",
      "outputs": [
        {
          "name": "",
          "type": "uint256"
        }
      ],
      "payable": false,
      "stateMutability": "view",
      "type": "function"
    },
    {
      "constant": true,
      "inputs": [
        {
          "name": "",
          "type": "uint8"
        }
      ],
      "name": "tileToPrice",
      "outputs": [
        {
          "name": "",
          "type": "uint256"
        }
      ],
      "payable": false,
      "stateMutability": "view",
      "type": "function"
    },
    {
      "constant": true,
      "inputs": [
        {
          "name": "jackpot",
          "type": "uint256"
        }
      ],
      "name": "_landholderJackpot",
      "outputs": [
        {
          "name": "",
          "type": "uint256"
        }
      ],
      "payable": false,
      "stateMutability": "pure",
      "type": "function"
    },
    {
      "constant": false,
      "inputs": [],
      "name": "withdrawPayments",
      "outputs": [],
      "payable": false,
      "stateMutability": "nonpayable",
      "type": "function"
    },
    {
      "constant": true,
      "inputs": [
        {
          "name": "",
          "type": "uint8"
        }
      ],
      "name": "tileToOwner",
      "outputs": [
        {
          "name": "",
          "type": "address"
        }
      ],
      "payable": false,
      "stateMutability": "view",
      "type": "function"
    },
    {
      "constant": true,
      "inputs": [],
      "name": "jackpot",
      "outputs": [
        {
          "name": "",
          "type": "uint256"
        }
      ],
      "payable": false,
      "stateMutability": "view",
      "type": "function"
    },
    {
      "constant": true,
      "inputs": [
        {
          "name": "tax",
          "type": "uint256"
        }
      ],
      "name": "_totalLandholderTax",
      "outputs": [
        {
          "name": "",
          "type": "uint256"
        }
      ],
      "payable": false,
      "stateMutability": "pure",
      "type": "function"
    },
    {
      "constant": true,
      "inputs": [],
      "name": "numBoughtTiles",
      "outputs": [
        {
          "name": "",
          "type": "uint256"
        }
      ],
      "payable": false,
      "stateMutability": "view",
      "type": "function"
    },
    {
      "constant": true,
      "inputs": [
        {
          "name": "tax",
          "type": "uint256"
        }
      ],
      "name": "_nextPotTax",
      "outputs": [
        {
          "name": "",
          "type": "uint256"
        }
      ],
      "payable": false,
      "stateMutability": "pure",
      "type": "function"
    },
    {
      "constant": true,
      "inputs": [],
      "name": "teamAddress2",
      "outputs": [
        {
          "name": "",
          "type": "address"
        }
      ],
      "payable": false,
      "stateMutability": "view",
      "type": "function"
    },
    {
      "constant": true,
      "inputs": [],
      "name": "curExtensionVolume",
      "outputs": [
        {
          "name": "",
          "type": "uint256"
        }
      ],
      "payable": false,
      "stateMutability": "view",
      "type": "function"
    },
    {
      "constant": true,
      "inputs": [],
      "name": "owner",
      "outputs": [
        {
          "name": "",
          "type": "address"
        }
      ],
      "payable": false,
      "stateMutability": "view",
      "type": "function"
    },
    {
      "constant": true,
      "inputs": [
        {
          "name": "",
          "type": "uint8"
        },
        {
          "name": "",
          "type": "uint256"
        }
      ],
      "name": "tileToNeighbors",
      "outputs": [
        {
          "name": "",
          "type": "uint8"
        }
      ],
      "payable": false,
      "stateMutability": "view",
      "type": "function"
    },
    {
      "constant": true,
      "inputs": [
        {
          "name": "price",
          "type": "uint256"
        }
      ],
      "name": "_priceToTax",
      "outputs": [
        {
          "name": "",
          "type": "uint256"
        }
      ],
      "payable": false,
      "stateMutability": "pure",
      "type": "function"
    },
    {
      "constant": true,
      "inputs": [
        {
          "name": "tax",
          "type": "uint256"
        },
        {
          "name": "hasReferrer",
          "type": "bool"
        }
      ],
      "name": "_referrerTax",
      "outputs": [
        {
          "name": "",
          "type": "uint256"
        }
      ],
      "payable": false,
      "stateMutability": "pure",
      "type": "function"
    },
    {
      "constant": true,
      "inputs": [],
      "name": "nullNeighborValue",
      "outputs": [
        {
          "name": "",
          "type": "uint8"
        }
      ],
      "payable": false,
      "stateMutability": "view",
      "type": "function"
    },
    {
      "constant": true,
      "inputs": [],
      "name": "teamAddress1",
      "outputs": [
        {
          "name": "",
          "type": "address"
        }
      ],
      "payable": false,
      "stateMutability": "view",
      "type": "function"
    },
    {
      "constant": true,
      "inputs": [],
      "name": "teamSize",
      "outputs": [
        {
          "name": "",
          "type": "uint256"
        }
      ],
      "payable": false,
      "stateMutability": "view",
      "type": "function"
    },
    {
      "constant": true,
      "inputs": [],
      "name": "stage",
      "outputs": [
        {
          "name": "",
          "type": "uint8"
        }
      ],
      "payable": false,
      "stateMutability": "view",
      "type": "function"
    },
    {
      "constant": true,
      "inputs": [],
      "name": "curRoundExtension",
      "outputs": [
        {
          "name": "",
          "type": "uint256"
        }
      ],
      "payable": false,
      "stateMutability": "view",
      "type": "function"
    },
    {
      "constant": true,
      "inputs": [],
      "name": "maxTileId",
      "outputs": [
        {
          "name": "",
          "type": "uint8"
        }
      ],
      "payable": false,
      "stateMutability": "view",
      "type": "function"
    },
    {
      "constant": true,
      "inputs": [],
      "name": "teamAddress3",
      "outputs": [
        {
          "name": "",
          "type": "address"
        }
      ],
      "payable": false,
      "stateMutability": "view",
      "type": "function"
    },
    {
      "constant": true,
      "inputs": [
        {
          "name": "jackpot",
          "type": "uint256"
        }
      ],
      "name": "_teamJackpot",
      "outputs": [
        {
          "name": "",
          "type": "uint256"
        }
      ],
      "payable": false,
      "stateMutability": "pure",
      "type": "function"
    },
    {
      "constant": true,
      "inputs": [],
      "name": "minRoundExtension",
      "outputs": [
        {
          "name": "",
          "type": "uint256"
        }
      ],
      "payable": false,
      "stateMutability": "view",
      "type": "function"
    },
    {
      "constant": true,
      "inputs": [
        {
          "name": "",
          "type": "address"
        }
      ],
      "name": "payments",
      "outputs": [
        {
          "name": "",
          "type": "uint256"
        }
      ],
      "payable": false,
      "stateMutability": "view",
      "type": "function"
    },
    {
      "constant": true,
      "inputs": [],
      "name": "roundEndTime",
      "outputs": [
        {
          "name": "",
          "type": "uint256"
        }
      ],
      "payable": false,
      "stateMutability": "view",
      "type": "function"
    },
    {
      "constant": true,
      "inputs": [],
      "name": "numTiles",
      "outputs": [
        {
          "name": "",
          "type": "uint8"
        }
      ],
      "payable": false,
      "stateMutability": "view",
      "type": "function"
    },
    {
      "constant": true,
      "inputs": [],
      "name": "auctionStartTime",
      "outputs": [
        {
          "name": "",
          "type": "uint256"
        }
      ],
      "payable": false,
      "stateMutability": "view",
      "type": "function"
    },
    {
      "constant": false,
      "inputs": [
        {
          "name": "newOwner",
          "type": "address"
        }
      ],
      "name": "transferOwnership",
      "outputs": [],
      "payable": false,
      "stateMutability": "nonpayable",
      "type": "function"
    },
    {
      "inputs": [
        {
          "name": "startingStage",
          "type": "uint256"
        }
      ],
      "payable": false,
      "stateMutability": "nonpayable",
      "type": "constructor"
    },
    {
      "anonymous": false,
      "inputs": [
        {
          "indexed": true,
          "name": "tileId",
          "type": "uint8"
        },
        {
          "indexed": true,
          "name": "oldOwner",
          "type": "address"
        },
        {
          "indexed": true,
          "name": "newOwner",
          "type": "address"
        },
        {
          "indexed": false,
          "name": "oldPrice",
          "type": "uint256"
        },
        {
          "indexed": false,
          "name": "newPrice",
          "type": "uint256"
        }
      ],
      "name": "TileOwnerChanged",
      "type": "event"
    },
    {
      "anonymous": false,
      "inputs": [
        {
          "indexed": false,
          "name": "startingAuctionPrice",
          "type": "uint256"
        },
        {
          "indexed": false,
          "name": "endingAuctionPrice",
          "type": "uint256"
        },
        {
          "indexed": false,
          "name": "auctionDuration",
          "type": "uint256"
        },
        {
          "indexed": false,
          "name": "startTime",
          "type": "uint256"
        }
      ],
      "name": "AuctionStarted",
      "type": "event"
    },
    {
      "anonymous": false,
      "inputs": [
        {
          "indexed": false,
          "name": "endTime",
          "type": "uint256"
        }
      ],
      "name": "AuctionEnded",
      "type": "event"
    },
    {
      "anonymous": false,
      "inputs": [
        {
          "indexed": true,
          "name": "tileId",
          "type": "uint8"
        },
        {
          "indexed": true,
          "name": "owner",
          "type": "address"
        },
        {
          "indexed": false,
          "name": "oldPrice",
          "type": "uint256"
        },
        {
          "indexed": false,
          "name": "newPrice",
          "type": "uint256"
        }
      ],
      "name": "TilePriceChanged",
      "type": "event"
    },
    {
      "anonymous": false,
      "inputs": [
        {
          "indexed": false,
          "name": "initJackpot",
          "type": "uint256"
        },
        {
          "indexed": false,
          "name": "endTime",
          "type": "uint256"
        },
        {
          "indexed": false,
          "name": "roundNumber",
          "type": "uint256"
        }
      ],
      "name": "GameRoundStarted",
      "type": "event"
    },
    {
      "anonymous": false,
      "inputs": [
        {
          "indexed": false,
          "name": "endTime",
          "type": "uint256"
        }
      ],
      "name": "GameRoundExtended",
      "type": "event"
    },
    {
      "anonymous": false,
      "inputs": [
        {
          "indexed": false,
          "name": "jackpot",
          "type": "uint256"
        }
      ],
      "name": "GameRoundEnded",
      "type": "event"
    },
    {
      "anonymous": false,
      "inputs": [
        {
          "indexed": true,
          "name": "previousOwner",
          "type": "address"
        },
        {
          "indexed": true,
          "name": "newOwner",
          "type": "address"
        }
      ],
      "name": "OwnershipTransferred",
      "type": "event"
    },
    {
      "constant": false,
      "inputs": [
        {
          "name": "newTeamAddress",
          "type": "address"
        }
      ],
      "name": "addTeamAddress",
      "outputs": [],
      "payable": false,
      "stateMutability": "nonpayable",
      "type": "function"
    },
    {
      "constant": false,
      "inputs": [
        {
          "name": "tileId",
          "type": "uint8"
        },
        {
          "name": "newPrice",
          "type": "uint256"
        },
        {
          "name": "referrer",
          "type": "address"
        }
      ],
      "name": "buyTileAuction",
      "outputs": [],
      "payable": true,
      "stateMutability": "payable",
      "type": "function"
    },
    {
      "constant": true,
      "inputs": [],
      "name": "getTilePriceAuction",
      "outputs": [
        {
          "name": "",
          "type": "uint256"
        }
      ],
      "payable": false,
      "stateMutability": "view",
      "type": "function"
    },
    {
      "constant": true,
      "inputs": [],
      "name": "roundTimeRemaining",
      "outputs": [
        {
          "name": "",
          "type": "uint256"
        }
      ],
      "payable": false,
      "stateMutability": "view",
      "type": "function"
    },
    {
      "constant": false,
      "inputs": [],
      "name": "endGameRound",
      "outputs": [],
      "payable": false,
      "stateMutability": "nonpayable",
      "type": "function"
    },
    {
      "constant": false,
      "inputs": [
        {
          "name": "tileId",
          "type": "uint8"
        },
        {
          "name": "newPrice",
          "type": "uint256"
        },
        {
          "name": "referrer",
          "type": "address"
        }
      ],
      "name": "setTilePrice",
      "outputs": [],
      "payable": true,
      "stateMutability": "payable",
      "type": "function"
    },
    {
      "constant": false,
      "inputs": [
        {
          "name": "tileId",
          "type": "uint8"
        },
        {
          "name": "newPrice",
          "type": "uint256"
        },
        {
          "name": "referrer",
          "type": "address"
        }
      ],
      "name": "buyTile",
      "outputs": [],
      "payable": true,
      "stateMutability": "payable",
      "type": "function"
    }
  ],
  "bytecode": "0x60806040526003805460a060020a60ff02191690556000600a819055600d553480156200002b57600080fd5b5060405160208062002296833981016040525160038054600160a060020a0319163317905560018114156200009a576003805460a060020a60ff0219167401000000000000000000000000000000000000000017905562000094640100000000620000b4810204565b620000ad565b620000ad64010000000062000146810204565b5062000251565b6000600e81905561a8c0600f556012805460115555600d54620000e790600164010000000062001a77620001aa82021704565b600d55620000fd640100000000620001c4810204565b601154601054600d5460408051938452602084019290925282820152517f8dbc109f2b860f13cb31cb0e968bcd6324ad443f6cc2853fdf3ca82904a8a0089181900360600190a1565b42600c8190556000600b5560408051670de0b6b3a7640000815266b1a2bc2ec50000602082015262069780818301526060810192909252517fa832766a05f1bd0298b0268308621777cfe1e4eea23afe7c06beea79bc6ddd2d9181900360800190a1565b600082820183811015620001bd57600080fd5b9392505050565b600f54620001ff90620001e790429064010000000062001a77620001aa82021704565b6010549064010000000062001f8d6200023882021704565b601081905560408051918252517fe3663e221e6fb10518d40e9d9a20cd6f59853232fbfebc7de3821ed0c8fb36d29181900360200190a1565b6000818310156200024a5781620001bd565b5090919050565b61203580620002616000396000f30060806040526004361061024f5763ffffffff7c01000000000000000000000000000000000000000000000000000000006000350416625b4487811461025457806303fca0611461027b57806306e42962146102905780630a6f5d8e146102a85780630cbf54c8146102c05780630e51574f146102d55780630eb51c9c146102ec5780631ccff7161461030157806320178db31461032c5780633459d2ba14610341578063391f3b2d146103565780633ebf25081461036e5780633f4acbe8146103835780633fecde21146103a057806349087bcc146103bd5780634e2786fb146103d257806351b472b9146103e75780635b98f169146103fc5780635f99c1b2146102a85780636103d70b1461041757806366cd442a1461042c57806369008fb6146104635780636b31ee01146104805780636b433ccf1461049557806371566c23146104ad578063765dd7a0146104c25780637e9de0bc146104e357806384db8d1e14610356578063861a588e146105005780638771fc4a146105155780638da5cb5b1461052a578063925183cd1461053f5780639798532f1461055d578063a93b1a6514610575578063aca21a1e14610592578063ad2daa48146105a7578063b6bb354b146105bc578063b6c32593146105d1578063c040e6b8146105e6578063c25394291461061f578063c9e87f3114610634578063cce4396414610649578063cf69341814610356578063de8d77e71461065e578063e2982c2114610673578063e40205d614610694578063e9360a3614610634578063eb54f9ec146106a9578063f2fde38b146106be575b600080fd5b34801561026057600080fd5b506102696106df565b60408051918252519081900360200190f35b34801561028757600080fd5b506102696106e5565b34801561029c57600080fd5b506102696004356106eb565b3480156102b457600080fd5b50610269600435610704565b3480156102cc57600080fd5b50610269610728565b3480156102e157600080fd5b506102ea61072f565b005b3480156102f857600080fd5b50610269610847565b34801561030d57600080fd5b5061031661084d565b6040805160ff9092168252519081900360200190f35b34801561033857600080fd5b50610269610852565b34801561034d57600080fd5b50610269610858565b34801561036257600080fd5b50610269600435610968565b34801561037a57600080fd5b5061026961097b565b34801561038f57600080fd5b506102696004356024351515610987565b6102ea60ff60043516602435600160a060020a03604435166109c2565b3480156103c957600080fd5b50610269610c2a565b3480156103de57600080fd5b50610269610c35565b3480156103f357600080fd5b50610269610c3b565b34801561040857600080fd5b5061026960ff60043516610c48565b34801561042357600080fd5b506102ea610c5a565b34801561043857600080fd5b5061044760ff60043516610ce3565b60408051600160a060020a039092168252519081900360200190f35b6102ea60ff60043516602435600160a060020a0360443516610cfe565b34801561048c57600080fd5b50610269610f82565b3480156104a157600080fd5b50610269600435610f88565b3480156104b957600080fd5b50610269610fa0565b3480156104ce57600080fd5b506102ea600160a060020a0360043516610fa6565b6102ea60ff60043516602435600160a060020a03604435166112b2565b34801561050c57600080fd5b50610447611584565b34801561052157600080fd5b50610269611593565b34801561053657600080fd5b50610447611599565b34801561054b57600080fd5b5061031660ff600435166024356115a8565b34801561056957600080fd5b506102696004356115e0565b34801561058157600080fd5b5061026960043560243515156115f3565b34801561059e57600080fd5b50610316611614565b3480156105b357600080fd5b50610269611619565b3480156105c857600080fd5b506104476116bd565b3480156105dd57600080fd5b506102696116cc565b3480156105f257600080fd5b506105fb6116d2565b6040518082600181111561060b57fe5b60ff16815260200191505060405180910390f35b34801561062b57600080fd5b506102696116e2565b34801561064057600080fd5b506103166116e8565b34801561065557600080fd5b506104476116ed565b34801561066a57600080fd5b506102696116fc565b34801561067f57600080fd5b50610269600160a060020a0360043516611701565b3480156106a057600080fd5b50610269611713565b3480156106b557600080fd5b50610269611719565b3480156106ca57600080fd5b506102ea600160a060020a036004351661171f565b60025481565b60125481565b60006106fe82600263ffffffff6117b416565b92915050565b60006106fe600561071c84600263ffffffff6117dc16565b9063ffffffff6117b416565b6206978081565b60018060035460a060020a900460ff16600181111561074a57fe5b146107a1576040805160e560020a62461bcd0281526020600482015260276024820152600080516020611fca8339815191526044820152600080516020611fea833981519152606482015290519081900360840190fd5b6107a9611811565b15156107ff576040805160e560020a62461bcd02815260206004820152601360248201527f526f756e64206d757374206265206f7665722100000000000000000000000000604482015290519081900360640190fd5b61080761181a565b60115460408051918252517f3cf3fa68b629d58f07a4aab1808a70df09365f335635faa68ce0478aee6d8abc9181900360200190a1610844611878565b50565b61a8c081565b600181565b60065481565b6000808080808060035460a060020a900460ff16600181111561087757fe5b146108ce576040805160e560020a62461bcd0281526020600482015260276024820152600080516020611fca8339815191526044820152600080516020611fea833981519152606482015290519081900360840190fd5b60009350600c544211156108f357600c546108f090429063ffffffff6118f516565b93505b62069780841061090c5766b1a2bc2ec500009450610961565b61092b670de0b6b3a764000066b1a2bc2ec5000063ffffffff6118f516565b92506109446206978061071c858763ffffffff6117dc16565b915061095e670de0b6b3a76400008363ffffffff6118f516565b94505b5050505090565b60006106fe82601463ffffffff6117b416565b670de0b6b3a764000081565b600081156109ac576109a5601961071c85600363ffffffff6117dc16565b90506106fe565b6109a5606461071c85601163ffffffff6117dc16565b60008060018060035460a060020a900460ff1660018111156109e057fe5b14610a37576040805160e560020a62461bcd0281526020600482015260276024820152600080516020611fca8339815191526044820152600080516020611fea833981519152606482015290519081900360840190fd5b610a3f611811565b15610a94576040805160e560020a62461bcd02815260206004820152601460248201527f526f756e642063616e2774206265206f76657221000000000000000000000000604482015290519081900360640190fd5b60ff8616600090815260046020526040902054600160a060020a03163314610b2c576040805160e560020a62461bcd02815260206004820152602e60248201527f43616e2774207365742074696c6520707269636520666f7220612074696c652060448201527f796f7520646f6e2774206f776e21000000000000000000000000000000000000606482015290519081900360840190fd5b610b35856115e0565b925034831115610b8f576040805160e560020a62461bcd02815260206004820152601f60248201527f4d7573742070617920746178206f6e206e65772074696c652070726963652100604482015290519081900360640190fd5b60ff86166000908152600560205260409020549150610bae348561190c565b610bb88686611979565b610bc06119be565b610bc934611a1e565b60ff86166000818152600460209081526040918290205482518681529182018990528251600160a060020a0390911693927f6c8ddfd61cb90c6918b2dfdf677c44fc270fcb4b7dfa22b0665fbd1976832fca928290030190a3505050505050565b66b1a2bc2ec5000081565b600d5481565b6802b5e3af16b188000081565b60056020526000908152604090205481565b33600081815260016020526040902054801515610c7657600080fd5b3031811115610c8457600080fd5b600254610c97908263ffffffff6118f516565b600255600160a060020a0382166000818152600160205260408082208290555183156108fc0291849190818181858888f19350505050158015610cde573d6000803e3d6000fd5b505050565b600460205260009081526040902054600160a060020a031681565b600080808060035460a060020a900460ff166001811115610d1b57fe5b14610d72576040805160e560020a62461bcd0281526020600482015260276024820152600080516020611fca8339815191526044820152600080516020611fea833981519152606482015290519081900360840190fd5b60ff8616600090815260046020526040902054600160a060020a0316158015610dab575060ff8616600090815260056020526040902054155b1515610e27576040805160e560020a62461bcd02815260206004820152603260248201527f43616e27742062757920612074696c652074686174277320616c72656164792060448201527f6265656e2061756374696f6e6564206f66660000000000000000000000000000606482015290519081900360840190fd5b610e30856115e0565b9250610e3a610858565b9150610e4c838363ffffffff611a7716565b341015610ec9576040805160e560020a62461bcd02815260206004820152603560248201527f4d75737420706179207468652066756c6c20707269636520616e64207461782060448201527f666f7220612074696c65206f6e2061756374696f6e0000000000000000000000606482015290519081900360840190fd5b610ed33485611a89565b60ff86166000908152600460205260409020805473ffffffffffffffffffffffffffffffffffffffff191633179055610f0c8686611979565b600b54610f2090600163ffffffff611a7716565b600b5560408051838152602081018790528151339260009260ff8b16927f7a60be58ea0cf4cbccda877e1d59dc979442a2a3cc294136d1b7a325e366f34d929181900390910190a4600b54601311610f7a57610f7a611af4565b505050505050565b60115481565b60006106fe603261071c84601363ffffffff6117dc16565b600b5481565b600354600160a060020a03163314610fbd57600080fd5b600160a060020a0381161515611043576040805160e560020a62461bcd02815260206004820152602d60248201527f4e6577207465616d206d656d626572206d757374206e6f74206265206e756c6c60448201527f207465616d206164647265737300000000000000000000000000000000000000606482015290519081900360840190fd5b600354600160a060020a03828116911614156110cf576040805160e560020a62461bcd02815260206004820152602a60248201527f4e6577207465616d206d656d626572206d757374206e6f7420626520636f6e7460448201527f72616374206f776e657200000000000000000000000000000000000000000000606482015290519081900360840190fd5b600754600160a060020a031615806110f05750600854600160a060020a0316155b806111045750600954600160a060020a0316155b15156111cc576040805160e560020a62461bcd02815260206004820152606660248201527f4d75737420626520616e206f70656e2073706f7420666f722061206e6577207460448201527f65616d206d656d6265722120546869732070726576656e7473206368616e676960648201527f6e6720746865207465616d206f6e636520616c6c20736c6f747320617265206660848201527f696c6c65642e000000000000000000000000000000000000000000000000000060a482015290519081900360c40190fd5b600754600160a060020a0316151561121c576007805473ffffffffffffffffffffffffffffffffffffffff1916600160a060020a038316179055600a54611214906001611a77565b600a55610844565b600854600160a060020a03161515611264576008805473ffffffffffffffffffffffffffffffffffffffff1916600160a060020a038316179055600a54611214906001611a77565b600954600160a060020a03161515610844576009805473ffffffffffffffffffffffffffffffffffffffff1916600160a060020a038316179055600a546112ac906001611a77565b600a5550565b600080808060018060035460a060020a900460ff1660018111156112d257fe5b14611329576040805160e560020a62461bcd0281526020600482015260276024820152600080516020611fca8339815191526044820152600080516020611fea833981519152606482015290519081900360840190fd5b611331611811565b15611386576040805160e560020a62461bcd02815260206004820152601460248201527f526f756e642063616e2774206265206f76657221000000000000000000000000604482015290519081900360640190fd5b60ff8816600090815260046020526040902054600160a060020a03169450338514156113fc576040805160e560020a62461bcd02815260206004820181905260248201527f43616e27742062757920612074696c6520796f7520616c7265616479206f776e604482015290519081900360640190fd5b611405876115e0565b60ff8916600090815260056020526040902054909450925061142d848463ffffffff611a7716565b3410156114a9576040805160e560020a62461bcd028152602060048201526024808201527f4d757374207061792066756c6c20707269636520616e642074617820666f722060448201527f74696c6500000000000000000000000000000000000000000000000000000000606482015290519081900360840190fd5b60ff88166000908152600560205260409020546114c7908690611bd6565b60ff88166000908152600460205260409020805473ffffffffffffffffffffffffffffffffffffffff191633179055611506348463ffffffff6118f516565b9150611512828761190c565b61151c8888611979565b6115246119be565b61152d34611a1e565b604080518481526020810189905281513392600160a060020a0389169260ff8d16927f7a60be58ea0cf4cbccda877e1d59dc979442a2a3cc294136d1b7a325e366f34d929181900390910190a45050505050505050565b600854600160a060020a031681565b600e5481565b600354600160a060020a031681565b6000602052816000526040600020816006811015156115c357fe5b602081049091015460ff601f9092166101000a9004169150829050565b60006106fe82600a63ffffffff6117b416565b6000811561160c576109a583601463ffffffff6117b416565b5060006106fe565b600081565b600060018060035460a060020a900460ff16600181111561163657fe5b1461168d576040805160e560020a62461bcd0281526020600482015260276024820152600080516020611fca8339815191526044820152600080516020611fea833981519152606482015290519081900360840190fd5b611695611811565b156116a357600091506116b9565b6010546116b6904263ffffffff6118f516565b91505b5090565b600754600160a060020a031681565b600a5481565b60035460a060020a900460ff1681565b600f5481565b601381565b600954600160a060020a031681565b600a81565b60016020526000908152604090205481565b60105481565b600c5481565b600354600160a060020a0316331461173657600080fd5b600160a060020a038116151561174b57600080fd5b600354604051600160a060020a038084169216907f8be0079c531659141344cd1fd0a4f28419497f9722a3daafe3b4186f6b6457e090600090a36003805473ffffffffffffffffffffffffffffffffffffffff1916600160a060020a0392909216919091179055565b6000808083116117c357600080fd5b82848115156117ce57fe5b0490508091505b5092915050565b6000808315156117ef57600091506117d5565b508282028284828115156117ff57fe5b041461180a57600080fd5b9392505050565b60105442101590565b6000806118286011546106eb565b9150611835601154610704565b90506118418282611c32565b61185461184f601154610968565b611e23565b611871611862601154610968565b6012549063ffffffff611a7716565b6012555050565b6000600e81905561a8c0600f556012805460115555600d546118a190600163ffffffff611a7716565b600d556118ac6119be565b601154601054600d5460408051938452602084019290925282820152517f8dbc109f2b860f13cb31cb0e968bcd6324ad443f6cc2853fdf3ca82904a8a0089181900360600190a1565b6000808383111561190557600080fd5b5050900390565b600061192961191a84610704565b6011549063ffffffff611a7716565b60115561193d61193884610f88565b611edb565b61194961186284610968565b60125550600160a060020a038116151561196661184f8483610987565b610cde8261197485846115f3565b611bd6565b60ff821660009081526005602052604090208054908290556006546119b69083906119aa908463ffffffff6118f516565b9063ffffffff611a7716565b600655505050565b6119e56119d6600f5442611a7790919063ffffffff16565b6010549063ffffffff611f8d16565b601081905560408051918252517fe3663e221e6fb10518d40e9d9a20cd6f59853232fbfebc7de3821ed0c8fb36d29181900360200190a1565b600e54611a31908263ffffffff611a7716565b600e8190556802b5e3af16b18800001161084457611a6c600a611a606002600f546117b490919063ffffffff16565b9063ffffffff611f8d16565b600f556000600e5550565b60008282018381101561180a57600080fd5b600080611a9861193885610f88565b611aad611aa485610968565b6119aa86610704565b601254909250611ac3908363ffffffff611a7716565b60125550600160a060020a0382161515611ae061184f8583610987565b611aee8361197486846115f3565b50505050565b600b5460131115611b75576040805160e560020a62461bcd02815260206004820152602760248201527f43616e277420656e642061756374696f6e2069662061726520756e626f75676860448201527f742074696c657300000000000000000000000000000000000000000000000000606482015290519081900360840190fd5b6003805474ff0000000000000000000000000000000000000000191660a060020a179055611ba1611878565b6040805142815290517f45806e512b1f4f10e33e8b3cb64d1d11d998d8c554a95e0841fc1c701278bd5d9181900360200190a1565b600160a060020a038216600090815260016020526040902054611bff908263ffffffff611a7716565b600160a060020a038316600090815260016020526040902055600254611c2b908263ffffffff611a7716565b6002555050565b6040805160148082526102a08201909252606091600091829182918291829182918291906020820161028080388339019050509750600096506000955060009450600193505b601360ff851611611cdf57611c8c84611fa4565b9250851580611c9a57508583115b15611ca6578295508394505b82888560ff16815181101515611cb857fe5b60209081029091010152611cd2878463ffffffff611a7716565b9650600190930192611c78565b60009150600193505b601360ff851611611d155785611cfd85611fa4565b1415611d0a576001909101905b600190930192611ce8565b8160011415611d495760ff8516600090815260046020526040902054611d4490600160a060020a03168b611bd6565b611da4565b600193505b601360ff851611611da45785611d6385611fa4565b1415611d995760ff8416600090815260046020526040902054611d9990600160a060020a03166119748c8563ffffffff6117b416565b600190930192611d4e565b600193505b601360ff851611611e1757611de38761071c8b8b8860ff16815181101515611dcd57fe5b602090810290910101519063ffffffff6117dc16565b60ff8516600090815260046020526040902054909150611e0c90600160a060020a031682611bd6565b600190930192611da9565b50505050505050505050565b6000600a5460001415611e4b57600354611e4690600160a060020a031683611bd6565b611ed7565b600a54611e5f90839063ffffffff6117b416565b600754909150600160a060020a031615611e8957600754611e8990600160a060020a031682611bd6565b600854600160a060020a031615611eb057600854611eb090600160a060020a031682611bd6565b600954600160a060020a031615611ed757600954611ed790600160a060020a031682611bd6565b5050565b60016000805b601360ff841611611aee5760ff8316600090815260046020526040902054600160a060020a031615801590611f27575060ff831660009081526005602052604090205415155b15611f825760ff8316600090815260056020526040902054600654909250611f599061071c868563ffffffff6117dc16565b60ff8416600090815260046020526040902054909150611f8290600160a060020a031682611bd6565b600190920191611ee1565b600081831015611f9d578161180a565b5090919050565b60ff81166000908152600560205260408120546006546106fe9163ffffffff6118f516560046756e6374696f6e2063616e6e6f742062652063616c6c656420617420746869732074696d652e00000000000000000000000000000000000000000000000000a165627a7a72305820b6589088ee89c5480b094d254c9f086515f86ee160b2f17822534170b6e436a50029",
  "source": "pragma solidity ^0.4.22;\n\n// Zeppelin libs\nimport \"./Math.sol\";\nimport \"./Ownable.sol\";\nimport \"./PullPayment.sol\";\nimport \"./SafeMath.sol\";\n\n// Microverse libs\nimport \"./HexBoard3.sol\";\nimport \"./JackpotRules.sol\";\nimport \"./TaxRules.sol\";\n\ncontract Microverse is\n    HexBoard3,\n    PullPayment,\n    Ownable,\n    TaxRules,\n    JackpotRules {\n    using SafeMath for uint256;\n    using Math for uint256;\n\n    // states this contract progresses through\n    enum Stage {\n        DutchAuction,\n        GameRounds\n    }\n    Stage public stage = Stage.DutchAuction;\n\n    modifier atStage(Stage _stage) {\n        require(\n            stage == _stage,\n            \"Function cannot be called at this time.\"\n        );\n        _;\n    }\n\n    // NOTE: stage arg for debugging purposes only! Should just be set to 0 by default\n    constructor(uint startingStage) public {\n        if (startingStage == uint(Stage.GameRounds)) {\n            stage = Stage.GameRounds;\n            _startGameRound();\n        } else {\n            _startAuction();\n        }\n    }\n\n    mapping(uint8 => address) public tileToOwner;\n    mapping(uint8 => uint256) public tileToPrice;\n    uint256 public totalTileValue;\n\n    function _changeTilePrice(uint8 tileId, uint256 newPrice) private {\n        uint256 oldPrice = tileToPrice[tileId];\n        tileToPrice[tileId] = newPrice;\n        totalTileValue = (totalTileValue.sub(oldPrice)).add(newPrice);\n    }\n\n    event TileOwnerChanged(\n        uint8 indexed tileId,\n        address indexed oldOwner,\n        address indexed newOwner,\n        uint256 oldPrice,\n        uint256 newPrice\n    );\n\n    /////////////\n    // Team stuff\n    /////////////\n\n    // Up to 3 equal-share dev team members\n    address public teamAddress1;\n    address public teamAddress2;\n    address public teamAddress3;\n\n    // 0 -> 3 depending on contract state. I only use uint256 so that I can use SafeMath...\n    uint256 public teamSize= 0;\n\n    function addTeamAddress(address newTeamAddress) external onlyOwner {\n        require(\n            newTeamAddress != address(0),\n            \"New team member must not be null team address\"\n        );\n\n        require(\n            newTeamAddress != owner,\n            \"New team member must not be contract owner\"\n        );\n\n        require(\n            teamAddress1 == address(0) || teamAddress2 == address(0) || teamAddress3 == address(0),\n            \"Must be an open spot for a new team member! This prevents changing the team once all slots are filled.\"\n        );\n\n        if (teamAddress1 == address(0)) {\n            teamAddress1 = newTeamAddress;\n            teamSize = teamSize.add(1);\n        } else if (teamAddress2 == address(0)) {\n            teamAddress2 = newTeamAddress;\n            teamSize = teamSize.add(1);\n        } else if (teamAddress3 == address(0)) {\n            teamAddress3 = newTeamAddress;\n            teamSize = teamSize.add(1);\n        }\n    }\n\n    function _sendToTeam(uint256 amount) private {\n        if (teamSize == 0) {\n            // If team hasn't been set, treat contract owner as 'team'\n            asyncSend(owner, amount);\n        } else {\n            uint256 perTeamMemberFee = amount.div(teamSize);\n\n            if (teamAddress1 != address(0)) {\n                asyncSend(teamAddress1, perTeamMemberFee);\n            }\n\n            if (teamAddress2 != address(0)) {\n                asyncSend(teamAddress2, perTeamMemberFee);\n            }\n\n            if (teamAddress3 != address(0)) {\n                asyncSend(teamAddress3, perTeamMemberFee);\n            }\n        }\n    }\n\n    //////////\n    // Auction\n    //////////\n\n    event AuctionStarted(\n        uint256 startingAuctionPrice,\n        uint256 endingAuctionPrice,\n        uint256 auctionDuration,\n        uint256 startTime\n    );\n\n    event AuctionEnded(\n        uint256 endTime\n    );\n\n    uint256 constant public startingAuctionPrice = 1 ether;\n    uint256 constant public endingAuctionPrice = 0.05 ether;\n    uint256 constant public auctionDuration = 5 days; // period over which land price decreases linearly\n\n    uint256 public numBoughtTiles;\n    uint256 public auctionStartTime;\n\n    function buyTileAuction(uint8 tileId, uint256 newPrice, address referrer) public payable atStage(Stage.DutchAuction) {\n        require(\n            tileToOwner[tileId] == address(0) && tileToPrice[tileId] == 0,\n            \"Can't buy a tile that's already been auctioned off\"\n        );\n\n        uint256 tax = _priceToTax(newPrice);\n        uint256 price = getTilePriceAuction();\n\n        require(\n            msg.value >= tax.add(price),\n            \"Must pay the full price and tax for a tile on auction\"\n        );\n\n        // NOTE: *entire* payment distributed as Game taxes\n        _distributeAuctionTax(msg.value, referrer);\n\n        tileToOwner[tileId] = msg.sender;\n        _changeTilePrice(tileId, newPrice);\n\n        numBoughtTiles = numBoughtTiles.add(1);\n\n        emit TileOwnerChanged(tileId, address(0), msg.sender, price, newPrice);\n\n        if (numBoughtTiles >= numTiles) {\n            endAuction();\n        }\n    }\n\n    // NOTE: Some common logic with _distributeTax\n    function _distributeAuctionTax(uint256 tax, address referrer) private {\n        _distributeLandholderTax(_totalLandholderTax(tax));\n\n        // NOTE: Because no notion of 'current jackpot', everything added to next pot\n        uint256 totalJackpotTax = _jackpotTax(tax).add(_nextPotTax(tax));\n        nextJackpot = nextJackpot.add(totalJackpotTax);\n\n        // NOTE: referrer tax comes out of dev team tax\n        bool hasReferrer = referrer != address(0);\n        _sendToTeam(_teamTax(tax, hasReferrer));\n        asyncSend(referrer, _referrerTax(tax, hasReferrer));\n    }\n\n    function getTilePriceAuction() public view atStage(Stage.DutchAuction) returns (uint256) {\n        uint256 secondsPassed = 0;\n\n        // This should always be the case...\n        if (now > auctionStartTime) {\n            secondsPassed = now.sub(auctionStartTime);\n        }\n\n        if (secondsPassed >= auctionDuration) {\n            return endingAuctionPrice;\n        } else {\n            uint256 maxPriceDelta = startingAuctionPrice.sub(endingAuctionPrice);\n            uint256 actualPriceDelta = (maxPriceDelta.mul(secondsPassed)).div(auctionDuration);\n\n            return startingAuctionPrice.sub(actualPriceDelta);\n        }\n    }\n\n    function endAuction() private {\n        require(\n            numBoughtTiles >= numTiles,\n            \"Can't end auction if are unbought tiles\"\n        );\n\n        stage = Stage.GameRounds;\n        _startGameRound();\n\n        emit AuctionEnded(now);\n    }\n\n    function _startAuction() private {\n        auctionStartTime = now;\n        numBoughtTiles = 0;\n\n        emit AuctionStarted(startingAuctionPrice,\n                            endingAuctionPrice,\n                            auctionDuration,\n                            auctionStartTime);\n    }\n\n    ///////\n    // Game\n    ///////\n\n    uint256 constant public startingRoundExtension = 12 hours;\n    uint256 constant public halvingVolume = 50 ether; // tx volume before next duration halving\n    uint256 constant public minRoundExtension = 10 seconds; // could set to 1 second\n\n    uint256 public roundNumber = 0;\n\n    uint256 public curExtensionVolume;\n    uint256 public curRoundExtension;\n\n    uint256 public roundEndTime;\n\n    uint256 public jackpot;\n    uint256 public nextJackpot;\n\n    // Only emitted if owner doesn't *also* change\n    event TilePriceChanged(\n        uint8 indexed tileId,\n        address indexed owner,\n        uint256 oldPrice,\n        uint256 newPrice\n    );\n\n    event GameRoundStarted(\n        uint256 initJackpot,\n        uint256 endTime,\n        uint256 roundNumber\n    );\n\n    event GameRoundExtended(\n        uint256 endTime\n    );\n\n    event GameRoundEnded(\n        uint256 jackpot\n    );\n\n    ////////////////////////////////////\n    // [Game] Round extension management\n    ////////////////////////////////////\n\n    function roundTimeRemaining() public view atStage(Stage.GameRounds) returns (uint256)  {\n        if (_roundOver()) {\n            return 0;\n        } else {\n            return roundEndTime.sub(now);\n        }\n    }\n\n    function _extendRound() private {\n        roundEndTime = roundEndTime.max(now.add(curRoundExtension));\n\n        emit GameRoundExtended(roundEndTime);\n    }\n\n    function _startGameRound() private {\n        curExtensionVolume = 0 ether;\n        curRoundExtension = startingRoundExtension;\n\n        jackpot = nextJackpot;\n        nextJackpot = 0;\n\n        roundNumber = roundNumber.add(1);\n\n        _extendRound();\n\n        emit GameRoundStarted(jackpot, roundEndTime, roundNumber);\n    }\n\n    function _roundOver() private view returns (bool) {\n        return now >= roundEndTime;\n    }\n\n    modifier duringRound() {\n        require(\n            !_roundOver(),\n            \"Round can't be over!\"\n        );\n        _;\n    }\n\n    // NOTE: Must be called for all volume we want to count towards round extension halving\n    function _logRoundExtensionVolume(uint256 amount) private {\n        curExtensionVolume = curExtensionVolume.add(amount);\n\n        if (curExtensionVolume >= halvingVolume) {\n            curRoundExtension = curRoundExtension.div(2).max(minRoundExtension);\n            curExtensionVolume = 0 ether;\n        }\n    }\n\n    ////////////////////////\n    // [Game] Player actions\n    ////////////////////////\n\n    function endGameRound() public atStage(Stage.GameRounds) {\n        require(\n            _roundOver(),\n            \"Round must be over!\"\n        );\n\n        _distributeJackpot();\n\n        emit GameRoundEnded(jackpot);\n\n        _startGameRound();\n    }\n\n    function setTilePrice(uint8 tileId, uint256 newPrice, address referrer)\n        public\n        payable\n        atStage(Stage.GameRounds)\n        duringRound {\n        require(\n            tileToOwner[tileId] == msg.sender,\n            \"Can't set tile price for a tile you don't own!\"\n        );\n\n        uint256 tax = _priceToTax(newPrice);\n\n        require(\n            msg.value >= tax,\n            \"Must pay tax on new tile price!\"\n        );\n\n        uint256 oldPrice = tileToPrice[tileId];\n        _distributeTax(msg.value, referrer);\n        _changeTilePrice(tileId, newPrice);\n\n        // NOTE: Currently we extend round for 'every' tile price change. Alternatively could do only on\n        // increases or decreases or changes exceeding some magnitude\n        _extendRound();\n        _logRoundExtensionVolume(msg.value);\n\n        emit TilePriceChanged(tileId, tileToOwner[tileId], oldPrice, newPrice);\n    }\n\n    function buyTile(uint8 tileId, uint256 newPrice, address referrer)\n        public\n        payable\n        atStage(Stage.GameRounds)\n        duringRound {\n        address oldOwner = tileToOwner[tileId];\n        require(\n            oldOwner != msg.sender,\n            \"Can't buy a tile you already own\"\n        );\n\n        uint256 tax = _priceToTax(newPrice);\n\n        uint256 oldPrice = tileToPrice[tileId];\n        require(\n            msg.value >= tax.add(oldPrice),\n            \"Must pay full price and tax for tile\"\n        );\n\n        // pay seller\n        asyncSend(oldOwner, tileToPrice[tileId]);\n        tileToOwner[tileId] = msg.sender;\n\n        uint256 actualTax = msg.value.sub(oldPrice);\n        _distributeTax(actualTax, referrer);\n\n        _changeTilePrice(tileId, newPrice);\n        _extendRound();\n        _logRoundExtensionVolume(msg.value);\n\n        emit TileOwnerChanged(tileId, oldOwner, msg.sender, oldPrice, newPrice);\n    }\n\n    ///////////////////////////////////////\n    // [Game] Dividend/jackpot distribution\n    ///////////////////////////////////////\n\n    function _distributeJackpot() private {\n        uint256 winnerJackpot = _winnerJackpot(jackpot);\n        uint256 landholderJackpot = _landholderJackpot(jackpot);\n        _distributeWinnerAndLandholderJackpot(winnerJackpot, landholderJackpot);\n\n        _sendToTeam(_teamJackpot(jackpot));\n        nextJackpot = nextJackpot.add(_nextPotJackpot(jackpot));\n    }\n\n    function _calculatePriceComplement(uint8 tileId) private view returns (uint256) {\n        return totalTileValue.sub(tileToPrice[tileId]);\n    }\n\n    // NOTE: These are bundled together so that we only have to compute complements once\n    function _distributeWinnerAndLandholderJackpot(uint256 winnerJackpot, uint256 landholderJackpot) private {\n        uint256[] memory complements = new uint256[](numTiles + 1); // inc necessary b/c tiles are 1-indexed\n        uint256 totalPriceComplement = 0;\n\n        uint256 bestComplement = 0;\n        uint8 lastWinningTileId = 0;\n        for (uint8 i = minTileId; i <= maxTileId; i++) {\n            uint256 priceComplement = _calculatePriceComplement(i);\n\n            // update winner\n            if (bestComplement == 0 || priceComplement > bestComplement) {\n                bestComplement = priceComplement;\n                lastWinningTileId = i;\n            }\n\n            complements[i] = priceComplement;\n            totalPriceComplement = totalPriceComplement.add(priceComplement);\n        }\n        uint256 numWinners = 0;\n        for (i = minTileId; i <= maxTileId; i++) {\n            if (_calculatePriceComplement(i) == bestComplement) {\n                numWinners++;\n            }\n        }\n\n        // distribute jackpot among all winners. save time on the majority (1-winner) case\n        if (numWinners == 1) {\n            asyncSend(tileToOwner[lastWinningTileId], winnerJackpot);\n        } else {\n            for (i = minTileId; i <= maxTileId; i++) {\n                if (_calculatePriceComplement(i) == bestComplement) {\n                    asyncSend(tileToOwner[i], winnerJackpot.div(numWinners));\n                }\n            }\n        }\n\n        // distribute landholder things\n        for (i = minTileId; i <= maxTileId; i++) {\n            // NOTE: We don't exclude the jackpot winner(s) here, so the winner(s) is paid 'twice'\n            uint256 landholderAllocation = complements[i].mul(landholderJackpot).div(totalPriceComplement);\n\n            asyncSend(tileToOwner[i], landholderAllocation);\n        }\n    }\n\n    function _distributeTax(uint256 tax, address referrer) private {\n        jackpot = jackpot.add(_jackpotTax(tax));\n\n        _distributeLandholderTax(_totalLandholderTax(tax));\n        nextJackpot = nextJackpot.add(_nextPotTax(tax));\n\n        // NOTE: referrer tax comes out of dev team tax\n        bool hasReferrer = referrer != address(0);\n        _sendToTeam(_teamTax(tax, hasReferrer));\n        asyncSend(referrer, _referrerTax(tax, hasReferrer));\n    }\n\n    function _distributeLandholderTax(uint256 tax) private {\n        for (uint8 tile = minTileId; tile <= maxTileId; tile++) {\n            if (tileToOwner[tile] != address(0) && tileToPrice[tile] != 0) {\n                uint256 tilePrice = tileToPrice[tile];\n                uint256 allocation = tax.mul(tilePrice).div(totalTileValue);\n\n                asyncSend(tileToOwner[tile], allocation);\n            }\n        }\n    }\n}\n",
  "sourcePath": "/Users/lakshmansankar/src/microverse/eth/contracts/Microverse.sol",
  "compiler": {
    "name": "solc",
    "version": "0.4.24+commit.e67f0147.Emscripten.clang"
  },
  "schemaVersion": "2.0.1",
  "updatedAt": "2018-11-18T22:29:11.606Z"
}