{
  "contractName": "Microverse",
  "abi": [
    {
      "constant": true,
      "inputs": [],
      "name": "totalPayments",
      "outputs": [
        {
          "name": "",
          "type": "uint256"
        }
      ],
      "payable": false,
      "stateMutability": "view",
      "type": "function"
    },
    {
      "constant": true,
      "inputs": [],
      "name": "nextJackpot",
      "outputs": [
        {
          "name": "",
          "type": "uint256"
        }
      ],
      "payable": false,
      "stateMutability": "view",
      "type": "function"
    },
    {
      "constant": true,
      "inputs": [
        {
          "name": "jackpot",
          "type": "uint256"
        }
      ],
      "name": "_winnerJackpot",
      "outputs": [
        {
          "name": "",
          "type": "uint256"
        }
      ],
      "payable": false,
      "stateMutability": "pure",
      "type": "function"
    },
    {
      "constant": true,
      "inputs": [
        {
          "name": "tax",
          "type": "uint256"
        }
      ],
      "name": "_jackpotTax",
      "outputs": [
        {
          "name": "",
          "type": "uint256"
        }
      ],
      "payable": false,
      "stateMutability": "pure",
      "type": "function"
    },
    {
      "constant": true,
      "inputs": [],
      "name": "auctionDuration",
      "outputs": [
        {
          "name": "",
          "type": "uint256"
        }
      ],
      "payable": false,
      "stateMutability": "view",
      "type": "function"
    },
    {
      "constant": true,
      "inputs": [],
      "name": "startingRoundExtension",
      "outputs": [
        {
          "name": "",
          "type": "uint256"
        }
      ],
      "payable": false,
      "stateMutability": "view",
      "type": "function"
    },
    {
      "constant": true,
      "inputs": [],
      "name": "minTileId",
      "outputs": [
        {
          "name": "",
          "type": "uint8"
        }
      ],
      "payable": false,
      "stateMutability": "view",
      "type": "function"
    },
    {
      "constant": true,
      "inputs": [],
      "name": "totalTileValue",
      "outputs": [
        {
          "name": "",
          "type": "uint256"
        }
      ],
      "payable": false,
      "stateMutability": "view",
      "type": "function"
    },
    {
      "constant": true,
      "inputs": [
        {
          "name": "jackpot",
          "type": "uint256"
        }
      ],
      "name": "_nextPotJackpot",
      "outputs": [
        {
          "name": "",
          "type": "uint256"
        }
      ],
      "payable": false,
      "stateMutability": "pure",
      "type": "function"
    },
    {
      "constant": true,
      "inputs": [],
      "name": "startingAuctionPrice",
      "outputs": [
        {
          "name": "",
          "type": "uint256"
        }
      ],
      "payable": false,
      "stateMutability": "view",
      "type": "function"
    },
    {
      "constant": true,
      "inputs": [
        {
          "name": "tax",
          "type": "uint256"
        },
        {
          "name": "hasReferrer",
          "type": "bool"
        }
      ],
      "name": "_teamTax",
      "outputs": [
        {
          "name": "",
          "type": "uint256"
        }
      ],
      "payable": false,
      "stateMutability": "pure",
      "type": "function"
    },
    {
      "constant": true,
      "inputs": [],
      "name": "endingAuctionPrice",
      "outputs": [
        {
          "name": "",
          "type": "uint256"
        }
      ],
      "payable": false,
      "stateMutability": "view",
      "type": "function"
    },
    {
      "constant": true,
      "inputs": [],
      "name": "roundNumber",
      "outputs": [
        {
          "name": "",
          "type": "uint256"
        }
      ],
      "payable": false,
      "stateMutability": "view",
      "type": "function"
    },
    {
      "constant": true,
      "inputs": [],
      "name": "halvingVolume",
      "outputs": [
        {
          "name": "",
          "type": "uint256"
        }
      ],
      "payable": false,
      "stateMutability": "view",
      "type": "function"
    },
    {
      "constant": true,
      "inputs": [
        {
          "name": "",
          "type": "uint8"
        }
      ],
      "name": "tileToPrice",
      "outputs": [
        {
          "name": "",
          "type": "uint256"
        }
      ],
      "payable": false,
      "stateMutability": "view",
      "type": "function"
    },
    {
      "constant": true,
      "inputs": [
        {
          "name": "jackpot",
          "type": "uint256"
        }
      ],
      "name": "_landholderJackpot",
      "outputs": [
        {
          "name": "",
          "type": "uint256"
        }
      ],
      "payable": false,
      "stateMutability": "pure",
      "type": "function"
    },
    {
      "constant": false,
      "inputs": [],
      "name": "withdrawPayments",
      "outputs": [],
      "payable": false,
      "stateMutability": "nonpayable",
      "type": "function"
    },
    {
      "constant": true,
      "inputs": [
        {
          "name": "",
          "type": "uint8"
        }
      ],
      "name": "tileToOwner",
      "outputs": [
        {
          "name": "",
          "type": "address"
        }
      ],
      "payable": false,
      "stateMutability": "view",
      "type": "function"
    },
    {
      "constant": true,
      "inputs": [],
      "name": "jackpot",
      "outputs": [
        {
          "name": "",
          "type": "uint256"
        }
      ],
      "payable": false,
      "stateMutability": "view",
      "type": "function"
    },
    {
      "constant": true,
      "inputs": [
        {
          "name": "tax",
          "type": "uint256"
        }
      ],
      "name": "_totalLandholderTax",
      "outputs": [
        {
          "name": "",
          "type": "uint256"
        }
      ],
      "payable": false,
      "stateMutability": "pure",
      "type": "function"
    },
    {
      "constant": true,
      "inputs": [],
      "name": "numBoughtTiles",
      "outputs": [
        {
          "name": "",
          "type": "uint256"
        }
      ],
      "payable": false,
      "stateMutability": "view",
      "type": "function"
    },
    {
      "constant": true,
      "inputs": [
        {
          "name": "tax",
          "type": "uint256"
        }
      ],
      "name": "_nextPotTax",
      "outputs": [
        {
          "name": "",
          "type": "uint256"
        }
      ],
      "payable": false,
      "stateMutability": "pure",
      "type": "function"
    },
    {
      "constant": true,
      "inputs": [],
      "name": "teamAddress2",
      "outputs": [
        {
          "name": "",
          "type": "address"
        }
      ],
      "payable": false,
      "stateMutability": "view",
      "type": "function"
    },
    {
      "constant": true,
      "inputs": [],
      "name": "curExtensionVolume",
      "outputs": [
        {
          "name": "",
          "type": "uint256"
        }
      ],
      "payable": false,
      "stateMutability": "view",
      "type": "function"
    },
    {
      "constant": true,
      "inputs": [],
      "name": "owner",
      "outputs": [
        {
          "name": "",
          "type": "address"
        }
      ],
      "payable": false,
      "stateMutability": "view",
      "type": "function"
    },
    {
      "constant": true,
      "inputs": [
        {
          "name": "",
          "type": "uint8"
        },
        {
          "name": "",
          "type": "uint256"
        }
      ],
      "name": "tileToNeighbors",
      "outputs": [
        {
          "name": "",
          "type": "uint8"
        }
      ],
      "payable": false,
      "stateMutability": "view",
      "type": "function"
    },
    {
      "constant": true,
      "inputs": [
        {
          "name": "price",
          "type": "uint256"
        }
      ],
      "name": "_priceToTax",
      "outputs": [
        {
          "name": "",
          "type": "uint256"
        }
      ],
      "payable": false,
      "stateMutability": "pure",
      "type": "function"
    },
    {
      "constant": true,
      "inputs": [
        {
          "name": "tax",
          "type": "uint256"
        },
        {
          "name": "hasReferrer",
          "type": "bool"
        }
      ],
      "name": "_referrerTax",
      "outputs": [
        {
          "name": "",
          "type": "uint256"
        }
      ],
      "payable": false,
      "stateMutability": "pure",
      "type": "function"
    },
    {
      "constant": true,
      "inputs": [],
      "name": "nullNeighborValue",
      "outputs": [
        {
          "name": "",
          "type": "uint8"
        }
      ],
      "payable": false,
      "stateMutability": "view",
      "type": "function"
    },
    {
      "constant": true,
      "inputs": [],
      "name": "teamAddress1",
      "outputs": [
        {
          "name": "",
          "type": "address"
        }
      ],
      "payable": false,
      "stateMutability": "view",
      "type": "function"
    },
    {
      "constant": true,
      "inputs": [],
      "name": "stage",
      "outputs": [
        {
          "name": "",
          "type": "uint8"
        }
      ],
      "payable": false,
      "stateMutability": "view",
      "type": "function"
    },
    {
      "constant": true,
      "inputs": [],
      "name": "curRoundExtension",
      "outputs": [
        {
          "name": "",
          "type": "uint256"
        }
      ],
      "payable": false,
      "stateMutability": "view",
      "type": "function"
    },
    {
      "constant": true,
      "inputs": [],
      "name": "maxTileId",
      "outputs": [
        {
          "name": "",
          "type": "uint8"
        }
      ],
      "payable": false,
      "stateMutability": "view",
      "type": "function"
    },
    {
      "constant": true,
      "inputs": [],
      "name": "teamAddress3",
      "outputs": [
        {
          "name": "",
          "type": "address"
        }
      ],
      "payable": false,
      "stateMutability": "view",
      "type": "function"
    },
    {
      "constant": true,
      "inputs": [
        {
          "name": "jackpot",
          "type": "uint256"
        }
      ],
      "name": "_teamJackpot",
      "outputs": [
        {
          "name": "",
          "type": "uint256"
        }
      ],
      "payable": false,
      "stateMutability": "pure",
      "type": "function"
    },
    {
      "constant": true,
      "inputs": [],
      "name": "minRoundExtension",
      "outputs": [
        {
          "name": "",
          "type": "uint256"
        }
      ],
      "payable": false,
      "stateMutability": "view",
      "type": "function"
    },
    {
      "constant": true,
      "inputs": [
        {
          "name": "",
          "type": "address"
        }
      ],
      "name": "payments",
      "outputs": [
        {
          "name": "",
          "type": "uint256"
        }
      ],
      "payable": false,
      "stateMutability": "view",
      "type": "function"
    },
    {
      "constant": true,
      "inputs": [],
      "name": "roundEndTime",
      "outputs": [
        {
          "name": "",
          "type": "uint256"
        }
      ],
      "payable": false,
      "stateMutability": "view",
      "type": "function"
    },
    {
      "constant": true,
      "inputs": [],
      "name": "numTiles",
      "outputs": [
        {
          "name": "",
          "type": "uint8"
        }
      ],
      "payable": false,
      "stateMutability": "view",
      "type": "function"
    },
    {
      "constant": true,
      "inputs": [],
      "name": "auctionStartTime",
      "outputs": [
        {
          "name": "",
          "type": "uint256"
        }
      ],
      "payable": false,
      "stateMutability": "view",
      "type": "function"
    },
    {
      "constant": false,
      "inputs": [
        {
          "name": "newOwner",
          "type": "address"
        }
      ],
      "name": "transferOwnership",
      "outputs": [],
      "payable": false,
      "stateMutability": "nonpayable",
      "type": "function"
    },
    {
      "inputs": [
        {
          "name": "startingStage",
          "type": "uint256"
        }
      ],
      "payable": false,
      "stateMutability": "nonpayable",
      "type": "constructor"
    },
    {
      "anonymous": false,
      "inputs": [
        {
          "indexed": true,
          "name": "tileId",
          "type": "uint8"
        },
        {
          "indexed": true,
          "name": "oldOwner",
          "type": "address"
        },
        {
          "indexed": true,
          "name": "newOwner",
          "type": "address"
        },
        {
          "indexed": false,
          "name": "oldPrice",
          "type": "uint256"
        },
        {
          "indexed": false,
          "name": "newPrice",
          "type": "uint256"
        }
      ],
      "name": "TileOwnerChanged",
      "type": "event"
    },
    {
      "anonymous": false,
      "inputs": [
        {
          "indexed": false,
          "name": "startingAuctionPrice",
          "type": "uint256"
        },
        {
          "indexed": false,
          "name": "endingAuctionPrice",
          "type": "uint256"
        },
        {
          "indexed": false,
          "name": "auctionDuration",
          "type": "uint256"
        },
        {
          "indexed": false,
          "name": "startTime",
          "type": "uint256"
        }
      ],
      "name": "AuctionStarted",
      "type": "event"
    },
    {
      "anonymous": false,
      "inputs": [
        {
          "indexed": false,
          "name": "endTime",
          "type": "uint256"
        }
      ],
      "name": "AuctionEnded",
      "type": "event"
    },
    {
      "anonymous": false,
      "inputs": [
        {
          "indexed": true,
          "name": "tileId",
          "type": "uint8"
        },
        {
          "indexed": true,
          "name": "owner",
          "type": "address"
        },
        {
          "indexed": false,
          "name": "oldPrice",
          "type": "uint256"
        },
        {
          "indexed": false,
          "name": "newPrice",
          "type": "uint256"
        }
      ],
      "name": "TilePriceChanged",
      "type": "event"
    },
    {
      "anonymous": false,
      "inputs": [
        {
          "indexed": false,
          "name": "initJackpot",
          "type": "uint256"
        },
        {
          "indexed": false,
          "name": "endTime",
          "type": "uint256"
        },
        {
          "indexed": false,
          "name": "roundNumber",
          "type": "uint256"
        }
      ],
      "name": "GameRoundStarted",
      "type": "event"
    },
    {
      "anonymous": false,
      "inputs": [
        {
          "indexed": false,
          "name": "endTime",
          "type": "uint256"
        }
      ],
      "name": "GameRoundExtended",
      "type": "event"
    },
    {
      "anonymous": false,
      "inputs": [
        {
          "indexed": false,
          "name": "jackpot",
          "type": "uint256"
        }
      ],
      "name": "GameRoundEnded",
      "type": "event"
    },
    {
      "anonymous": false,
      "inputs": [
        {
          "indexed": true,
          "name": "previousOwner",
          "type": "address"
        },
        {
          "indexed": true,
          "name": "newOwner",
          "type": "address"
        }
      ],
      "name": "OwnershipTransferred",
      "type": "event"
    },
    {
      "constant": false,
      "inputs": [
        {
          "name": "tileId",
          "type": "uint8"
        },
        {
          "name": "newPrice",
          "type": "uint256"
        },
        {
          "name": "referrer",
          "type": "address"
        }
      ],
      "name": "buyTileAuction",
      "outputs": [],
      "payable": true,
      "stateMutability": "payable",
      "type": "function"
    },
    {
      "constant": true,
      "inputs": [],
      "name": "getTilePriceAuction",
      "outputs": [
        {
          "name": "",
          "type": "uint256"
        }
      ],
      "payable": false,
      "stateMutability": "view",
      "type": "function"
    },
    {
      "constant": true,
      "inputs": [],
      "name": "roundTimeRemaining",
      "outputs": [
        {
          "name": "",
          "type": "uint256"
        }
      ],
      "payable": false,
      "stateMutability": "view",
      "type": "function"
    },
    {
      "constant": false,
      "inputs": [],
      "name": "endGameRound",
      "outputs": [],
      "payable": false,
      "stateMutability": "nonpayable",
      "type": "function"
    },
    {
      "constant": false,
      "inputs": [
        {
          "name": "tileId",
          "type": "uint8"
        },
        {
          "name": "newPrice",
          "type": "uint256"
        },
        {
          "name": "referrer",
          "type": "address"
        }
      ],
      "name": "setTilePrice",
      "outputs": [],
      "payable": true,
      "stateMutability": "payable",
      "type": "function"
    },
    {
      "constant": false,
      "inputs": [
        {
          "name": "tileId",
          "type": "uint8"
        },
        {
          "name": "newPrice",
          "type": "uint256"
        },
        {
          "name": "referrer",
          "type": "address"
        }
      ],
      "name": "buyTile",
      "outputs": [],
      "payable": true,
      "stateMutability": "payable",
      "type": "function"
    }
  ],
  "bytecode": "0x60806040526003805460a060020a60ff021916905560078054600160a060020a031990811673cb46219ba114245c3a18761e4f7891f9c4bef8c01790915560088054821673f2afb5c2d205b36f22be528a1300393b1c399e79179055600980549091167322fc59b3878f0aa2e43f7f3388c1e20d83cf8ba21790556000600c553480156200008c57600080fd5b5060405160208062001f3d833981016040525160038054600160a060020a031916331790556001811415620000fb576003805460a060020a60ff02191674010000000000000000000000000000000000000000179055620000f564010000000062000115810204565b6200010e565b6200010e640100000000620001a7810204565b50620002b2565b6000600d81905561a8c0600e556011805460105555600c5462000148906001640100000000620017196200020b82021704565b600c556200015e64010000000062000225810204565b601054600f54600c5460408051938452602084019290925282820152517f8dbc109f2b860f13cb31cb0e968bcd6324ad443f6cc2853fdf3ca82904a8a0089181900360600190a1565b42600b8190556000600a5560408051670de0b6b3a7640000815266b1a2bc2ec50000602082015262069780818301526060810192909252517fa832766a05f1bd0298b0268308621777cfe1e4eea23afe7c06beea79bc6ddd2d9181900360800190a1565b6000828201838110156200021e57600080fd5b9392505050565b600e54620002609062000248904290640100000000620017196200020b82021704565b600f549064010000000062001bd36200029982021704565b600f81905560408051918252517fe3663e221e6fb10518d40e9d9a20cd6f59853232fbfebc7de3821ed0c8fb36d29181900360200190a1565b600081831015620002ab57816200021e565b5090919050565b611c7b80620002c26000396000f3006080604052600436106102395763ffffffff7c01000000000000000000000000000000000000000000000000000000006000350416625b4487811461023e57806303fca0611461026557806306e429621461027a5780630a6f5d8e146102925780630cbf54c8146102aa5780630e51574f146102bf5780630eb51c9c146102d65780631ccff716146102eb57806320178db3146103165780633459d2ba1461032b578063391f3b2d146103405780633ebf2508146103585780633f4acbe81461036d5780633fecde211461038a57806349087bcc146103a75780634e2786fb146103bc57806351b472b9146103d15780635b98f169146103e65780635f99c1b2146102925780636103d70b1461040157806366cd442a1461041657806369008fb61461044d5780636b31ee011461046a5780636b433ccf1461047f57806371566c23146104975780637e9de0bc146104ac57806384db8d1e14610340578063861a588e146104c95780638771fc4a146104de5780638da5cb5b146104f3578063925183cd146105085780639798532f14610526578063a93b1a651461053e578063aca21a1e1461055b578063ad2daa4814610570578063b6bb354b14610585578063c040e6b81461059a578063c2539429146105d3578063c9e87f31146105e8578063cce43964146105fd578063cf69341814610340578063de8d77e714610612578063e2982c2114610627578063e40205d614610648578063e9360a36146105e8578063eb54f9ec1461065d578063f2fde38b14610672575b600080fd5b34801561024a57600080fd5b50610253610693565b60408051918252519081900360200190f35b34801561027157600080fd5b50610253610699565b34801561028657600080fd5b5061025360043561069f565b34801561029e57600080fd5b506102536004356106b8565b3480156102b657600080fd5b506102536106dc565b3480156102cb57600080fd5b506102d46106e3565b005b3480156102e257600080fd5b506102536107fb565b3480156102f757600080fd5b50610300610801565b6040805160ff9092168252519081900360200190f35b34801561032257600080fd5b50610253610806565b34801561033757600080fd5b5061025361080c565b34801561034c57600080fd5b5061025360043561091c565b34801561036457600080fd5b5061025361092f565b34801561037957600080fd5b50610253600435602435151561093b565b6102d460ff60043516602435600160a060020a0360443516610976565b3480156103b357600080fd5b50610253610bde565b3480156103c857600080fd5b50610253610be9565b3480156103dd57600080fd5b50610253610bef565b3480156103f257600080fd5b5061025360ff60043516610bfc565b34801561040d57600080fd5b506102d4610c0e565b34801561042257600080fd5b5061043160ff60043516610c97565b60408051600160a060020a039092168252519081900360200190f35b6102d460ff60043516602435600160a060020a0360443516610cb2565b34801561047657600080fd5b50610253610f36565b34801561048b57600080fd5b50610253600435610f3c565b3480156104a357600080fd5b50610253610f54565b6102d460ff60043516602435600160a060020a0360443516610f5a565b3480156104d557600080fd5b5061043161122c565b3480156104ea57600080fd5b5061025361123b565b3480156104ff57600080fd5b50610431611241565b34801561051457600080fd5b5061030060ff60043516602435611250565b34801561053257600080fd5b50610253600435611288565b34801561054a57600080fd5b50610253600435602435151561129b565b34801561056757600080fd5b506103006112bc565b34801561057c57600080fd5b506102536112c1565b34801561059157600080fd5b50610431611365565b3480156105a657600080fd5b506105af611374565b604051808260018111156105bf57fe5b60ff16815260200191505060405180910390f35b3480156105df57600080fd5b50610253611384565b3480156105f457600080fd5b5061030061138a565b34801561060957600080fd5b5061043161138f565b34801561061e57600080fd5b5061025361139e565b34801561063357600080fd5b50610253600160a060020a03600435166113a3565b34801561065457600080fd5b506102536113b5565b34801561066957600080fd5b506102536113bb565b34801561067e57600080fd5b506102d4600160a060020a03600435166113c1565b60025481565b60115481565b60006106b282600263ffffffff61145616565b92915050565b60006106b260056106d084600263ffffffff61147e16565b9063ffffffff61145616565b6206978081565b60018060035460a060020a900460ff1660018111156106fe57fe5b14610755576040805160e560020a62461bcd0281526020600482015260276024820152600080516020611c108339815191526044820152600080516020611c30833981519152606482015290519081900360840190fd5b61075d6114b3565b15156107b3576040805160e560020a62461bcd02815260206004820152601360248201527f526f756e64206d757374206265206f7665722100000000000000000000000000604482015290519081900360640190fd5b6107bb6114bc565b60105460408051918252517f3cf3fa68b629d58f07a4aab1808a70df09365f335635faa68ce0478aee6d8abc9181900360200190a16107f861151a565b50565b61a8c081565b600181565b60065481565b6000808080808060035460a060020a900460ff16600181111561082b57fe5b14610882576040805160e560020a62461bcd0281526020600482015260276024820152600080516020611c108339815191526044820152600080516020611c30833981519152606482015290519081900360840190fd5b60009350600b544211156108a757600b546108a490429063ffffffff61159716565b93505b6206978084106108c05766b1a2bc2ec500009450610915565b6108df670de0b6b3a764000066b1a2bc2ec5000063ffffffff61159716565b92506108f8620697806106d0858763ffffffff61147e16565b9150610912670de0b6b3a76400008363ffffffff61159716565b94505b5050505090565b60006106b282601463ffffffff61145616565b670de0b6b3a764000081565b600081156109605761095960196106d085600363ffffffff61147e16565b90506106b2565b61095960646106d085601163ffffffff61147e16565b60008060018060035460a060020a900460ff16600181111561099457fe5b146109eb576040805160e560020a62461bcd0281526020600482015260276024820152600080516020611c108339815191526044820152600080516020611c30833981519152606482015290519081900360840190fd5b6109f36114b3565b15610a48576040805160e560020a62461bcd02815260206004820152601460248201527f526f756e642063616e2774206265206f76657221000000000000000000000000604482015290519081900360640190fd5b60ff8616600090815260046020526040902054600160a060020a03163314610ae0576040805160e560020a62461bcd02815260206004820152602e60248201527f43616e2774207365742074696c6520707269636520666f7220612074696c652060448201527f796f7520646f6e2774206f776e21000000000000000000000000000000000000606482015290519081900360840190fd5b610ae985611288565b925034831115610b43576040805160e560020a62461bcd02815260206004820152601f60248201527f4d7573742070617920746178206f6e206e65772074696c652070726963652100604482015290519081900360640190fd5b60ff86166000908152600560205260409020549150610b6234856115ae565b610b6c868661161b565b610b74611660565b610b7d346116c0565b60ff86166000818152600460209081526040918290205482518681529182018990528251600160a060020a0390911693927f6c8ddfd61cb90c6918b2dfdf677c44fc270fcb4b7dfa22b0665fbd1976832fca928290030190a3505050505050565b66b1a2bc2ec5000081565b600c5481565b6802b5e3af16b188000081565b60056020526000908152604090205481565b33600081815260016020526040902054801515610c2a57600080fd5b3031811115610c3857600080fd5b600254610c4b908263ffffffff61159716565b600255600160a060020a0382166000818152600160205260408082208290555183156108fc0291849190818181858888f19350505050158015610c92573d6000803e3d6000fd5b505050565b600460205260009081526040902054600160a060020a031681565b600080808060035460a060020a900460ff166001811115610ccf57fe5b14610d26576040805160e560020a62461bcd0281526020600482015260276024820152600080516020611c108339815191526044820152600080516020611c30833981519152606482015290519081900360840190fd5b60ff8616600090815260046020526040902054600160a060020a0316158015610d5f575060ff8616600090815260056020526040902054155b1515610ddb576040805160e560020a62461bcd02815260206004820152603260248201527f43616e27742062757920612074696c652074686174277320616c72656164792060448201527f6265656e2061756374696f6e6564206f66660000000000000000000000000000606482015290519081900360840190fd5b610de485611288565b9250610dee61080c565b9150610e00838363ffffffff61171916565b341015610e7d576040805160e560020a62461bcd02815260206004820152603560248201527f4d75737420706179207468652066756c6c20707269636520616e64207461782060448201527f666f7220612074696c65206f6e2061756374696f6e0000000000000000000000606482015290519081900360840190fd5b610e87348561172b565b60ff86166000908152600460205260409020805473ffffffffffffffffffffffffffffffffffffffff191633179055610ec0868661161b565b600a54610ed490600163ffffffff61171916565b600a5560408051838152602081018790528151339260009260ff8b16927f7a60be58ea0cf4cbccda877e1d59dc979442a2a3cc294136d1b7a325e366f34d929181900390910190a4600a54601311610f2e57610f2e611796565b505050505050565b60105481565b60006106b260326106d084601363ffffffff61147e16565b600a5481565b600080808060018060035460a060020a900460ff166001811115610f7a57fe5b14610fd1576040805160e560020a62461bcd0281526020600482015260276024820152600080516020611c108339815191526044820152600080516020611c30833981519152606482015290519081900360840190fd5b610fd96114b3565b1561102e576040805160e560020a62461bcd02815260206004820152601460248201527f526f756e642063616e2774206265206f76657221000000000000000000000000604482015290519081900360640190fd5b60ff8816600090815260046020526040902054600160a060020a03169450338514156110a4576040805160e560020a62461bcd02815260206004820181905260248201527f43616e27742062757920612074696c6520796f7520616c7265616479206f776e604482015290519081900360640190fd5b6110ad87611288565b60ff891660009081526005602052604090205490945092506110d5848463ffffffff61171916565b341015611151576040805160e560020a62461bcd028152602060048201526024808201527f4d757374207061792066756c6c20707269636520616e642074617820666f722060448201527f74696c6500000000000000000000000000000000000000000000000000000000606482015290519081900360840190fd5b60ff881660009081526005602052604090205461116f908690611878565b60ff88166000908152600460205260409020805473ffffffffffffffffffffffffffffffffffffffff1916331790556111ae348463ffffffff61159716565b91506111ba82876115ae565b6111c4888861161b565b6111cc611660565b6111d5346116c0565b604080518481526020810189905281513392600160a060020a0389169260ff8d16927f7a60be58ea0cf4cbccda877e1d59dc979442a2a3cc294136d1b7a325e366f34d929181900390910190a45050505050505050565b600854600160a060020a031681565b600d5481565b600354600160a060020a031681565b60006020528160005260406000208160068110151561126b57fe5b602081049091015460ff601f9092166101000a9004169150829050565b60006106b282600a63ffffffff61145616565b600081156112b45761095983601463ffffffff61145616565b5060006106b2565b600081565b600060018060035460a060020a900460ff1660018111156112de57fe5b14611335576040805160e560020a62461bcd0281526020600482015260276024820152600080516020611c108339815191526044820152600080516020611c30833981519152606482015290519081900360840190fd5b61133d6114b3565b1561134b5760009150611361565b600f5461135e904263ffffffff61159716565b91505b5090565b600754600160a060020a031681565b60035460a060020a900460ff1681565b600e5481565b601381565b600954600160a060020a031681565b600a81565b60016020526000908152604090205481565b600f5481565b600b5481565b600354600160a060020a031633146113d857600080fd5b600160a060020a03811615156113ed57600080fd5b600354604051600160a060020a038084169216907f8be0079c531659141344cd1fd0a4f28419497f9722a3daafe3b4186f6b6457e090600090a36003805473ffffffffffffffffffffffffffffffffffffffff1916600160a060020a0392909216919091179055565b60008080831161146557600080fd5b828481151561147057fe5b0490508091505b5092915050565b6000808315156114915760009150611477565b508282028284828115156114a157fe5b04146114ac57600080fd5b9392505050565b600f5442101590565b6000806114ca60105461069f565b91506114d76010546106b8565b90506114e382826118d4565b6114f66114f160105461091c565b611ac5565b61151361150460105461091c565b6011549063ffffffff61171916565b6011555050565b6000600d81905561a8c0600e556011805460105555600c5461154390600163ffffffff61171916565b600c5561154e611660565b601054600f54600c5460408051938452602084019290925282820152517f8dbc109f2b860f13cb31cb0e968bcd6324ad443f6cc2853fdf3ca82904a8a0089181900360600190a1565b600080838311156115a757600080fd5b5050900390565b60006115cb6115bc846106b8565b6010549063ffffffff61171916565b6010556115df6115da84610f3c565b611b21565b6115eb6115048461091c565b60115550600160a060020a03811615156116086114f1848361093b565b610c9282611616858461129b565b611878565b60ff8216600090815260056020526040902080549082905560065461165890839061164c908463ffffffff61159716565b9063ffffffff61171916565b600655505050565b611687611678600e544261171990919063ffffffff16565b600f549063ffffffff611bd316565b600f81905560408051918252517fe3663e221e6fb10518d40e9d9a20cd6f59853232fbfebc7de3821ed0c8fb36d29181900360200190a1565b600d546116d3908263ffffffff61171916565b600d8190556802b5e3af16b1880000116107f85761170e600a6117026002600e5461145690919063ffffffff16565b9063ffffffff611bd316565b600e556000600d5550565b6000828201838110156114ac57600080fd5b60008061173a6115da85610f3c565b61174f6117468561091c565b61164c866106b8565b601154909250611765908363ffffffff61171916565b60115550600160a060020a03821615156117826114f1858361093b565b61179083611616868461129b565b50505050565b600a5460131115611817576040805160e560020a62461bcd02815260206004820152602760248201527f43616e277420656e642061756374696f6e2069662061726520756e626f75676860448201527f742074696c657300000000000000000000000000000000000000000000000000606482015290519081900360840190fd5b6003805474ff0000000000000000000000000000000000000000191660a060020a17905561184361151a565b6040805142815290517f45806e512b1f4f10e33e8b3cb64d1d11d998d8c554a95e0841fc1c701278bd5d9181900360200190a1565b600160a060020a0382166000908152600160205260409020546118a1908263ffffffff61171916565b600160a060020a0383166000908152600160205260409020556002546118cd908263ffffffff61171916565b6002555050565b6040805160148082526102a08201909252606091600091829182918291829182918291906020820161028080388339019050509750600096506000955060009450600193505b601360ff8516116119815761192e84611bea565b925085158061193c57508583115b15611948578295508394505b82888560ff1681518110151561195a57fe5b60209081029091010152611974878463ffffffff61171916565b965060019093019261191a565b60009150600193505b601360ff8516116119b7578561199f85611bea565b14156119ac576001909101905b60019093019261198a565b81600114156119eb5760ff85166000908152600460205260409020546119e690600160a060020a03168b611878565b611a46565b600193505b601360ff851611611a465785611a0585611bea565b1415611a3b5760ff8416600090815260046020526040902054611a3b90600160a060020a03166116168c8563ffffffff61145616565b6001909301926119f0565b600193505b601360ff851611611ab957611a85876106d08b8b8860ff16815181101515611a6f57fe5b602090810290910101519063ffffffff61147e16565b60ff8516600090815260046020526040902054909150611aae90600160a060020a031682611878565b600190930192611a4b565b50505050505050505050565b6000611ad882600363ffffffff61145616565b600754909150611af190600160a060020a031682611878565b600854611b0790600160a060020a031682611878565b600954611b1d90600160a060020a031682611878565b5050565b60016000805b601360ff8416116117905760ff8316600090815260046020526040902054600160a060020a031615801590611b6d575060ff831660009081526005602052604090205415155b15611bc85760ff8316600090815260056020526040902054600654909250611b9f906106d0868563ffffffff61147e16565b60ff8416600090815260046020526040902054909150611bc890600160a060020a031682611878565b600190920191611b27565b600081831015611be357816114ac565b5090919050565b60ff81166000908152600560205260408120546006546106b29163ffffffff61159716560046756e6374696f6e2063616e6e6f742062652063616c6c656420617420746869732074696d652e00000000000000000000000000000000000000000000000000a165627a7a72305820d5b6c6843388ed485a0c21dacda02649fac6f203a245b6807d07afa49cd993cf0029",
  "source": "pragma solidity ^0.4.22;\n\n// Zeppelin libs\nimport \"./Math.sol\";\nimport \"./Ownable.sol\";\nimport \"./PullPayment.sol\";\nimport \"./SafeMath.sol\";\n\n// Microverse libs\nimport \"./HexBoard3.sol\";\nimport \"./JackpotRules.sol\";\nimport \"./TaxRules.sol\";\n\ncontract Microverse is\n    HexBoard3,\n    PullPayment,\n    Ownable,\n    TaxRules,\n    JackpotRules {\n    using SafeMath for uint256;\n    using Math for uint256;\n\n    // states this contract progresses through\n    enum Stage {\n        DutchAuction,\n        GameRounds\n    }\n    Stage public stage = Stage.DutchAuction;\n\n    modifier atStage(Stage _stage) {\n        require(\n            stage == _stage,\n            \"Function cannot be called at this time.\"\n        );\n        _;\n    }\n\n    // NOTE: stage arg for debugging purposes only! Should just be set to 0 by default\n    constructor(uint startingStage) public {\n        if (startingStage == uint(Stage.GameRounds)) {\n            stage = Stage.GameRounds;\n            _startGameRound();\n        } else {\n            _startAuction();\n        }\n    }\n\n    mapping(uint8 => address) public tileToOwner;\n    mapping(uint8 => uint256) public tileToPrice;\n    uint256 public totalTileValue;\n\n    function _changeTilePrice(uint8 tileId, uint256 newPrice) private {\n        uint256 oldPrice = tileToPrice[tileId];\n        tileToPrice[tileId] = newPrice;\n        totalTileValue = (totalTileValue.sub(oldPrice)).add(newPrice);\n    }\n\n    event TileOwnerChanged(\n        uint8 indexed tileId,\n        address indexed oldOwner,\n        address indexed newOwner,\n        uint256 oldPrice,\n        uint256 newPrice\n    );\n\n    /////////////\n    // Team stuff\n    /////////////\n\n    // The muscle behind microverse\n    address public teamAddress1 = 0xcB46219bA114245c3A18761E4f7891f9C4BeF8c0;\n    address public teamAddress2 = 0xF2AFb5c2D205B36F22BE528A1300393B1C399E79;\n    address public teamAddress3 = 0x22FC59B3878F0Aa2e43F7f3388c1e20D83Cf8ba2;\n\n    function _sendToTeam(uint256 amount) private {\n        uint256 perTeamMemberFee = amount.div(3);\n\n        asyncSend(teamAddress1, perTeamMemberFee);\n        asyncSend(teamAddress2, perTeamMemberFee);\n        asyncSend(teamAddress3, perTeamMemberFee);\n    }\n\n    //////////\n    // Auction\n    //////////\n\n    event AuctionStarted(\n        uint256 startingAuctionPrice,\n        uint256 endingAuctionPrice,\n        uint256 auctionDuration,\n        uint256 startTime\n    );\n\n    event AuctionEnded(\n        uint256 endTime\n    );\n\n    uint256 constant public startingAuctionPrice = 1 ether;\n    uint256 constant public endingAuctionPrice = 0.05 ether;\n    uint256 constant public auctionDuration = 5 days; // period over which land price decreases linearly\n\n    uint256 public numBoughtTiles;\n    uint256 public auctionStartTime;\n\n    function buyTileAuction(uint8 tileId, uint256 newPrice, address referrer) public payable atStage(Stage.DutchAuction) {\n        require(\n            tileToOwner[tileId] == address(0) && tileToPrice[tileId] == 0,\n            \"Can't buy a tile that's already been auctioned off\"\n        );\n\n        uint256 tax = _priceToTax(newPrice);\n        uint256 price = getTilePriceAuction();\n\n        require(\n            msg.value >= tax.add(price),\n            \"Must pay the full price and tax for a tile on auction\"\n        );\n\n        // NOTE: *entire* payment distributed as Game taxes\n        _distributeAuctionTax(msg.value, referrer);\n\n        tileToOwner[tileId] = msg.sender;\n        _changeTilePrice(tileId, newPrice);\n\n        numBoughtTiles = numBoughtTiles.add(1);\n\n        emit TileOwnerChanged(tileId, address(0), msg.sender, price, newPrice);\n\n        if (numBoughtTiles >= numTiles) {\n            endAuction();\n        }\n    }\n\n    // NOTE: Some common logic with _distributeTax\n    function _distributeAuctionTax(uint256 tax, address referrer) private {\n        _distributeLandholderTax(_totalLandholderTax(tax));\n\n        // NOTE: Because no notion of 'current jackpot', everything added to next pot\n        uint256 totalJackpotTax = _jackpotTax(tax).add(_nextPotTax(tax));\n        nextJackpot = nextJackpot.add(totalJackpotTax);\n\n        // NOTE: referrer tax comes out of dev team tax\n        bool hasReferrer = referrer != address(0);\n        _sendToTeam(_teamTax(tax, hasReferrer));\n        asyncSend(referrer, _referrerTax(tax, hasReferrer));\n    }\n\n    function getTilePriceAuction() public view atStage(Stage.DutchAuction) returns (uint256) {\n        uint256 secondsPassed = 0;\n\n        // This should always be the case...\n        if (now > auctionStartTime) {\n            secondsPassed = now.sub(auctionStartTime);\n        }\n\n        if (secondsPassed >= auctionDuration) {\n            return endingAuctionPrice;\n        } else {\n            uint256 maxPriceDelta = startingAuctionPrice.sub(endingAuctionPrice);\n            uint256 actualPriceDelta = (maxPriceDelta.mul(secondsPassed)).div(auctionDuration);\n\n            return startingAuctionPrice.sub(actualPriceDelta);\n        }\n    }\n\n    function endAuction() private {\n        require(\n            numBoughtTiles >= numTiles,\n            \"Can't end auction if are unbought tiles\"\n        );\n\n        stage = Stage.GameRounds;\n        _startGameRound();\n\n        emit AuctionEnded(now);\n    }\n\n    function _startAuction() private {\n        auctionStartTime = now;\n        numBoughtTiles = 0;\n\n        emit AuctionStarted(startingAuctionPrice,\n                            endingAuctionPrice,\n                            auctionDuration,\n                            auctionStartTime);\n    }\n\n    ///////\n    // Game\n    ///////\n\n    uint256 constant public startingRoundExtension = 12 hours;\n    uint256 constant public halvingVolume = 50 ether; // tx volume before next duration halving\n    uint256 constant public minRoundExtension = 10 seconds; // could set to 1 second\n\n    uint256 public roundNumber = 0;\n\n    uint256 public curExtensionVolume;\n    uint256 public curRoundExtension;\n\n    uint256 public roundEndTime;\n\n    uint256 public jackpot;\n    uint256 public nextJackpot;\n\n    // Only emitted if owner doesn't *also* change\n    event TilePriceChanged(\n        uint8 indexed tileId,\n        address indexed owner,\n        uint256 oldPrice,\n        uint256 newPrice\n    );\n\n    event GameRoundStarted(\n        uint256 initJackpot,\n        uint256 endTime,\n        uint256 roundNumber\n    );\n\n    event GameRoundExtended(\n        uint256 endTime\n    );\n\n    event GameRoundEnded(\n        uint256 jackpot\n    );\n\n    ////////////////////////////////////\n    // [Game] Round extension management\n    ////////////////////////////////////\n\n    function roundTimeRemaining() public view atStage(Stage.GameRounds) returns (uint256)  {\n        if (_roundOver()) {\n            return 0;\n        } else {\n            return roundEndTime.sub(now);\n        }\n    }\n\n    function _extendRound() private {\n        roundEndTime = roundEndTime.max(now.add(curRoundExtension));\n\n        emit GameRoundExtended(roundEndTime);\n    }\n\n    function _startGameRound() private {\n        curExtensionVolume = 0 ether;\n        curRoundExtension = startingRoundExtension;\n\n        jackpot = nextJackpot;\n        nextJackpot = 0;\n\n        roundNumber = roundNumber.add(1);\n\n        _extendRound();\n\n        emit GameRoundStarted(jackpot, roundEndTime, roundNumber);\n    }\n\n    function _roundOver() private view returns (bool) {\n        return now >= roundEndTime;\n    }\n\n    modifier duringRound() {\n        require(\n            !_roundOver(),\n            \"Round can't be over!\"\n        );\n        _;\n    }\n\n    // NOTE: Must be called for all volume we want to count towards round extension halving\n    function _logRoundExtensionVolume(uint256 amount) private {\n        curExtensionVolume = curExtensionVolume.add(amount);\n\n        if (curExtensionVolume >= halvingVolume) {\n            curRoundExtension = curRoundExtension.div(2).max(minRoundExtension);\n            curExtensionVolume = 0 ether;\n        }\n    }\n\n    ////////////////////////\n    // [Game] Player actions\n    ////////////////////////\n\n    function endGameRound() public atStage(Stage.GameRounds) {\n        require(\n            _roundOver(),\n            \"Round must be over!\"\n        );\n\n        _distributeJackpot();\n\n        emit GameRoundEnded(jackpot);\n\n        _startGameRound();\n    }\n\n    function setTilePrice(uint8 tileId, uint256 newPrice, address referrer)\n        public\n        payable\n        atStage(Stage.GameRounds)\n        duringRound {\n        require(\n            tileToOwner[tileId] == msg.sender,\n            \"Can't set tile price for a tile you don't own!\"\n        );\n\n        uint256 tax = _priceToTax(newPrice);\n\n        require(\n            msg.value >= tax,\n            \"Must pay tax on new tile price!\"\n        );\n\n        uint256 oldPrice = tileToPrice[tileId];\n        _distributeTax(msg.value, referrer);\n        _changeTilePrice(tileId, newPrice);\n\n        // NOTE: Currently we extend round for 'every' tile price change. Alternatively could do only on\n        // increases or decreases or changes exceeding some magnitude\n        _extendRound();\n        _logRoundExtensionVolume(msg.value);\n\n        emit TilePriceChanged(tileId, tileToOwner[tileId], oldPrice, newPrice);\n    }\n\n    function buyTile(uint8 tileId, uint256 newPrice, address referrer)\n        public\n        payable\n        atStage(Stage.GameRounds)\n        duringRound {\n        address oldOwner = tileToOwner[tileId];\n        require(\n            oldOwner != msg.sender,\n            \"Can't buy a tile you already own\"\n        );\n\n        uint256 tax = _priceToTax(newPrice);\n\n        uint256 oldPrice = tileToPrice[tileId];\n        require(\n            msg.value >= tax.add(oldPrice),\n            \"Must pay full price and tax for tile\"\n        );\n\n        // pay seller\n        asyncSend(oldOwner, tileToPrice[tileId]);\n        tileToOwner[tileId] = msg.sender;\n\n        uint256 actualTax = msg.value.sub(oldPrice);\n        _distributeTax(actualTax, referrer);\n\n        _changeTilePrice(tileId, newPrice);\n        _extendRound();\n        _logRoundExtensionVolume(msg.value);\n\n        emit TileOwnerChanged(tileId, oldOwner, msg.sender, oldPrice, newPrice);\n    }\n\n    ///////////////////////////////////////\n    // [Game] Dividend/jackpot distribution\n    ///////////////////////////////////////\n\n    function _distributeJackpot() private {\n        uint256 winnerJackpot = _winnerJackpot(jackpot);\n        uint256 landholderJackpot = _landholderJackpot(jackpot);\n        _distributeWinnerAndLandholderJackpot(winnerJackpot, landholderJackpot);\n\n        _sendToTeam(_teamJackpot(jackpot));\n        nextJackpot = nextJackpot.add(_nextPotJackpot(jackpot));\n    }\n\n    function _calculatePriceComplement(uint8 tileId) private view returns (uint256) {\n        return totalTileValue.sub(tileToPrice[tileId]);\n    }\n\n    // NOTE: These are bundled together so that we only have to compute complements once\n    function _distributeWinnerAndLandholderJackpot(uint256 winnerJackpot, uint256 landholderJackpot) private {\n        uint256[] memory complements = new uint256[](numTiles + 1); // inc necessary b/c tiles are 1-indexed\n        uint256 totalPriceComplement = 0;\n\n        uint256 bestComplement = 0;\n        uint8 lastWinningTileId = 0;\n        for (uint8 i = minTileId; i <= maxTileId; i++) {\n            uint256 priceComplement = _calculatePriceComplement(i);\n\n            // update winner\n            if (bestComplement == 0 || priceComplement > bestComplement) {\n                bestComplement = priceComplement;\n                lastWinningTileId = i;\n            }\n\n            complements[i] = priceComplement;\n            totalPriceComplement = totalPriceComplement.add(priceComplement);\n        }\n        uint256 numWinners = 0;\n        for (i = minTileId; i <= maxTileId; i++) {\n            if (_calculatePriceComplement(i) == bestComplement) {\n                numWinners++;\n            }\n        }\n\n        // distribute jackpot among all winners. save time on the majority (1-winner) case\n        if (numWinners == 1) {\n            asyncSend(tileToOwner[lastWinningTileId], winnerJackpot);\n        } else {\n            for (i = minTileId; i <= maxTileId; i++) {\n                if (_calculatePriceComplement(i) == bestComplement) {\n                    asyncSend(tileToOwner[i], winnerJackpot.div(numWinners));\n                }\n            }\n        }\n\n        // distribute landholder things\n        for (i = minTileId; i <= maxTileId; i++) {\n            // NOTE: We don't exclude the jackpot winner(s) here, so the winner(s) is paid 'twice'\n            uint256 landholderAllocation = complements[i].mul(landholderJackpot).div(totalPriceComplement);\n\n            asyncSend(tileToOwner[i], landholderAllocation);\n        }\n    }\n\n    function _distributeTax(uint256 tax, address referrer) private {\n        jackpot = jackpot.add(_jackpotTax(tax));\n\n        _distributeLandholderTax(_totalLandholderTax(tax));\n        nextJackpot = nextJackpot.add(_nextPotTax(tax));\n\n        // NOTE: referrer tax comes out of dev team tax\n        bool hasReferrer = referrer != address(0);\n        _sendToTeam(_teamTax(tax, hasReferrer));\n        asyncSend(referrer, _referrerTax(tax, hasReferrer));\n    }\n\n    function _distributeLandholderTax(uint256 tax) private {\n        for (uint8 tile = minTileId; tile <= maxTileId; tile++) {\n            if (tileToOwner[tile] != address(0) && tileToPrice[tile] != 0) {\n                uint256 tilePrice = tileToPrice[tile];\n                uint256 allocation = tax.mul(tilePrice).div(totalTileValue);\n\n                asyncSend(tileToOwner[tile], allocation);\n            }\n        }\n    }\n}\n",
  "sourcePath": "/Users/lakshmansankar/src/microverse/eth/contracts/Microverse.sol",
  "compiler": {
    "name": "solc",
    "version": "0.4.24+commit.e67f0147.Emscripten.clang"
  },
  "schemaVersion": "2.0.1",
  "updatedAt": "2018-11-19T03:28:41.902Z"
}