{
  "contractName": "Microverse",
  "abi": [
    {
      "constant": true,
      "inputs": [],
      "name": "totalPayments",
      "outputs": [
        {
          "name": "",
          "type": "uint256"
        }
      ],
      "payable": false,
      "stateMutability": "view",
      "type": "function"
    },
    {
      "constant": true,
      "inputs": [],
      "name": "nextJackpot",
      "outputs": [
        {
          "name": "",
          "type": "uint256"
        }
      ],
      "payable": false,
      "stateMutability": "view",
      "type": "function"
    },
    {
      "constant": true,
      "inputs": [
        {
          "name": "jackpot",
          "type": "uint256"
        }
      ],
      "name": "_winnerJackpot",
      "outputs": [
        {
          "name": "",
          "type": "uint256"
        }
      ],
      "payable": false,
      "stateMutability": "pure",
      "type": "function"
    },
    {
      "constant": true,
      "inputs": [
        {
          "name": "tax",
          "type": "uint256"
        }
      ],
      "name": "_jackpotTax",
      "outputs": [
        {
          "name": "",
          "type": "uint256"
        }
      ],
      "payable": false,
      "stateMutability": "pure",
      "type": "function"
    },
    {
      "constant": true,
      "inputs": [],
      "name": "auctionDuration",
      "outputs": [
        {
          "name": "",
          "type": "uint256"
        }
      ],
      "payable": false,
      "stateMutability": "view",
      "type": "function"
    },
    {
      "constant": true,
      "inputs": [],
      "name": "startingRoundExtension",
      "outputs": [
        {
          "name": "",
          "type": "uint256"
        }
      ],
      "payable": false,
      "stateMutability": "view",
      "type": "function"
    },
    {
      "constant": true,
      "inputs": [],
      "name": "minTileId",
      "outputs": [
        {
          "name": "",
          "type": "uint8"
        }
      ],
      "payable": false,
      "stateMutability": "view",
      "type": "function"
    },
    {
      "constant": true,
      "inputs": [],
      "name": "totalTileValue",
      "outputs": [
        {
          "name": "",
          "type": "uint256"
        }
      ],
      "payable": false,
      "stateMutability": "view",
      "type": "function"
    },
    {
      "constant": true,
      "inputs": [
        {
          "name": "jackpot",
          "type": "uint256"
        }
      ],
      "name": "_nextPotJackpot",
      "outputs": [
        {
          "name": "",
          "type": "uint256"
        }
      ],
      "payable": false,
      "stateMutability": "pure",
      "type": "function"
    },
    {
      "constant": true,
      "inputs": [],
      "name": "startingAuctionPrice",
      "outputs": [
        {
          "name": "",
          "type": "uint256"
        }
      ],
      "payable": false,
      "stateMutability": "view",
      "type": "function"
    },
    {
      "constant": true,
      "inputs": [
        {
          "name": "tax",
          "type": "uint256"
        },
        {
          "name": "hasReferrer",
          "type": "bool"
        }
      ],
      "name": "_teamTax",
      "outputs": [
        {
          "name": "",
          "type": "uint256"
        }
      ],
      "payable": false,
      "stateMutability": "pure",
      "type": "function"
    },
    {
      "constant": true,
      "inputs": [],
      "name": "endingAuctionPrice",
      "outputs": [
        {
          "name": "",
          "type": "uint256"
        }
      ],
      "payable": false,
      "stateMutability": "view",
      "type": "function"
    },
    {
      "constant": true,
      "inputs": [],
      "name": "halvingVolume",
      "outputs": [
        {
          "name": "",
          "type": "uint256"
        }
      ],
      "payable": false,
      "stateMutability": "view",
      "type": "function"
    },
    {
      "constant": true,
      "inputs": [
        {
          "name": "",
          "type": "uint8"
        }
      ],
      "name": "tileToPrice",
      "outputs": [
        {
          "name": "",
          "type": "uint256"
        }
      ],
      "payable": false,
      "stateMutability": "view",
      "type": "function"
    },
    {
      "constant": true,
      "inputs": [
        {
          "name": "jackpot",
          "type": "uint256"
        }
      ],
      "name": "_landholderJackpot",
      "outputs": [
        {
          "name": "",
          "type": "uint256"
        }
      ],
      "payable": false,
      "stateMutability": "pure",
      "type": "function"
    },
    {
      "constant": false,
      "inputs": [],
      "name": "withdrawPayments",
      "outputs": [],
      "payable": false,
      "stateMutability": "nonpayable",
      "type": "function"
    },
    {
      "constant": true,
      "inputs": [
        {
          "name": "",
          "type": "uint8"
        }
      ],
      "name": "tileToOwner",
      "outputs": [
        {
          "name": "",
          "type": "address"
        }
      ],
      "payable": false,
      "stateMutability": "view",
      "type": "function"
    },
    {
      "constant": true,
      "inputs": [],
      "name": "jackpot",
      "outputs": [
        {
          "name": "",
          "type": "uint256"
        }
      ],
      "payable": false,
      "stateMutability": "view",
      "type": "function"
    },
    {
      "constant": true,
      "inputs": [
        {
          "name": "tax",
          "type": "uint256"
        }
      ],
      "name": "_totalLandholderTax",
      "outputs": [
        {
          "name": "",
          "type": "uint256"
        }
      ],
      "payable": false,
      "stateMutability": "pure",
      "type": "function"
    },
    {
      "constant": true,
      "inputs": [],
      "name": "numBoughtTiles",
      "outputs": [
        {
          "name": "",
          "type": "uint256"
        }
      ],
      "payable": false,
      "stateMutability": "view",
      "type": "function"
    },
    {
      "constant": true,
      "inputs": [
        {
          "name": "tax",
          "type": "uint256"
        }
      ],
      "name": "_nextPotTax",
      "outputs": [
        {
          "name": "",
          "type": "uint256"
        }
      ],
      "payable": false,
      "stateMutability": "pure",
      "type": "function"
    },
    {
      "constant": true,
      "inputs": [],
      "name": "curExtensionVolume",
      "outputs": [
        {
          "name": "",
          "type": "uint256"
        }
      ],
      "payable": false,
      "stateMutability": "view",
      "type": "function"
    },
    {
      "constant": true,
      "inputs": [],
      "name": "owner",
      "outputs": [
        {
          "name": "",
          "type": "address"
        }
      ],
      "payable": false,
      "stateMutability": "view",
      "type": "function"
    },
    {
      "constant": true,
      "inputs": [
        {
          "name": "",
          "type": "uint8"
        },
        {
          "name": "",
          "type": "uint256"
        }
      ],
      "name": "tileToNeighbors",
      "outputs": [
        {
          "name": "",
          "type": "uint8"
        }
      ],
      "payable": false,
      "stateMutability": "view",
      "type": "function"
    },
    {
      "constant": true,
      "inputs": [
        {
          "name": "price",
          "type": "uint256"
        }
      ],
      "name": "_priceToTax",
      "outputs": [
        {
          "name": "",
          "type": "uint256"
        }
      ],
      "payable": false,
      "stateMutability": "pure",
      "type": "function"
    },
    {
      "constant": true,
      "inputs": [
        {
          "name": "tax",
          "type": "uint256"
        },
        {
          "name": "hasReferrer",
          "type": "bool"
        }
      ],
      "name": "_referrerTax",
      "outputs": [
        {
          "name": "",
          "type": "uint256"
        }
      ],
      "payable": false,
      "stateMutability": "pure",
      "type": "function"
    },
    {
      "constant": true,
      "inputs": [],
      "name": "nullNeighborValue",
      "outputs": [
        {
          "name": "",
          "type": "uint8"
        }
      ],
      "payable": false,
      "stateMutability": "view",
      "type": "function"
    },
    {
      "constant": true,
      "inputs": [],
      "name": "stage",
      "outputs": [
        {
          "name": "",
          "type": "uint8"
        }
      ],
      "payable": false,
      "stateMutability": "view",
      "type": "function"
    },
    {
      "constant": true,
      "inputs": [],
      "name": "curRoundExtension",
      "outputs": [
        {
          "name": "",
          "type": "uint256"
        }
      ],
      "payable": false,
      "stateMutability": "view",
      "type": "function"
    },
    {
      "constant": true,
      "inputs": [],
      "name": "maxTileId",
      "outputs": [
        {
          "name": "",
          "type": "uint8"
        }
      ],
      "payable": false,
      "stateMutability": "view",
      "type": "function"
    },
    {
      "constant": true,
      "inputs": [
        {
          "name": "jackpot",
          "type": "uint256"
        }
      ],
      "name": "_teamJackpot",
      "outputs": [
        {
          "name": "",
          "type": "uint256"
        }
      ],
      "payable": false,
      "stateMutability": "pure",
      "type": "function"
    },
    {
      "constant": true,
      "inputs": [],
      "name": "minRoundExtension",
      "outputs": [
        {
          "name": "",
          "type": "uint256"
        }
      ],
      "payable": false,
      "stateMutability": "view",
      "type": "function"
    },
    {
      "constant": true,
      "inputs": [
        {
          "name": "",
          "type": "address"
        }
      ],
      "name": "payments",
      "outputs": [
        {
          "name": "",
          "type": "uint256"
        }
      ],
      "payable": false,
      "stateMutability": "view",
      "type": "function"
    },
    {
      "constant": true,
      "inputs": [],
      "name": "roundEndTime",
      "outputs": [
        {
          "name": "",
          "type": "uint256"
        }
      ],
      "payable": false,
      "stateMutability": "view",
      "type": "function"
    },
    {
      "constant": true,
      "inputs": [],
      "name": "numTiles",
      "outputs": [
        {
          "name": "",
          "type": "uint8"
        }
      ],
      "payable": false,
      "stateMutability": "view",
      "type": "function"
    },
    {
      "constant": true,
      "inputs": [],
      "name": "auctionStartTime",
      "outputs": [
        {
          "name": "",
          "type": "uint256"
        }
      ],
      "payable": false,
      "stateMutability": "view",
      "type": "function"
    },
    {
      "constant": false,
      "inputs": [
        {
          "name": "newOwner",
          "type": "address"
        }
      ],
      "name": "transferOwnership",
      "outputs": [],
      "payable": false,
      "stateMutability": "nonpayable",
      "type": "function"
    },
    {
      "inputs": [
        {
          "name": "startingStage",
          "type": "uint256"
        }
      ],
      "payable": false,
      "stateMutability": "nonpayable",
      "type": "constructor"
    },
    {
      "anonymous": false,
      "inputs": [
        {
          "indexed": true,
          "name": "tileId",
          "type": "uint8"
        },
        {
          "indexed": true,
          "name": "oldOwner",
          "type": "address"
        },
        {
          "indexed": true,
          "name": "newOwner",
          "type": "address"
        },
        {
          "indexed": false,
          "name": "oldPrice",
          "type": "uint256"
        },
        {
          "indexed": false,
          "name": "newPrice",
          "type": "uint256"
        }
      ],
      "name": "TileOwnerChanged",
      "type": "event"
    },
    {
      "anonymous": false,
      "inputs": [
        {
          "indexed": false,
          "name": "startingAuctionPrice",
          "type": "uint256"
        },
        {
          "indexed": false,
          "name": "endingAuctionPrice",
          "type": "uint256"
        },
        {
          "indexed": false,
          "name": "auctionDuration",
          "type": "uint256"
        },
        {
          "indexed": false,
          "name": "startTime",
          "type": "uint256"
        }
      ],
      "name": "AuctionStarted",
      "type": "event"
    },
    {
      "anonymous": false,
      "inputs": [
        {
          "indexed": false,
          "name": "endTime",
          "type": "uint256"
        }
      ],
      "name": "AuctionEnded",
      "type": "event"
    },
    {
      "anonymous": false,
      "inputs": [
        {
          "indexed": true,
          "name": "tileId",
          "type": "uint8"
        },
        {
          "indexed": true,
          "name": "owner",
          "type": "address"
        },
        {
          "indexed": false,
          "name": "oldPrice",
          "type": "uint256"
        },
        {
          "indexed": false,
          "name": "newPrice",
          "type": "uint256"
        }
      ],
      "name": "TilePriceChanged",
      "type": "event"
    },
    {
      "anonymous": false,
      "inputs": [
        {
          "indexed": false,
          "name": "initJackpot",
          "type": "uint256"
        },
        {
          "indexed": false,
          "name": "endTime",
          "type": "uint256"
        }
      ],
      "name": "GameRoundStarted",
      "type": "event"
    },
    {
      "anonymous": false,
      "inputs": [
        {
          "indexed": false,
          "name": "endTime",
          "type": "uint256"
        }
      ],
      "name": "GameRoundExtended",
      "type": "event"
    },
    {
      "anonymous": false,
      "inputs": [
        {
          "indexed": false,
          "name": "jackpot",
          "type": "uint256"
        }
      ],
      "name": "GameRoundEnded",
      "type": "event"
    },
    {
      "anonymous": false,
      "inputs": [
        {
          "indexed": true,
          "name": "previousOwner",
          "type": "address"
        },
        {
          "indexed": true,
          "name": "newOwner",
          "type": "address"
        }
      ],
      "name": "OwnershipTransferred",
      "type": "event"
    },
    {
      "constant": false,
      "inputs": [
        {
          "name": "tileId",
          "type": "uint8"
        },
        {
          "name": "newPrice",
          "type": "uint256"
        },
        {
          "name": "referrer",
          "type": "address"
        }
      ],
      "name": "buyTileAuction",
      "outputs": [],
      "payable": true,
      "stateMutability": "payable",
      "type": "function"
    },
    {
      "constant": true,
      "inputs": [],
      "name": "getTilePriceAuction",
      "outputs": [
        {
          "name": "",
          "type": "uint256"
        }
      ],
      "payable": false,
      "stateMutability": "view",
      "type": "function"
    },
    {
      "constant": true,
      "inputs": [],
      "name": "roundTimeRemaining",
      "outputs": [
        {
          "name": "",
          "type": "uint256"
        }
      ],
      "payable": false,
      "stateMutability": "view",
      "type": "function"
    },
    {
      "constant": false,
      "inputs": [],
      "name": "endGameRound",
      "outputs": [],
      "payable": false,
      "stateMutability": "nonpayable",
      "type": "function"
    },
    {
      "constant": false,
      "inputs": [
        {
          "name": "tileId",
          "type": "uint8"
        },
        {
          "name": "newPrice",
          "type": "uint256"
        },
        {
          "name": "referrer",
          "type": "address"
        }
      ],
      "name": "setTilePrice",
      "outputs": [],
      "payable": true,
      "stateMutability": "payable",
      "type": "function"
    },
    {
      "constant": false,
      "inputs": [
        {
          "name": "tileId",
          "type": "uint8"
        },
        {
          "name": "newPrice",
          "type": "uint256"
        },
        {
          "name": "referrer",
          "type": "address"
        }
      ],
      "name": "buyTile",
      "outputs": [],
      "payable": true,
      "stateMutability": "payable",
      "type": "function"
    }
  ],
  "bytecode": "0x60806040526003805460a060020a60ff02191690553480156200002157600080fd5b5060405160208062001d0c833981016040525160038054600160a060020a03191633179055600181141562000090576003805460a060020a60ff021916740100000000000000000000000000000000000000001790556200008a640100000000620000aa810204565b620000a3565b620000a364010000000062000117810204565b50620001b9565b60006009819055613840600a55600d8054600c5555620000d26401000000006200017b810204565b7f4cee8bfbd0f3e8cce8e5e3de038f95b57618c5f150758cdf9b13839800e1fa34600c54600b54604051808381526020018281526020019250505060405180910390a1565b42600881905560006007556040805167016345785d8a00008152662386f26fc1000060208201526202a300818301526060810192909252517fa832766a05f1bd0298b0268308621777cfe1e4eea23afe7c06beea79bc6ddd2d9181900360800190a1565b600a544201600b81905560408051918252517fe3663e221e6fb10518d40e9d9a20cd6f59853232fbfebc7de3821ed0c8fb36d29181900360200190a1565b611b4380620001c96000396000f30060806040526004361061020d5763ffffffff7c01000000000000000000000000000000000000000000000000000000006000350416625b4487811461021257806303fca0611461023957806306e429621461024e5780630a6f5d8e146102665780630cbf54c81461027e5780630e51574f146102935780630eb51c9c146102aa5780631ccff716146102bf57806320178db3146102ea5780633459d2ba146102ff578063391f3b2d146103145780633ebf25081461032c5780633f4acbe8146103415780633fecde211461035e57806349087bcc1461037b57806351b472b9146103905780635b98f169146103a55780635f99c1b2146102665780636103d70b146103c057806366cd442a146103d557806369008fb61461040c5780636b31ee01146104295780636b433ccf1461043e57806371566c23146104565780637e9de0bc1461046b57806384db8d1e146103145780638771fc4a146104885780638da5cb5b1461049d578063925183cd146104b25780639798532f146104d0578063a93b1a65146104e8578063aca21a1e14610505578063ad2daa481461051a578063c040e6b81461052f578063c253942914610568578063c9e87f311461057d578063cf69341814610314578063de8d77e714610592578063e2982c21146105a7578063e40205d6146105c8578063e9360a361461057d578063eb54f9ec146105dd578063f2fde38b146105f2575b600080fd5b34801561021e57600080fd5b50610227610613565b60408051918252519081900360200190f35b34801561024557600080fd5b50610227610619565b34801561025a57600080fd5b5061022760043561061f565b34801561027257600080fd5b50610227600435610638565b34801561028a57600080fd5b5061022761065c565b34801561029f57600080fd5b506102a8610663565b005b3480156102b657600080fd5b5061022761077b565b3480156102cb57600080fd5b506102d4610781565b6040805160ff9092168252519081900360200190f35b3480156102f657600080fd5b50610227610786565b34801561030b57600080fd5b5061022761078c565b34801561032057600080fd5b5061022760043561089c565b34801561033857600080fd5b506102276108af565b34801561034d57600080fd5b5061022760043560243515156108bb565b6102a860ff60043516602435600160a060020a03604435166108f6565b34801561038757600080fd5b50610227610b5e565b34801561039c57600080fd5b50610227610b69565b3480156103b157600080fd5b5061022760ff60043516610b75565b3480156103cc57600080fd5b506102a8610b87565b3480156103e157600080fd5b506103f060ff60043516610c10565b60408051600160a060020a039092168252519081900360200190f35b6102a860ff60043516602435600160a060020a0360443516610c2b565b34801561043557600080fd5b50610227610eaf565b34801561044a57600080fd5b50610227600435610eb5565b34801561046257600080fd5b50610227610ecd565b6102a860ff60043516602435600160a060020a0360443516610ed3565b34801561049457600080fd5b506102276111a5565b3480156104a957600080fd5b506103f06111ab565b3480156104be57600080fd5b506102d460ff600435166024356111ba565b3480156104dc57600080fd5b506102276004356111f2565b3480156104f457600080fd5b506102276004356024351515611205565b34801561051157600080fd5b506102d4611226565b34801561052657600080fd5b5061022761122b565b34801561053b57600080fd5b506105446112cf565b6040518082600181111561055457fe5b60ff16815260200191505060405180910390f35b34801561057457600080fd5b506102276112df565b34801561058957600080fd5b506102d46112e5565b34801561059e57600080fd5b506102276112ea565b3480156105b357600080fd5b50610227600160a060020a03600435166112ef565b3480156105d457600080fd5b50610227611301565b3480156105e957600080fd5b50610227611307565b3480156105fe57600080fd5b506102a8600160a060020a036004351661130d565b60025481565b600d5481565b600061063282600263ffffffff6113a216565b92915050565b6000610632600561065084600263ffffffff6113ca16565b9063ffffffff6113a216565b6202a30081565b60018060035460a060020a900460ff16600181111561067e57fe5b146106d5576040805160e560020a62461bcd0281526020600482015260276024820152600080516020611ad88339815191526044820152600080516020611af8833981519152606482015290519081900360840190fd5b6106dd6113ff565b1515610733576040805160e560020a62461bcd02815260206004820152601360248201527f526f756e64206d757374206265206f7665722100000000000000000000000000604482015290519081900360640190fd5b61073b611408565b600c5460408051918252517f3cf3fa68b629d58f07a4aab1808a70df09365f335635faa68ce0478aee6d8abc9181900360200190a1610778611466565b50565b61384081565b600181565b60065481565b6000808080808060035460a060020a900460ff1660018111156107ab57fe5b14610802576040805160e560020a62461bcd0281526020600482015260276024820152600080516020611ad88339815191526044820152600080516020611af8833981519152606482015290519081900360840190fd5b600093506008544211156108275760085461082490429063ffffffff6114c816565b93505b6202a300841061084057662386f26fc100009450610895565b61085f67016345785d8a0000662386f26fc1000063ffffffff6114c816565b92506108786202a300610650858763ffffffff6113ca16565b915061089267016345785d8a00008363ffffffff6114c816565b94505b5050505090565b600061063282601463ffffffff6113a216565b67016345785d8a000081565b600081156108e0576108d9601961065085600363ffffffff6113ca16565b9050610632565b6108d9606461065085601163ffffffff6113ca16565b60008060018060035460a060020a900460ff16600181111561091457fe5b1461096b576040805160e560020a62461bcd0281526020600482015260276024820152600080516020611ad88339815191526044820152600080516020611af8833981519152606482015290519081900360840190fd5b6109736113ff565b156109c8576040805160e560020a62461bcd02815260206004820152601460248201527f526f756e642063616e2774206265206f76657221000000000000000000000000604482015290519081900360640190fd5b60ff8616600090815260046020526040902054600160a060020a03163314610a60576040805160e560020a62461bcd02815260206004820152602e60248201527f43616e2774207365742074696c6520707269636520666f7220612074696c652060448201527f796f7520646f6e2774206f776e21000000000000000000000000000000000000606482015290519081900360840190fd5b610a69856111f2565b925034831115610ac3576040805160e560020a62461bcd02815260206004820152601f60248201527f4d7573742070617920746178206f6e206e65772074696c652070726963652100604482015290519081900360640190fd5b60ff86166000908152600560205260409020549150610ae234856114df565b610aec868661154c565b610af4611591565b610afd346115cf565b60ff86166000818152600460209081526040918290205482518681529182018990528251600160a060020a0390911693927f6c8ddfd61cb90c6918b2dfdf677c44fc270fcb4b7dfa22b0665fbd1976832fca928290030190a3505050505050565b662386f26fc1000081565b678ac7230489e8000081565b60056020526000908152604090205481565b33600081815260016020526040902054801515610ba357600080fd5b3031811115610bb157600080fd5b600254610bc4908263ffffffff6114c816565b600255600160a060020a0382166000818152600160205260408082208290555183156108fc0291849190818181858888f19350505050158015610c0b573d6000803e3d6000fd5b505050565b600460205260009081526040902054600160a060020a031681565b600080808060035460a060020a900460ff166001811115610c4857fe5b14610c9f576040805160e560020a62461bcd0281526020600482015260276024820152600080516020611ad88339815191526044820152600080516020611af8833981519152606482015290519081900360840190fd5b60ff8616600090815260046020526040902054600160a060020a0316158015610cd8575060ff8616600090815260056020526040902054155b1515610d54576040805160e560020a62461bcd02815260206004820152603260248201527f43616e27742062757920612074696c652074686174277320616c72656164792060448201527f6265656e2061756374696f6e6564206f66660000000000000000000000000000606482015290519081900360840190fd5b610d5d856111f2565b9250610d6761078c565b9150610d79838363ffffffff61162716565b341015610df6576040805160e560020a62461bcd02815260206004820152603560248201527f4d75737420706179207468652066756c6c20707269636520616e64207461782060448201527f666f7220612074696c65206f6e2061756374696f6e0000000000000000000000606482015290519081900360840190fd5b610e003485611639565b60ff86166000908152600460205260409020805473ffffffffffffffffffffffffffffffffffffffff191633179055610e39868661154c565b600754610e4d90600163ffffffff61162716565b60075560408051838152602081018790528151339260009260ff8b16927f7a60be58ea0cf4cbccda877e1d59dc979442a2a3cc294136d1b7a325e366f34d929181900390910190a4600754601311610ea757610ea76116a4565b505050505050565b600c5481565b6000610632603261065084601363ffffffff6113ca16565b60075481565b600080808060018060035460a060020a900460ff166001811115610ef357fe5b14610f4a576040805160e560020a62461bcd0281526020600482015260276024820152600080516020611ad88339815191526044820152600080516020611af8833981519152606482015290519081900360840190fd5b610f526113ff565b15610fa7576040805160e560020a62461bcd02815260206004820152601460248201527f526f756e642063616e2774206265206f76657221000000000000000000000000604482015290519081900360640190fd5b60ff8816600090815260046020526040902054600160a060020a031694503385141561101d576040805160e560020a62461bcd02815260206004820181905260248201527f43616e27742062757920612074696c6520796f7520616c7265616479206f776e604482015290519081900360640190fd5b611026876111f2565b60ff8916600090815260056020526040902054909450925061104e848463ffffffff61162716565b3410156110ca576040805160e560020a62461bcd028152602060048201526024808201527f4d757374207061792066756c6c20707269636520616e642074617820666f722060448201527f74696c6500000000000000000000000000000000000000000000000000000000606482015290519081900360840190fd5b60ff88166000908152600560205260409020546110e8908690611786565b60ff88166000908152600460205260409020805473ffffffffffffffffffffffffffffffffffffffff191633179055611127348463ffffffff6114c816565b915061113382876114df565b61113d888861154c565b611145611591565b61114e346115cf565b604080518481526020810189905281513392600160a060020a0389169260ff8d16927f7a60be58ea0cf4cbccda877e1d59dc979442a2a3cc294136d1b7a325e366f34d929181900390910190a45050505050505050565b60095481565b600354600160a060020a031681565b6000602052816000526040600020816006811015156111d557fe5b602081049091015460ff601f9092166101000a9004169150829050565b600061063282600a63ffffffff6113a216565b6000811561121e576108d983601463ffffffff6113a216565b506000610632565b600081565b600060018060035460a060020a900460ff16600181111561124857fe5b1461129f576040805160e560020a62461bcd0281526020600482015260276024820152600080516020611ad88339815191526044820152600080516020611af8833981519152606482015290519081900360840190fd5b6112a76113ff565b156112b557600091506112cb565b600b546112c8904263ffffffff6114c816565b91505b5090565b60035460a060020a900460ff1681565b600a5481565b601381565b600a81565b60016020526000908152604090205481565b600b5481565b60085481565b600354600160a060020a0316331461132457600080fd5b600160a060020a038116151561133957600080fd5b600354604051600160a060020a038084169216907f8be0079c531659141344cd1fd0a4f28419497f9722a3daafe3b4186f6b6457e090600090a36003805473ffffffffffffffffffffffffffffffffffffffff1916600160a060020a0392909216919091179055565b6000808083116113b157600080fd5b82848115156113bc57fe5b0490508091505b5092915050565b6000808315156113dd57600091506113c3565b508282028284828115156113ed57fe5b04146113f857600080fd5b9392505050565b600b5442101590565b600080611416600c5461061f565b9150611423600c54610638565b905061142f82826117e2565b61144261143d600c5461089c565b6119d3565b61145f611450600c5461089c565b600d549063ffffffff61162716565b600d555050565b60006009819055613840600a55600d8054600c5555611483611591565b7f4cee8bfbd0f3e8cce8e5e3de038f95b57618c5f150758cdf9b13839800e1fa34600c54600b54604051808381526020018281526020019250505060405180910390a1565b600080838311156114d857600080fd5b5050900390565b60006114fc6114ed84610638565b600c549063ffffffff61162716565b600c5561151061150b84610eb5565b6119e9565b61151c6114508461089c565b600d5550600160a060020a038116151561153961143d84836108bb565b610c0b826115478584611205565b611786565b60ff8216600090815260056020526040902080549082905560065461158990839061157d908463ffffffff6114c816565b9063ffffffff61162716565b600655505050565b600a544201600b81905560408051918252517fe3663e221e6fb10518d40e9d9a20cd6f59853232fbfebc7de3821ed0c8fb36d29181900360200190a1565b6009546115e2908263ffffffff61162716565b6009819055678ac7230489e80000116107785761161c600a6116106002600a546113a290919063ffffffff16565b9063ffffffff611a9b16565b600a55600060095550565b6000828201838110156113f857600080fd5b60008061164861150b85610eb5565b61165d6116548561089c565b61157d86610638565b600d54909250611673908363ffffffff61162716565b600d5550600160a060020a038216151561169061143d85836108bb565b61169e836115478684611205565b50505050565b60075460131115611725576040805160e560020a62461bcd02815260206004820152602760248201527f43616e277420656e642061756374696f6e2069662061726520756e626f75676860448201527f742074696c657300000000000000000000000000000000000000000000000000606482015290519081900360840190fd5b6003805474ff0000000000000000000000000000000000000000191660a060020a179055611751611466565b6040805142815290517f45806e512b1f4f10e33e8b3cb64d1d11d998d8c554a95e0841fc1c701278bd5d9181900360200190a1565b600160a060020a0382166000908152600160205260409020546117af908263ffffffff61162716565b600160a060020a0383166000908152600160205260409020556002546117db908263ffffffff61162716565b6002555050565b6040805160148082526102a08201909252606091600091829182918291829182918291906020820161028080388339019050509750600096506000955060009450600193505b601360ff85161161188f5761183c84611ab2565b925085158061184a57508583115b15611856578295508394505b82888560ff1681518110151561186857fe5b60209081029091010152611882878463ffffffff61162716565b9650600190930192611828565b60009150600193505b601360ff8516116118c557856118ad85611ab2565b14156118ba576001909101905b600190930192611898565b81600114156118f95760ff85166000908152600460205260409020546118f490600160a060020a03168b611786565b611954565b600193505b601360ff851611611954578561191385611ab2565b14156119495760ff841660009081526004602052604090205461194990600160a060020a03166115478c8563ffffffff6113a216565b6001909301926118fe565b600193505b601360ff8516116119c757611993876106508b8b8860ff1681518110151561197d57fe5b602090810290910101519063ffffffff6113ca16565b60ff85166000908152600460205260409020549091506119bc90600160a060020a031682611786565b600190930192611959565b50505050505050505050565b60035461077890600160a060020a031682611786565b60016000805b601360ff84161161169e5760ff8316600090815260046020526040902054600160a060020a031615801590611a35575060ff831660009081526005602052604090205415155b15611a905760ff8316600090815260056020526040902054600654909250611a6790610650868563ffffffff6113ca16565b60ff8416600090815260046020526040902054909150611a9090600160a060020a031682611786565b6001909201916119ef565b600081831015611aab57816113f8565b5090919050565b60ff81166000908152600560205260408120546006546106329163ffffffff6114c816560046756e6374696f6e2063616e6e6f742062652063616c6c656420617420746869732074696d652e00000000000000000000000000000000000000000000000000a165627a7a723058203dea131230ea46ada9b7d07ba3ddd0bb3403dff6fb71ea996398a0a02b50b2dd0029",
  "source": "pragma solidity ^0.4.22;\n\n// Zeppelin libs\nimport \"./Math.sol\";\nimport \"./Ownable.sol\";\nimport \"./PullPayment.sol\";\nimport \"./SafeMath.sol\";\n\n// Microverse libs\nimport \"./HexBoard3.sol\";\nimport \"./JackpotRules.sol\";\nimport \"./TaxRules.sol\";\n\ncontract Microverse is\n    HexBoard3,\n    PullPayment,\n    Ownable,\n    TaxRules,\n    JackpotRules {\n    using SafeMath for uint256;\n    using Math for uint256;\n\n    // states this contract progresses through\n    enum Stage {\n        DutchAuction,\n        GameRounds\n    }\n    Stage public stage = Stage.DutchAuction;\n\n    modifier atStage(Stage _stage) {\n        require(\n            stage == _stage,\n            \"Function cannot be called at this time.\"\n        );\n        _;\n    }\n\n    // NOTE: stage arg for debugging purposes only! Should just be set to 0 by default\n    constructor(uint startingStage) public {\n        if (startingStage == uint(Stage.GameRounds)) {\n            stage = Stage.GameRounds;\n            _startGameRound();\n        } else {\n            _startAuction();\n        }\n    }\n\n    mapping(uint8 => address) public tileToOwner;\n    mapping(uint8 => uint256) public tileToPrice;\n    uint256 public totalTileValue;\n\n    // TODO: Change this once we define 'team'\n    function _sendToTeam(uint256 amount) private {\n        asyncSend(owner, amount);\n    }\n\n    function _changeTilePrice(uint8 tileId, uint256 newPrice) private {\n        uint256 oldPrice = tileToPrice[tileId];\n        tileToPrice[tileId] = newPrice;\n        totalTileValue = (totalTileValue.sub(oldPrice)).add(newPrice);\n    }\n\n    event TileOwnerChanged(\n        uint8 indexed tileId,\n        address indexed oldOwner,\n        address indexed newOwner,\n        uint256 oldPrice,\n        uint256 newPrice\n    );\n\n    //////////\n    // Auction\n    //////////\n\n    event AuctionStarted(\n        uint256 startingAuctionPrice,\n        uint256 endingAuctionPrice,\n        uint256 auctionDuration,\n        uint256 startTime\n    );\n\n    event AuctionEnded(\n        uint256 endTime\n    );\n\n    // NOTE: Beta test values\n    uint256 constant public startingAuctionPrice = 0.1 ether;\n    uint256 constant public endingAuctionPrice = 0.01 ether;\n    uint256 constant public auctionDuration = 2 days; // period over which land price decreases linearly\n\n    uint256 public numBoughtTiles;\n    uint256 public auctionStartTime;\n\n    function buyTileAuction(uint8 tileId, uint256 newPrice, address referrer) public payable atStage(Stage.DutchAuction) {\n        require(\n            tileToOwner[tileId] == address(0) && tileToPrice[tileId] == 0,\n            \"Can't buy a tile that's already been auctioned off\"\n        );\n\n        uint256 tax = _priceToTax(newPrice);\n        uint256 price = getTilePriceAuction();\n\n        require(\n            msg.value >= tax.add(price),\n            \"Must pay the full price and tax for a tile on auction\"\n        );\n\n        // NOTE: *entire* payment distributed as Game taxes\n        _distributeAuctionTax(msg.value, referrer);\n\n        tileToOwner[tileId] = msg.sender;\n        _changeTilePrice(tileId, newPrice);\n\n        numBoughtTiles = numBoughtTiles.add(1);\n\n        emit TileOwnerChanged(tileId, address(0), msg.sender, price, newPrice);\n\n        if (numBoughtTiles >= numTiles) {\n            endAuction();\n        }\n    }\n\n    // NOTE: Some common logic with _distributeTax\n    function _distributeAuctionTax(uint256 tax, address referrer) private {\n        _distributeLandholderTax(_totalLandholderTax(tax));\n\n        // NOTE: Because no notion of 'current jackpot', everything added to next pot\n        uint256 totalJackpotTax = _jackpotTax(tax).add(_nextPotTax(tax));\n        nextJackpot = nextJackpot.add(totalJackpotTax);\n\n        // NOTE: referrer tax comes out of dev team tax\n        bool hasReferrer = referrer != address(0);\n        _sendToTeam(_teamTax(tax, hasReferrer));\n        asyncSend(referrer, _referrerTax(tax, hasReferrer));\n    }\n\n    function getTilePriceAuction() public view atStage(Stage.DutchAuction) returns (uint256) {\n        uint256 secondsPassed = 0;\n\n        // This should always be the case...\n        if (now > auctionStartTime) {\n            secondsPassed = now.sub(auctionStartTime);\n        }\n\n        if (secondsPassed >= auctionDuration) {\n            return endingAuctionPrice;\n        } else {\n            uint256 maxPriceDelta = startingAuctionPrice.sub(endingAuctionPrice);\n            uint256 actualPriceDelta = (maxPriceDelta.mul(secondsPassed)).div(auctionDuration);\n\n            return startingAuctionPrice.sub(actualPriceDelta);\n        }\n    }\n\n    function endAuction() private {\n        require(\n            numBoughtTiles >= numTiles,\n            \"Can't end auction if are unbought tiles\"\n        );\n\n        stage = Stage.GameRounds;\n        _startGameRound();\n\n        emit AuctionEnded(now);\n    }\n\n    function _startAuction() private {\n        auctionStartTime = now;\n        numBoughtTiles = 0;\n\n        emit AuctionStarted(startingAuctionPrice,\n                            endingAuctionPrice,\n                            auctionDuration,\n                            auctionStartTime);\n    }\n\n    ///////\n    // Game\n    ///////\n\n    // NOTE: Beta test values\n    uint256 constant public startingRoundExtension = 4 hours;\n    uint256 constant public halvingVolume = 10 ether; // tx volume before next duration halving\n    uint256 constant public minRoundExtension = 10 seconds; // could set to 1 second\n\n    uint256 public curExtensionVolume;\n    uint256 public curRoundExtension;\n\n    uint256 public roundEndTime;\n\n    uint256 public jackpot;\n    uint256 public nextJackpot;\n\n    // Only emitted if owner doesn't *also* change\n    event TilePriceChanged(\n        uint8 indexed tileId,\n        address indexed owner,\n        uint256 oldPrice,\n        uint256 newPrice\n    );\n\n    event GameRoundStarted(\n        uint256 initJackpot,\n        uint256 endTime\n    );\n\n    event GameRoundExtended(\n        uint256 endTime\n    );\n\n    event GameRoundEnded(\n        uint256 jackpot\n    );\n\n    ////////////////////////////////////\n    // [Game] Round extension management\n    ////////////////////////////////////\n\n    function roundTimeRemaining() public view atStage(Stage.GameRounds) returns (uint256)  {\n        if (_roundOver()) {\n            return 0;\n        } else {\n            return roundEndTime.sub(now);\n        }\n    }\n\n    function _extendRound() private {\n        roundEndTime = now + curRoundExtension;\n\n        emit GameRoundExtended(roundEndTime);\n    }\n\n    function _startGameRound() private {\n        curExtensionVolume = 0 ether;\n        curRoundExtension = startingRoundExtension;\n\n        jackpot = nextJackpot;\n        nextJackpot = 0;\n\n        _extendRound();\n\n        emit GameRoundStarted(jackpot, roundEndTime);\n    }\n\n    function _roundOver() private view returns (bool) {\n        return now >= roundEndTime;\n    }\n\n    modifier duringRound() {\n        require(\n            !_roundOver(),\n            \"Round can't be over!\"\n        );\n        _;\n    }\n\n    // NOTE: Must be called for all volume we want to count towards round extension halving\n    function _logRoundExtensionVolume(uint256 amount) private {\n        curExtensionVolume = curExtensionVolume.add(amount);\n\n        if (curExtensionVolume >= halvingVolume) {\n            curRoundExtension = curRoundExtension.div(2).max(minRoundExtension);\n            curExtensionVolume = 0 ether;\n        }\n    }\n\n    ////////////////////////\n    // [Game] Player actions\n    ////////////////////////\n\n    function endGameRound() public atStage(Stage.GameRounds) {\n        require(\n            _roundOver(),\n            \"Round must be over!\"\n        );\n\n        _distributeJackpot();\n\n        emit GameRoundEnded(jackpot);\n\n        _startGameRound();\n    }\n\n    function setTilePrice(uint8 tileId, uint256 newPrice, address referrer)\n        public\n        payable\n        atStage(Stage.GameRounds)\n        duringRound {\n        require(\n            tileToOwner[tileId] == msg.sender,\n            \"Can't set tile price for a tile you don't own!\"\n        );\n\n        uint256 tax = _priceToTax(newPrice);\n\n        require(\n            msg.value >= tax,\n            \"Must pay tax on new tile price!\"\n        );\n\n        uint256 oldPrice = tileToPrice[tileId];\n        _distributeTax(msg.value, referrer);\n        _changeTilePrice(tileId, newPrice);\n\n        // NOTE: Currently we extend round for 'every' tile price change. Alternatively could do only on\n        // increases or decreases or changes exceeding some magnitude\n        _extendRound();\n        _logRoundExtensionVolume(msg.value);\n\n        emit TilePriceChanged(tileId, tileToOwner[tileId], oldPrice, newPrice);\n    }\n\n    function buyTile(uint8 tileId, uint256 newPrice, address referrer)\n        public\n        payable\n        atStage(Stage.GameRounds)\n        duringRound {\n        address oldOwner = tileToOwner[tileId];\n        require(\n            oldOwner != msg.sender,\n            \"Can't buy a tile you already own\"\n        );\n\n        uint256 tax = _priceToTax(newPrice);\n\n        uint256 oldPrice = tileToPrice[tileId];\n        require(\n            msg.value >= tax.add(oldPrice),\n            \"Must pay full price and tax for tile\"\n        );\n\n        // pay seller\n        asyncSend(oldOwner, tileToPrice[tileId]);\n        tileToOwner[tileId] = msg.sender;\n\n        uint256 actualTax = msg.value.sub(oldPrice);\n        _distributeTax(actualTax, referrer);\n\n        _changeTilePrice(tileId, newPrice);\n        _extendRound();\n        _logRoundExtensionVolume(msg.value);\n\n        emit TileOwnerChanged(tileId, oldOwner, msg.sender, oldPrice, newPrice);\n    }\n\n    ///////////////////////////////////////\n    // [Game] Dividend/jackpot distribution\n    ///////////////////////////////////////\n\n    function _distributeJackpot() private {\n        uint256 winnerJackpot = _winnerJackpot(jackpot);\n        uint256 landholderJackpot = _landholderJackpot(jackpot);\n        _distributeWinnerAndLandholderJackpot(winnerJackpot, landholderJackpot);\n\n        _sendToTeam(_teamJackpot(jackpot));\n        nextJackpot = nextJackpot.add(_nextPotJackpot(jackpot));\n    }\n\n    function _calculatePriceComplement(uint8 tileId) private view returns (uint256) {\n        return totalTileValue.sub(tileToPrice[tileId]);\n    }\n\n    // NOTE: These are bundled together so that we only have to compute complements once\n    function _distributeWinnerAndLandholderJackpot(uint256 winnerJackpot, uint256 landholderJackpot) private {\n        uint256[] memory complements = new uint256[](numTiles + 1); // inc necessary b/c tiles are 1-indexed\n        uint256 totalPriceComplement = 0;\n\n        uint256 bestComplement = 0;\n        uint8 lastWinningTileId = 0;\n        for (uint8 i = minTileId; i <= maxTileId; i++) {\n            uint256 priceComplement = _calculatePriceComplement(i);\n\n            // update winner\n            if (bestComplement == 0 || priceComplement > bestComplement) {\n                bestComplement = priceComplement;\n                lastWinningTileId = i;\n            }\n\n            complements[i] = priceComplement;\n            totalPriceComplement = totalPriceComplement.add(priceComplement);\n        }\n        uint256 numWinners = 0;\n        for (i = minTileId; i <= maxTileId; i++) {\n            if (_calculatePriceComplement(i) == bestComplement) {\n                numWinners++;\n            }\n        }\n\n        // distribute jackpot among all winners. save time on the majority (1-winner) case\n        if (numWinners == 1) {\n            asyncSend(tileToOwner[lastWinningTileId], winnerJackpot);\n        } else {\n            for (i = minTileId; i <= maxTileId; i++) {\n                if (_calculatePriceComplement(i) == bestComplement) {\n                    asyncSend(tileToOwner[i], winnerJackpot.div(numWinners));\n                }\n            }\n        }\n\n        // distribute landholder things\n        for (i = minTileId; i <= maxTileId; i++) {\n            // NOTE: We don't exclude the jackpot winner(s) here, so the winner(s) is paid 'twice'\n            uint256 landholderAllocation = complements[i].mul(landholderJackpot).div(totalPriceComplement);\n\n            asyncSend(tileToOwner[i], landholderAllocation);\n        }\n    }\n\n    function _distributeTax(uint256 tax, address referrer) private {\n        jackpot = jackpot.add(_jackpotTax(tax));\n\n        _distributeLandholderTax(_totalLandholderTax(tax));\n        nextJackpot = nextJackpot.add(_nextPotTax(tax));\n\n        // NOTE: referrer tax comes out of dev team tax\n        bool hasReferrer = referrer != address(0);\n        _sendToTeam(_teamTax(tax, hasReferrer));\n        asyncSend(referrer, _referrerTax(tax, hasReferrer));\n    }\n\n    function _distributeLandholderTax(uint256 tax) private {\n        for (uint8 tile = minTileId; tile <= maxTileId; tile++) {\n            if (tileToOwner[tile] != address(0) && tileToPrice[tile] != 0) {\n                uint256 tilePrice = tileToPrice[tile];\n                uint256 allocation = tax.mul(tilePrice).div(totalTileValue);\n\n                asyncSend(tileToOwner[tile], allocation);\n            }\n        }\n    }\n}\n",
  "sourcePath": "/Users/lakshmansankar/src/microverse/eth/contracts/Microverse.sol",
  "compiler": {
    "name": "solc",
    "version": "0.4.24+commit.e67f0147.Emscripten.clang"
  },
  "schemaVersion": "2.0.1",
  "updatedAt": "2018-11-08T00:26:01.420Z"
}