{
  "contractName": "Microverse",
  "abi": [
    {
      "constant": true,
      "inputs": [],
      "name": "totalPayments",
      "outputs": [
        {
          "name": "",
          "type": "uint256"
        }
      ],
      "payable": false,
      "stateMutability": "view",
      "type": "function"
    },
    {
      "constant": true,
      "inputs": [],
      "name": "nextJackpot",
      "outputs": [
        {
          "name": "",
          "type": "uint256"
        }
      ],
      "payable": false,
      "stateMutability": "view",
      "type": "function"
    },
    {
      "constant": true,
      "inputs": [
        {
          "name": "jackpot",
          "type": "uint256"
        }
      ],
      "name": "_winnerJackpot",
      "outputs": [
        {
          "name": "",
          "type": "uint256"
        }
      ],
      "payable": false,
      "stateMutability": "pure",
      "type": "function"
    },
    {
      "constant": true,
      "inputs": [
        {
          "name": "tax",
          "type": "uint256"
        }
      ],
      "name": "_jackpotTax",
      "outputs": [
        {
          "name": "",
          "type": "uint256"
        }
      ],
      "payable": false,
      "stateMutability": "pure",
      "type": "function"
    },
    {
      "constant": true,
      "inputs": [],
      "name": "auctionDuration",
      "outputs": [
        {
          "name": "",
          "type": "uint256"
        }
      ],
      "payable": false,
      "stateMutability": "view",
      "type": "function"
    },
    {
      "constant": true,
      "inputs": [],
      "name": "startingRoundExtension",
      "outputs": [
        {
          "name": "",
          "type": "uint256"
        }
      ],
      "payable": false,
      "stateMutability": "view",
      "type": "function"
    },
    {
      "constant": true,
      "inputs": [],
      "name": "minTileId",
      "outputs": [
        {
          "name": "",
          "type": "uint8"
        }
      ],
      "payable": false,
      "stateMutability": "view",
      "type": "function"
    },
    {
      "constant": true,
      "inputs": [],
      "name": "totalTileValue",
      "outputs": [
        {
          "name": "",
          "type": "uint256"
        }
      ],
      "payable": false,
      "stateMutability": "view",
      "type": "function"
    },
    {
      "constant": true,
      "inputs": [
        {
          "name": "jackpot",
          "type": "uint256"
        }
      ],
      "name": "_nextPotJackpot",
      "outputs": [
        {
          "name": "",
          "type": "uint256"
        }
      ],
      "payable": false,
      "stateMutability": "pure",
      "type": "function"
    },
    {
      "constant": true,
      "inputs": [],
      "name": "startingAuctionPrice",
      "outputs": [
        {
          "name": "",
          "type": "uint256"
        }
      ],
      "payable": false,
      "stateMutability": "view",
      "type": "function"
    },
    {
      "constant": true,
      "inputs": [
        {
          "name": "tax",
          "type": "uint256"
        },
        {
          "name": "hasReferrer",
          "type": "bool"
        }
      ],
      "name": "_teamTax",
      "outputs": [
        {
          "name": "",
          "type": "uint256"
        }
      ],
      "payable": false,
      "stateMutability": "pure",
      "type": "function"
    },
    {
      "constant": true,
      "inputs": [],
      "name": "endingAuctionPrice",
      "outputs": [
        {
          "name": "",
          "type": "uint256"
        }
      ],
      "payable": false,
      "stateMutability": "view",
      "type": "function"
    },
    {
      "constant": true,
      "inputs": [],
      "name": "halvingVolume",
      "outputs": [
        {
          "name": "",
          "type": "uint256"
        }
      ],
      "payable": false,
      "stateMutability": "view",
      "type": "function"
    },
    {
      "constant": true,
      "inputs": [
        {
          "name": "",
          "type": "uint8"
        }
      ],
      "name": "tileToPrice",
      "outputs": [
        {
          "name": "",
          "type": "uint256"
        }
      ],
      "payable": false,
      "stateMutability": "view",
      "type": "function"
    },
    {
      "constant": true,
      "inputs": [
        {
          "name": "jackpot",
          "type": "uint256"
        }
      ],
      "name": "_landholderJackpot",
      "outputs": [
        {
          "name": "",
          "type": "uint256"
        }
      ],
      "payable": false,
      "stateMutability": "pure",
      "type": "function"
    },
    {
      "constant": false,
      "inputs": [],
      "name": "withdrawPayments",
      "outputs": [],
      "payable": false,
      "stateMutability": "nonpayable",
      "type": "function"
    },
    {
      "constant": true,
      "inputs": [
        {
          "name": "",
          "type": "uint8"
        }
      ],
      "name": "tileToOwner",
      "outputs": [
        {
          "name": "",
          "type": "address"
        }
      ],
      "payable": false,
      "stateMutability": "view",
      "type": "function"
    },
    {
      "constant": true,
      "inputs": [],
      "name": "jackpot",
      "outputs": [
        {
          "name": "",
          "type": "uint256"
        }
      ],
      "payable": false,
      "stateMutability": "view",
      "type": "function"
    },
    {
      "constant": true,
      "inputs": [
        {
          "name": "tax",
          "type": "uint256"
        }
      ],
      "name": "_totalLandholderTax",
      "outputs": [
        {
          "name": "",
          "type": "uint256"
        }
      ],
      "payable": false,
      "stateMutability": "pure",
      "type": "function"
    },
    {
      "constant": true,
      "inputs": [],
      "name": "numBoughtTiles",
      "outputs": [
        {
          "name": "",
          "type": "uint256"
        }
      ],
      "payable": false,
      "stateMutability": "view",
      "type": "function"
    },
    {
      "constant": true,
      "inputs": [
        {
          "name": "tax",
          "type": "uint256"
        }
      ],
      "name": "_nextPotTax",
      "outputs": [
        {
          "name": "",
          "type": "uint256"
        }
      ],
      "payable": false,
      "stateMutability": "pure",
      "type": "function"
    },
    {
      "constant": true,
      "inputs": [],
      "name": "curExtensionVolume",
      "outputs": [
        {
          "name": "",
          "type": "uint256"
        }
      ],
      "payable": false,
      "stateMutability": "view",
      "type": "function"
    },
    {
      "constant": true,
      "inputs": [],
      "name": "owner",
      "outputs": [
        {
          "name": "",
          "type": "address"
        }
      ],
      "payable": false,
      "stateMutability": "view",
      "type": "function"
    },
    {
      "constant": true,
      "inputs": [
        {
          "name": "",
          "type": "uint8"
        },
        {
          "name": "",
          "type": "uint256"
        }
      ],
      "name": "tileToNeighbors",
      "outputs": [
        {
          "name": "",
          "type": "uint8"
        }
      ],
      "payable": false,
      "stateMutability": "view",
      "type": "function"
    },
    {
      "constant": true,
      "inputs": [
        {
          "name": "price",
          "type": "uint256"
        }
      ],
      "name": "_priceToTax",
      "outputs": [
        {
          "name": "",
          "type": "uint256"
        }
      ],
      "payable": false,
      "stateMutability": "pure",
      "type": "function"
    },
    {
      "constant": true,
      "inputs": [
        {
          "name": "tax",
          "type": "uint256"
        },
        {
          "name": "hasReferrer",
          "type": "bool"
        }
      ],
      "name": "_referrerTax",
      "outputs": [
        {
          "name": "",
          "type": "uint256"
        }
      ],
      "payable": false,
      "stateMutability": "pure",
      "type": "function"
    },
    {
      "constant": true,
      "inputs": [],
      "name": "nullNeighborValue",
      "outputs": [
        {
          "name": "",
          "type": "uint8"
        }
      ],
      "payable": false,
      "stateMutability": "view",
      "type": "function"
    },
    {
      "constant": true,
      "inputs": [],
      "name": "stage",
      "outputs": [
        {
          "name": "",
          "type": "uint8"
        }
      ],
      "payable": false,
      "stateMutability": "view",
      "type": "function"
    },
    {
      "constant": true,
      "inputs": [],
      "name": "curRoundExtension",
      "outputs": [
        {
          "name": "",
          "type": "uint256"
        }
      ],
      "payable": false,
      "stateMutability": "view",
      "type": "function"
    },
    {
      "constant": true,
      "inputs": [],
      "name": "maxTileId",
      "outputs": [
        {
          "name": "",
          "type": "uint8"
        }
      ],
      "payable": false,
      "stateMutability": "view",
      "type": "function"
    },
    {
      "constant": true,
      "inputs": [
        {
          "name": "jackpot",
          "type": "uint256"
        }
      ],
      "name": "_teamJackpot",
      "outputs": [
        {
          "name": "",
          "type": "uint256"
        }
      ],
      "payable": false,
      "stateMutability": "pure",
      "type": "function"
    },
    {
      "constant": true,
      "inputs": [],
      "name": "minRoundExtension",
      "outputs": [
        {
          "name": "",
          "type": "uint256"
        }
      ],
      "payable": false,
      "stateMutability": "view",
      "type": "function"
    },
    {
      "constant": true,
      "inputs": [
        {
          "name": "",
          "type": "address"
        }
      ],
      "name": "payments",
      "outputs": [
        {
          "name": "",
          "type": "uint256"
        }
      ],
      "payable": false,
      "stateMutability": "view",
      "type": "function"
    },
    {
      "constant": true,
      "inputs": [],
      "name": "roundEndTime",
      "outputs": [
        {
          "name": "",
          "type": "uint256"
        }
      ],
      "payable": false,
      "stateMutability": "view",
      "type": "function"
    },
    {
      "constant": true,
      "inputs": [],
      "name": "numTiles",
      "outputs": [
        {
          "name": "",
          "type": "uint8"
        }
      ],
      "payable": false,
      "stateMutability": "view",
      "type": "function"
    },
    {
      "constant": true,
      "inputs": [],
      "name": "auctionStartTime",
      "outputs": [
        {
          "name": "",
          "type": "uint256"
        }
      ],
      "payable": false,
      "stateMutability": "view",
      "type": "function"
    },
    {
      "constant": false,
      "inputs": [
        {
          "name": "newOwner",
          "type": "address"
        }
      ],
      "name": "transferOwnership",
      "outputs": [],
      "payable": false,
      "stateMutability": "nonpayable",
      "type": "function"
    },
    {
      "inputs": [
        {
          "name": "startingStage",
          "type": "uint256"
        }
      ],
      "payable": false,
      "stateMutability": "nonpayable",
      "type": "constructor"
    },
    {
      "anonymous": false,
      "inputs": [
        {
          "indexed": true,
          "name": "tileId",
          "type": "uint8"
        },
        {
          "indexed": true,
          "name": "oldOwner",
          "type": "address"
        },
        {
          "indexed": true,
          "name": "newOwner",
          "type": "address"
        },
        {
          "indexed": false,
          "name": "oldPrice",
          "type": "uint256"
        },
        {
          "indexed": false,
          "name": "newPrice",
          "type": "uint256"
        }
      ],
      "name": "TileOwnerChanged",
      "type": "event"
    },
    {
      "anonymous": false,
      "inputs": [
        {
          "indexed": false,
          "name": "startingAuctionPrice",
          "type": "uint256"
        },
        {
          "indexed": false,
          "name": "endingAuctionPrice",
          "type": "uint256"
        },
        {
          "indexed": false,
          "name": "auctionDuration",
          "type": "uint256"
        },
        {
          "indexed": false,
          "name": "startTime",
          "type": "uint256"
        }
      ],
      "name": "AuctionStarted",
      "type": "event"
    },
    {
      "anonymous": false,
      "inputs": [
        {
          "indexed": false,
          "name": "endTime",
          "type": "uint256"
        }
      ],
      "name": "AuctionEnded",
      "type": "event"
    },
    {
      "anonymous": false,
      "inputs": [
        {
          "indexed": true,
          "name": "tileId",
          "type": "uint8"
        },
        {
          "indexed": true,
          "name": "owner",
          "type": "address"
        },
        {
          "indexed": false,
          "name": "oldPrice",
          "type": "uint256"
        },
        {
          "indexed": false,
          "name": "newPrice",
          "type": "uint256"
        }
      ],
      "name": "TilePriceChanged",
      "type": "event"
    },
    {
      "anonymous": false,
      "inputs": [
        {
          "indexed": false,
          "name": "initJackpot",
          "type": "uint256"
        },
        {
          "indexed": false,
          "name": "endTime",
          "type": "uint256"
        }
      ],
      "name": "GameRoundStarted",
      "type": "event"
    },
    {
      "anonymous": false,
      "inputs": [
        {
          "indexed": false,
          "name": "endTime",
          "type": "uint256"
        }
      ],
      "name": "GameRoundExtended",
      "type": "event"
    },
    {
      "anonymous": false,
      "inputs": [
        {
          "indexed": false,
          "name": "jackpot",
          "type": "uint256"
        }
      ],
      "name": "GameRoundEnded",
      "type": "event"
    },
    {
      "anonymous": false,
      "inputs": [
        {
          "indexed": true,
          "name": "previousOwner",
          "type": "address"
        },
        {
          "indexed": true,
          "name": "newOwner",
          "type": "address"
        }
      ],
      "name": "OwnershipTransferred",
      "type": "event"
    },
    {
      "constant": false,
      "inputs": [
        {
          "name": "tileId",
          "type": "uint8"
        },
        {
          "name": "newPrice",
          "type": "uint256"
        }
      ],
      "name": "buyTileAuction",
      "outputs": [],
      "payable": true,
      "stateMutability": "payable",
      "type": "function"
    },
    {
      "constant": true,
      "inputs": [],
      "name": "getTilePriceAuction",
      "outputs": [
        {
          "name": "",
          "type": "uint256"
        }
      ],
      "payable": false,
      "stateMutability": "view",
      "type": "function"
    },
    {
      "constant": true,
      "inputs": [],
      "name": "roundTimeRemaining",
      "outputs": [
        {
          "name": "",
          "type": "uint256"
        }
      ],
      "payable": false,
      "stateMutability": "view",
      "type": "function"
    },
    {
      "constant": false,
      "inputs": [],
      "name": "endGameRound",
      "outputs": [],
      "payable": false,
      "stateMutability": "nonpayable",
      "type": "function"
    },
    {
      "constant": false,
      "inputs": [
        {
          "name": "tileId",
          "type": "uint8"
        },
        {
          "name": "newPrice",
          "type": "uint256"
        },
        {
          "name": "referrer",
          "type": "address"
        }
      ],
      "name": "setTilePrice",
      "outputs": [],
      "payable": true,
      "stateMutability": "payable",
      "type": "function"
    },
    {
      "constant": false,
      "inputs": [
        {
          "name": "tileId",
          "type": "uint8"
        },
        {
          "name": "newPrice",
          "type": "uint256"
        },
        {
          "name": "referrer",
          "type": "address"
        }
      ],
      "name": "buyTile",
      "outputs": [],
      "payable": true,
      "stateMutability": "payable",
      "type": "function"
    }
  ],
  "bytecode": "0x60806040526003805460a060020a60ff02191690553480156200002157600080fd5b5060405160208062001bc8833981016040525160038054600160a060020a03191633179055600181141562000090576003805460a060020a60ff021916740100000000000000000000000000000000000000001790556200008a640100000000620000aa810204565b620000a3565b620000a364010000000062000118810204565b50620001bb565b6000600981905562015180600a55600d8054600c5555620000d36401000000006200017d810204565b7f4cee8bfbd0f3e8cce8e5e3de038f95b57618c5f150758cdf9b13839800e1fa34600c54600b54604051808381526020018281526020019250505060405180910390a1565b426008819055600060075560408051670de0b6b3a7640000815267016345785d8a0000602082015262093a80818301526060810192909252517fa832766a05f1bd0298b0268308621777cfe1e4eea23afe7c06beea79bc6ddd2d9181900360800190a1565b600a544201600b81905560408051918252517fe3663e221e6fb10518d40e9d9a20cd6f59853232fbfebc7de3821ed0c8fb36d29181900360200190a1565b6119fd80620001cb6000396000f30060806040526004361061020d5763ffffffff7c01000000000000000000000000000000000000000000000000000000006000350416625b4487811461021257806303fca0611461023957806306e429621461024e5780630a6f5d8e1461024e5780630cbf54c8146102665780630e51574f1461027b5780630eb51c9c146102925780631ccff716146102a757806320178db3146102d25780633459d2ba146102e7578063391f3b2d146102fc5780633ebf2508146103145780633f4acbe8146103295780633fecde211461034657806349087bcc1461036357806351b472b9146103785780635b98f1691461038d5780635f99c1b2146103a85780636103d70b146103c057806366cd442a146103d55780636b31ee011461040c5780636b433ccf146103a857806371566c23146104215780637e9de0bc1461043657806384db8d1e146102fc5780638771fc4a146104535780638da5cb5b14610468578063925183cd1461047d5780639798532f1461049b578063a93b1a65146104b3578063aca21a1e146104d0578063ad2daa48146104e5578063c040e6b8146104fa578063c253942914610533578063c9e87f3114610548578063cf693418146102fc578063de8d77e71461055d578063e2982c2114610572578063e40205d614610593578063e9360a3614610548578063eb54f9ec146105a8578063f2fde38b146105bd578063ffd1220d146105de575b600080fd5b34801561021e57600080fd5b506102276105ef565b60408051918252519081900360200190f35b34801561024557600080fd5b506102276105f5565b34801561025a57600080fd5b506102276004356105fb565b34801561027257600080fd5b50610227610614565b34801561028757600080fd5b5061029061061b565b005b34801561029e57600080fd5b50610227610733565b3480156102b357600080fd5b506102bc61073a565b6040805160ff9092168252519081900360200190f35b3480156102de57600080fd5b5061022761073f565b3480156102f357600080fd5b50610227610745565b34801561030857600080fd5b50610227600435610863565b34801561032057600080fd5b50610227610876565b34801561033557600080fd5b506102276004356024351515610882565b61029060ff60043516602435600160a060020a03604435166108b8565b34801561036f57600080fd5b50610227610b20565b34801561038457600080fd5b50610227610b2c565b34801561039957600080fd5b5061022760ff60043516610b39565b3480156103b457600080fd5b50610227600435610b4b565b3480156103cc57600080fd5b50610290610b63565b3480156103e157600080fd5b506103f060ff60043516610bec565b60408051600160a060020a039092168252519081900360200190f35b34801561041857600080fd5b50610227610c07565b34801561042d57600080fd5b50610227610c0d565b61029060ff60043516602435600160a060020a0360443516610c13565b34801561045f57600080fd5b50610227610ee5565b34801561047457600080fd5b506103f0610eeb565b34801561048957600080fd5b506102bc60ff60043516602435610efa565b3480156104a757600080fd5b50610227600435610f32565b3480156104bf57600080fd5b506102276004356024351515610f45565b3480156104dc57600080fd5b506102bc610f66565b3480156104f157600080fd5b50610227610f6b565b34801561050657600080fd5b5061050f61100f565b6040518082600181111561051f57fe5b60ff16815260200191505060405180910390f35b34801561053f57600080fd5b5061022761101f565b34801561055457600080fd5b506102bc611025565b34801561056957600080fd5b5061022761102a565b34801561057e57600080fd5b50610227600160a060020a036004351661102f565b34801561059f57600080fd5b50610227611041565b3480156105b457600080fd5b50610227611047565b3480156105c957600080fd5b50610290600160a060020a036004351661104d565b61029060ff600435166024356110e2565b60025481565b600d5481565b600061060e82600263ffffffff61137316565b92915050565b62093a8081565b60018060035460a060020a900460ff16600181111561063657fe5b1461068d576040805160e560020a62461bcd028152602060048201526027602482015260008051602061199283398151915260448201526000805160206119b2833981519152606482015290519081900360840190fd5b61069561139b565b15156106eb576040805160e560020a62461bcd02815260206004820152601360248201527f526f756e64206d757374206265206f7665722100000000000000000000000000604482015290519081900360640190fd5b6106f36113a4565b600c5460408051918252517f3cf3fa68b629d58f07a4aab1808a70df09365f335635faa68ce0478aee6d8abc9181900360200190a16107306113fd565b50565b6201518081565b600181565b60065481565b6000808080808060035460a060020a900460ff16600181111561076457fe5b146107bb576040805160e560020a62461bcd028152602060048201526027602482015260008051602061199283398151915260448201526000805160206119b2833981519152606482015290519081900360840190fd5b600093506008544211156107e0576008546107dd90429063ffffffff61146016565b93505b62093a8084106107fa5767016345785d8a0000945061085c565b61081a670de0b6b3a764000067016345785d8a000063ffffffff61146016565b925061083f62093a80610833858763ffffffff61147716565b9063ffffffff61137316565b9150610859670de0b6b3a76400008363ffffffff61146016565b94505b5050505090565b600061060e82601463ffffffff61137316565b670de0b6b3a764000081565b600081156108a25761089b83601463ffffffff61137316565b905061060e565b61089b60c861083385600f63ffffffff61147716565b60008060018060035460a060020a900460ff1660018111156108d657fe5b1461092d576040805160e560020a62461bcd028152602060048201526027602482015260008051602061199283398151915260448201526000805160206119b2833981519152606482015290519081900360840190fd5b61093561139b565b1561098a576040805160e560020a62461bcd02815260206004820152601460248201527f526f756e642063616e2774206265206f76657221000000000000000000000000604482015290519081900360640190fd5b60ff8616600090815260046020526040902054600160a060020a03163314610a22576040805160e560020a62461bcd02815260206004820152602e60248201527f43616e2774207365742074696c6520707269636520666f7220612074696c652060448201527f796f7520646f6e2774206f776e21000000000000000000000000000000000000606482015290519081900360840190fd5b610a2b85610f32565b925034831115610a85576040805160e560020a62461bcd02815260206004820152601f60248201527f4d7573742070617920746178206f6e206e65772074696c652070726963652100604482015290519081900360640190fd5b60ff86166000908152600560205260409020549150610aa434856114ac565b610aae8686611519565b610ab661155b565b610abf34611599565b60ff86166000818152600460209081526040918290205482518681529182018990528251600160a060020a0390911693927f6c8ddfd61cb90c6918b2dfdf677c44fc270fcb4b7dfa22b0665fbd1976832fca928290030190a3505050505050565b67016345785d8a000081565b68056bc75e2d6310000081565b60056020526000908152604090205481565b600061060e600561083384600263ffffffff61147716565b33600081815260016020526040902054801515610b7f57600080fd5b3031811115610b8d57600080fd5b600254610ba0908263ffffffff61146016565b600255600160a060020a0382166000818152600160205260408082208290555183156108fc0291849190818181858888f19350505050158015610be7573d6000803e3d6000fd5b505050565b600460205260009081526040902054600160a060020a031681565b600c5481565b60075481565b600080808060018060035460a060020a900460ff166001811115610c3357fe5b14610c8a576040805160e560020a62461bcd028152602060048201526027602482015260008051602061199283398151915260448201526000805160206119b2833981519152606482015290519081900360840190fd5b610c9261139b565b15610ce7576040805160e560020a62461bcd02815260206004820152601460248201527f526f756e642063616e2774206265206f76657221000000000000000000000000604482015290519081900360640190fd5b60ff8816600090815260046020526040902054600160a060020a0316945033851415610d5d576040805160e560020a62461bcd02815260206004820181905260248201527f43616e27742062757920612074696c6520796f7520616c7265616479206f776e604482015290519081900360640190fd5b610d6687610f32565b60ff89166000908152600560205260409020549094509250610d8e848463ffffffff6115f216565b341015610e0a576040805160e560020a62461bcd028152602060048201526024808201527f4d757374207061792066756c6c20707269636520616e642074617820666f722060448201527f74696c6500000000000000000000000000000000000000000000000000000000606482015290519081900360840190fd5b60ff8816600090815260056020526040902054610e28908690611604565b60ff88166000908152600460205260409020805473ffffffffffffffffffffffffffffffffffffffff191633179055610e67348463ffffffff61146016565b9150610e7382876114ac565b610e7d8888611519565b610e8561155b565b610e8e34611599565b604080518481526020810189905281513392600160a060020a0389169260ff8d16927f7a60be58ea0cf4cbccda877e1d59dc979442a2a3cc294136d1b7a325e366f34d929181900390910190a45050505050505050565b60095481565b600354600160a060020a031681565b600060205281600052604060002081600681101515610f1557fe5b602081049091015460ff601f9092166101000a9004169150829050565b600061060e82600a63ffffffff61137316565b60008115610f5e5761089b83602863ffffffff61137316565b50600061060e565b600081565b600060018060035460a060020a900460ff166001811115610f8857fe5b14610fdf576040805160e560020a62461bcd028152602060048201526027602482015260008051602061199283398151915260448201526000805160206119b2833981519152606482015290519081900360840190fd5b610fe761139b565b15610ff5576000915061100b565b600b54611008904263ffffffff61146016565b91505b5090565b60035460a060020a900460ff1681565b600a5481565b601381565b600a81565b60016020526000908152604090205481565b600b5481565b60085481565b600354600160a060020a0316331461106457600080fd5b600160a060020a038116151561107957600080fd5b600354604051600160a060020a038084169216907f8be0079c531659141344cd1fd0a4f28419497f9722a3daafe3b4186f6b6457e090600090a36003805473ffffffffffffffffffffffffffffffffffffffff1916600160a060020a0392909216919091179055565b600080808060035460a060020a900460ff1660018111156110ff57fe5b14611156576040805160e560020a62461bcd028152602060048201526027602482015260008051602061199283398151915260448201526000805160206119b2833981519152606482015290519081900360840190fd5b60ff8516600090815260046020526040902054600160a060020a031615801561118f575060ff8516600090815260056020526040902054155b151561120b576040805160e560020a62461bcd02815260206004820152603260248201527f43616e27742062757920612074696c652074686174277320616c72656164792060448201527f6265656e2061756374696f6e6564206f66660000000000000000000000000000606482015290519081900360840190fd5b61121484610f32565b925061121e610745565b9150611230838363ffffffff6115f216565b3410156112ad576040805160e560020a62461bcd02815260206004820152603560248201527f4d75737420706179207468652066756c6c20707269636520616e64207461782060448201527f666f7220612074696c65206f6e2061756374696f6e0000000000000000000000606482015290519081900360840190fd5b6112c56112c0848463ffffffff6115f216565b611660565b60ff85166000908152600460205260409020805473ffffffffffffffffffffffffffffffffffffffff1916331790556112fe8585611519565b60075461131290600163ffffffff6115f216565b60075560408051838152602081018690528151339260009260ff8a16927f7a60be58ea0cf4cbccda877e1d59dc979442a2a3cc294136d1b7a325e366f34d929181900390910190a460075460131161136c5761136c611676565b5050505050565b60008080831161138257600080fd5b828481151561138d57fe5b0490508091505b5092915050565b600b5442101590565b6000806113b2600c546105fb565b91506113bf600c54610b4b565b90506113cb8282611758565b6113d96112c0600c54610863565b6113f66113e7600c54610863565b600d549063ffffffff6115f216565b600d555050565b6000600981905562015180600a55600d8054600c555561141b61155b565b7f4cee8bfbd0f3e8cce8e5e3de038f95b57618c5f150758cdf9b13839800e1fa34600c54600b54604051808381526020018281526020019250505060405180910390a1565b6000808383111561147057600080fd5b5050900390565b60008083151561148a5760009150611394565b5082820282848281151561149a57fe5b04146114a557600080fd5b9392505050565b60006114c96114ba846105fb565b600c549063ffffffff6115f216565b600c556114dd6114d884610b4b565b6118c2565b6114e96113e784610863565b600d5550600160a060020a03811615156115066112c08483610882565b610be7826115148584610f45565b611604565b60ff82166000908152600560205260409020805490829055611553611544838363ffffffff61146016565b6006549063ffffffff6115f216565b600655505050565b600a544201600b81905560408051918252517fe3663e221e6fb10518d40e9d9a20cd6f59853232fbfebc7de3821ed0c8fb36d29181900360200190a1565b6009546115ac908263ffffffff6115f216565b600981905568056bc75e2d6310000011610730576115e7600a6115db6002600a5461137390919063ffffffff16565b9063ffffffff61197a16565b600a55600060095550565b6000828201838110156114a557600080fd5b600160a060020a03821660009081526001602052604090205461162d908263ffffffff6115f216565b600160a060020a038316600090815260016020526040902055600254611659908263ffffffff6115f216565b6002555050565b60035461073090600160a060020a031682611604565b600754601311156116f7576040805160e560020a62461bcd02815260206004820152602760248201527f43616e277420656e642061756374696f6e2069662061726520756e626f75676860448201527f742074696c657300000000000000000000000000000000000000000000000000606482015290519081900360840190fd5b6003805474ff0000000000000000000000000000000000000000191660a060020a1790556117236113fd565b6040805142815290517f45806e512b1f4f10e33e8b3cb64d1d11d998d8c554a95e0841fc1c701278bd5d9181900360200190a1565b6040805160148082526102a08201909252606091600091829182918291829182916020820161028080388339019050509650600095506000945060009350600192505b601360ff84161161181e5760ff83166000908152600560205260409020546006546117cb9163ffffffff61146016565b91508415806117d957508482115b156117e5578194508293505b81878460ff168151811015156117f757fe5b60209081029091010152611811868363ffffffff6115f216565b955060019092019161179b565b60ff841660009081526004602052604090205461184490600160a060020a03168a611604565b600192505b601360ff8416116118b757611883866108338a8a8760ff1681518110151561186d57fe5b602090810290910101519063ffffffff61147716565b60ff84166000908152600460205260409020549091506118ac90600160a060020a031682611604565b600190920191611849565b505050505050505050565b60016000805b601360ff8416116119745760ff8316600090815260046020526040902054600160a060020a03161580159061190e575060ff831660009081526005602052604090205415155b156119695760ff831660009081526005602052604090205460065490925061194090610833868563ffffffff61147716565b60ff841660009081526004602052604090205490915061196990600160a060020a031682611604565b6001909201916118c8565b50505050565b60008183101561198a57816114a5565b5090919050560046756e6374696f6e2063616e6e6f742062652063616c6c656420617420746869732074696d652e00000000000000000000000000000000000000000000000000a165627a7a723058208a9dbe3852fc4ef9542e3bf865cb6305ddd74dce481f4c5f390f7c2b1deb2d7d0029",
  "source": "pragma solidity ^0.4.22;\n\n// Zeppelin libs\nimport \"./Math.sol\";\nimport \"./Ownable.sol\";\nimport \"./PullPayment.sol\";\nimport \"./SafeMath.sol\";\n\n// Microverse libs\nimport \"./HexBoard3.sol\";\nimport \"./JackpotRules.sol\";\nimport \"./TaxRules.sol\";\n\ncontract Microverse is\n    HexBoard3,\n    PullPayment,\n    Ownable,\n    TaxRules,\n    JackpotRules {\n    using SafeMath for uint256;\n    using Math for uint256;\n\n    // states this contract progresses through\n    enum Stage {\n        DutchAuction,\n        GameRounds\n    }\n    Stage public stage = Stage.DutchAuction;\n\n    modifier atStage(Stage _stage) {\n        require(\n            stage == _stage,\n            \"Function cannot be called at this time.\"\n        );\n        _;\n    }\n\n    // NOTE: stage arg for debugging purposes only! Should just be set to 0 by default\n    constructor(uint startingStage) public {\n        if (startingStage == uint(Stage.GameRounds)) {\n            stage = Stage.GameRounds;\n            _startGameRound();\n        } else {\n            _startAuction();\n        }\n    }\n\n    mapping(uint8 => address) public tileToOwner;\n    mapping(uint8 => uint256) public tileToPrice;\n    uint256 public totalTileValue;\n\n    // TODO: Change this once we define 'team'\n    function _sendToTeam(uint256 amount) private {\n        asyncSend(owner, amount);\n    }\n\n    function _changeTilePrice(uint8 tileId, uint256 newPrice) private {\n        uint256 oldPrice = tileToPrice[tileId];\n        tileToPrice[tileId] = newPrice;\n        totalTileValue = totalTileValue.add(newPrice.sub(oldPrice));\n    }\n\n    event TileOwnerChanged(\n        uint8 indexed tileId,\n        address indexed oldOwner,\n        address indexed newOwner,\n        uint256 oldPrice,\n        uint256 newPrice\n    );\n\n    //////////\n    // Auction\n    //////////\n\n    event AuctionStarted(\n        uint256 startingAuctionPrice,\n        uint256 endingAuctionPrice,\n        uint256 auctionDuration,\n        uint256 startTime\n    );\n\n    event AuctionEnded(\n        uint256 endTime\n    );\n\n    uint256 constant public startingAuctionPrice = 1 ether;\n    uint256 constant public endingAuctionPrice = 0.1 ether;\n\n    uint256 constant public auctionDuration = 7 days; // period over which land price decreases linearly\n\n    uint256 public numBoughtTiles;\n    uint256 public auctionStartTime;\n\n    function buyTileAuction(uint8 tileId, uint256 newPrice) public payable atStage(Stage.DutchAuction) {\n        require(\n            tileToOwner[tileId] == address(0) && tileToPrice[tileId] == 0,\n            \"Can't buy a tile that's already been auctioned off\"\n        );\n\n        uint256 tax = _priceToTax(newPrice);\n        uint256 price = getTilePriceAuction();\n\n        require(\n            msg.value >= tax.add(price),\n            \"Must pay the full price and tax for a tile on auction\"\n        );\n\n        _sendToTeam(tax.add(price));\n\n        tileToOwner[tileId] = msg.sender;\n        _changeTilePrice(tileId, newPrice);\n\n        numBoughtTiles = numBoughtTiles.add(1);\n\n        emit TileOwnerChanged(tileId, address(0), msg.sender, price, newPrice);\n\n        if (numBoughtTiles >= numTiles) {\n            endAuction();\n        }\n    }\n\n    function getTilePriceAuction() public view atStage(Stage.DutchAuction) returns (uint256) {\n        uint256 secondsPassed = 0;\n\n        // This should always be the case...\n        if (now > auctionStartTime) {\n            secondsPassed = now.sub(auctionStartTime);\n        }\n\n        if (secondsPassed >= auctionDuration) {\n            return endingAuctionPrice;\n        } else {\n            uint256 maxPriceDelta = startingAuctionPrice.sub(endingAuctionPrice);\n            uint256 actualPriceDelta = (maxPriceDelta.mul(secondsPassed)).div(auctionDuration);\n\n            return startingAuctionPrice.sub(actualPriceDelta);\n        }\n    }\n\n    function endAuction() private {\n        require(\n            numBoughtTiles >= numTiles,\n            \"Can't end auction if are unbought tiles\"\n        );\n\n        stage = Stage.GameRounds;\n        _startGameRound();\n\n        emit AuctionEnded(now);\n    }\n\n    function _startAuction() private {\n        auctionStartTime = now;\n        numBoughtTiles = 0;\n\n        emit AuctionStarted(startingAuctionPrice,\n                            endingAuctionPrice,\n                            auctionDuration,\n                            auctionStartTime);\n    }\n\n    ///////\n    // Game\n    ///////\n\n    // Used to ensure a round ends\n    uint256 constant public startingRoundExtension = 24 hours;\n    uint256 constant public halvingVolume = 100 ether; // tx volume before next duration halving\n    uint256 constant public minRoundExtension = 10 seconds; // could set to 1 second\n\n    uint256 public curExtensionVolume;\n    uint256 public curRoundExtension;\n\n    uint256 public roundEndTime;\n\n    uint256 public jackpot;\n    uint256 public nextJackpot;\n\n    // Only emitted if owner doesn't *also* change\n    event TilePriceChanged(\n        uint8 indexed tileId,\n        address indexed owner,\n        uint256 oldPrice,\n        uint256 newPrice\n    );\n\n    event GameRoundStarted(\n        uint256 initJackpot,\n        uint256 endTime\n    );\n\n    event GameRoundExtended(\n        uint256 endTime\n    );\n\n    event GameRoundEnded(\n        uint256 jackpot\n    );\n\n    ////////////////////////////////////\n    // [Game] Round extension management\n    ////////////////////////////////////\n\n    function roundTimeRemaining() public view atStage(Stage.GameRounds) returns (uint256)  {\n        if (_roundOver()) {\n            return 0;\n        } else {\n            return roundEndTime.sub(now);\n        }\n    }\n\n    function _extendRound() private {\n        roundEndTime = now + curRoundExtension;\n\n        emit GameRoundExtended(roundEndTime);\n    }\n\n    function _startGameRound() private {\n        curExtensionVolume = 0 ether;\n        curRoundExtension = startingRoundExtension;\n\n        jackpot = nextJackpot;\n        nextJackpot = 0;\n\n        _extendRound();\n\n        emit GameRoundStarted(jackpot, roundEndTime);\n    }\n\n    function _roundOver() private view returns (bool) {\n        return now >= roundEndTime;\n    }\n\n    modifier duringRound() {\n        require(\n            !_roundOver(),\n            \"Round can't be over!\"\n        );\n        _;\n    }\n\n    // NOTE: Must be called for all volume we want to count towards round extension halving\n    function _logRoundExtensionVolume(uint256 amount) private {\n        curExtensionVolume = curExtensionVolume.add(amount);\n\n        if (curExtensionVolume >= halvingVolume) {\n            curRoundExtension = curRoundExtension.div(2).max(minRoundExtension);\n            curExtensionVolume = 0 ether;\n        }\n    }\n\n    ////////////////////////\n    // [Game] Player actions\n    ////////////////////////\n\n    function endGameRound() public atStage(Stage.GameRounds) {\n        require(\n            _roundOver(),\n            \"Round must be over!\"\n        );\n\n        _distributeJackpot();\n\n        emit GameRoundEnded(jackpot);\n\n        _startGameRound();\n    }\n\n    function setTilePrice(uint8 tileId, uint256 newPrice, address referrer)\n        public\n        payable\n        atStage(Stage.GameRounds)\n        duringRound {\n        require(\n            tileToOwner[tileId] == msg.sender,\n            \"Can't set tile price for a tile you don't own!\"\n        );\n\n        uint256 tax = _priceToTax(newPrice);\n\n        require(\n            msg.value >= tax,\n            \"Must pay tax on new tile price!\"\n        );\n\n        uint256 oldPrice = tileToPrice[tileId];\n        _distributeTax(msg.value, referrer);\n        _changeTilePrice(tileId, newPrice);\n\n        // NOTE: Currently we extend round for 'every' tile price change. Alternatively could do only on\n        // increases or decreases or changes exceeding some magnitude\n        _extendRound();\n        _logRoundExtensionVolume(msg.value);\n\n        emit TilePriceChanged(tileId, tileToOwner[tileId], oldPrice, newPrice);\n    }\n\n    function buyTile(uint8 tileId, uint256 newPrice, address referrer)\n        public\n        payable\n        atStage(Stage.GameRounds)\n        duringRound {\n        address oldOwner = tileToOwner[tileId];\n        require(\n            oldOwner != msg.sender,\n            \"Can't buy a tile you already own\"\n        );\n\n        uint256 tax = _priceToTax(newPrice);\n\n        uint256 oldPrice = tileToPrice[tileId];\n        require(\n            msg.value >= tax.add(oldPrice),\n            \"Must pay full price and tax for tile\"\n        );\n\n        // pay seller\n        asyncSend(oldOwner, tileToPrice[tileId]);\n        tileToOwner[tileId] = msg.sender;\n\n        uint256 actualTax = msg.value.sub(oldPrice);\n        _distributeTax(actualTax, referrer);\n\n        _changeTilePrice(tileId, newPrice);\n        _extendRound();\n        _logRoundExtensionVolume(msg.value);\n\n        emit TileOwnerChanged(tileId, oldOwner, msg.sender, oldPrice, newPrice);\n    }\n\n    ///////////////////////////////////////\n    // [Game] Dividend/jackpot distribution\n    ///////////////////////////////////////\n\n    function _distributeJackpot() private {\n        uint256 winnerJackpot = _winnerJackpot(jackpot);\n        uint256 landholderJackpot = _landholderJackpot(jackpot);\n        _distributeWinnerAndLandholderJackpot(winnerJackpot, landholderJackpot);\n\n        _sendToTeam(_teamJackpot(jackpot));\n        nextJackpot = nextJackpot.add(_nextPotJackpot(jackpot));\n    }\n\n    function _distributeWinnerAndLandholderJackpot(uint256 winnerJackpot, uint256 landholderJackpot) private {\n        uint256[] memory complements = new uint256[](numTiles + 1); // inc necessary b/c tiles are 1-indexed\n        uint256 totalPriceComplement = 0;\n\n        uint256 bestComplement = 0;\n        uint8 winningTile = 0;\n        for (uint8 i = minTileId; i <= maxTileId; i++) {\n            uint256 priceComplement = totalTileValue.sub(tileToPrice[i]);\n\n            // update winner\n            if (bestComplement == 0 || priceComplement > bestComplement) {\n                bestComplement = priceComplement;\n                winningTile = i;\n            }\n\n            complements[i] = priceComplement;\n            totalPriceComplement = totalPriceComplement.add(priceComplement);\n        }\n\n        // distribute jackpot\n        asyncSend(tileToOwner[winningTile], winnerJackpot);\n\n        // distribute landholder things\n        for (i = minTileId; i <= maxTileId; i++) {\n            // NOTE: We don't exclude the jackpot winner here, so the winner is paid 'twice'\n            uint256 landholderAllocation = complements[i].mul(landholderJackpot).div(totalPriceComplement);\n\n            asyncSend(tileToOwner[i], landholderAllocation);\n        }\n    }\n\n    function _distributeTax(uint256 tax, address referrer) private {\n        jackpot = jackpot.add(_jackpotTax(tax));\n\n        _distributeLandholderTax(_totalLandholderTax(tax));\n        nextJackpot = nextJackpot.add(_nextPotTax(tax));\n\n        // NOTE: referrer tax comes out of dev team tax\n        bool hasReferrer = referrer != address(0);\n        _sendToTeam(_teamTax(tax, hasReferrer));\n        asyncSend(referrer, _referrerTax(tax, hasReferrer));\n    }\n\n    function _distributeLandholderTax(uint256 tax) private {\n        for (uint8 tile = minTileId; tile <= maxTileId; tile++) {\n            if (tileToOwner[tile] != address(0) && tileToPrice[tile] != 0) {\n                uint256 tilePrice = tileToPrice[tile];\n                uint256 allocation = tax.mul(tilePrice).div(totalTileValue);\n\n                asyncSend(tileToOwner[tile], allocation);\n            }\n        }\n    }\n}\n",
  "sourcePath": "/Users/lakshmansankar/src/microverse/eth/contracts/Microverse.sol",
  "compiler": {
    "name": "solc",
    "version": "0.4.24+commit.e67f0147.Emscripten.clang"
  },
  "schemaVersion": "2.0.1",
  "updatedAt": "2018-10-29T01:58:48.988Z"
}